{
  "transactions": [
    {
      "hash": "0xc011063482c1c30ee56f39982c7731527e7a4e16a55e87f6d4e09d3ac32064db",
      "transactionType": "CALL",
      "contractName": null,
      "contractAddress": "0x137f6AD66a03B03674625cD82cb24e24bEa7312d",
      "function": "createInstitution(string,address)",
      "arguments": [
        "\"Institution \\0\\0\\0\\0\\0\\0\\0\\0\\0\\0\\0\\0\\0\\0\\0\\0\\0\\0\\0\\0\\0\\0\\0\\0\\0\\0\\0\\0\\0\\0\\0\\u{1}\"",
        "0x7E5F4552091A69125d5DfCb7b8C2659029395Bdf"
      ],
      "transaction": {
        "type": "0x00",
        "from": "0xd1d1b8f0b6740fad9fb4166eeeefeddb84770938",
        "to": "0x137f6ad66a03b03674625cd82cb24e24bea7312d",
        "gas": "0x13d6b",
        "value": "0x0",
        "data": "0xe748f56800000000000000000000000000000000000000000000000000000000000000400000000000000000000000007e5f4552091a69125d5dfcb7b8c2659029395bdf000000000000000000000000000000000000000000000000000000000000002c496e737469747574696f6e2000000000000000000000000000000000000000000000000000000000000000010000000000000000000000000000000000000000",
        "nonce": "0x14"
      },
      "additionalContracts": [],
      "isFixedGasLimit": false
    },
    {
      "hash": "0x44c78e94059150b5f536912ec1dbcf16a01a558c2517500828a227d498b3e0db",
      "transactionType": "CALL",
      "contractName": null,
      "contractAddress": "0x137f6AD66a03B03674625cD82cb24e24bEa7312d",
      "function": "createInstitution(string,address)",
      "arguments": [
        "\"Institution \\0\\0\\0\\0\\0\\0\\0\\0\\0\\0\\0\\0\\0\\0\\0\\0\\0\\0\\0\\0\\0\\0\\0\\0\\0\\0\\0\\0\\0\\0\\0\\u{2}\"",
        "0x2B5AD5c4795c026514f8317c7a215E218DcCD6cF"
      ],
      "transaction": {
        "type": "0x00",
        "from": "0xd1d1b8f0b6740fad9fb4166eeeefeddb84770938",
        "to": "0x137f6ad66a03b03674625cd82cb24e24bea7312d",
        "gas": "0x13d6b",
        "value": "0x0",
        "data": "0xe748f56800000000000000000000000000000000000000000000000000000000000000400000000000000000000000002b5ad5c4795c026514f8317c7a215e218dccd6cf000000000000000000000000000000000000000000000000000000000000002c496e737469747574696f6e2000000000000000000000000000000000000000000000000000000000000000020000000000000000000000000000000000000000",
        "nonce": "0x15"
      },
      "additionalContracts": [],
      "isFixedGasLimit": false
    },
    {
      "hash": "0xc7e745f22e7d9913edc82911a6a5584aaded8af5e7a9119aa2e2665a572f3a22",
      "transactionType": "CALL",
      "contractName": null,
      "contractAddress": "0x137f6AD66a03B03674625cD82cb24e24bEa7312d",
      "function": "createInstitution(string,address)",
      "arguments": [
        "\"Institution \\0\\0\\0\\0\\0\\0\\0\\0\\0\\0\\0\\0\\0\\0\\0\\0\\0\\0\\0\\0\\0\\0\\0\\0\\0\\0\\0\\0\\0\\0\\0\\u{3}\"",
        "0x6813Eb9362372EEF6200f3b1dbC3f819671cBA69"
      ],
      "transaction": {
        "type": "0x00",
        "from": "0xd1d1b8f0b6740fad9fb4166eeeefeddb84770938",
        "to": "0x137f6ad66a03b03674625cd82cb24e24bea7312d",
        "gas": "0x12bb7",
        "value": "0x0",
        "data": "0xe748f56800000000000000000000000000000000000000000000000000000000000000400000000000000000000000006813eb9362372eef6200f3b1dbc3f819671cba69000000000000000000000000000000000000000000000000000000000000002c496e737469747574696f6e2000000000000000000000000000000000000000000000000000000000000000030000000000000000000000000000000000000000",
        "nonce": "0x16"
      },
      "additionalContracts": [],
      "isFixedGasLimit": false
    },
    {
      "hash": "0x100652c7829c33096d883ee619bcdfeebc5593e817639cdea137a6b9ffe71720",
      "transactionType": "CALL",
      "contractName": null,
      "contractAddress": "0x137f6AD66a03B03674625cD82cb24e24bEa7312d",
      "function": "createInstitution(string,address)",
      "arguments": [
        "\"Institution \\0\\0\\0\\0\\0\\0\\0\\0\\0\\0\\0\\0\\0\\0\\0\\0\\0\\0\\0\\0\\0\\0\\0\\0\\0\\0\\0\\0\\0\\0\\0\\u{4}\"",
        "0x1efF47bc3a10a45D4B230B5d10E37751FE6AA718"
      ],
      "transaction": {
        "type": "0x00",
        "from": "0xd1d1b8f0b6740fad9fb4166eeeefeddb84770938",
        "to": "0x137f6ad66a03b03674625cd82cb24e24bea7312d",
        "gas": "0x13d6b",
        "value": "0x0",
        "data": "0xe748f56800000000000000000000000000000000000000000000000000000000000000400000000000000000000000001eff47bc3a10a45d4b230b5d10e37751fe6aa718000000000000000000000000000000000000000000000000000000000000002c496e737469747574696f6e2000000000000000000000000000000000000000000000000000000000000000040000000000000000000000000000000000000000",
        "nonce": "0x17"
      },
      "additionalContracts": [],
      "isFixedGasLimit": false
    },
    {
      "hash": "0x5d6a79f20363ecf16b05734f95f1560bf6aa359345316c29dc143f5e945df0a2",
      "transactionType": "CALL",
      "contractName": null,
      "contractAddress": "0x137f6AD66a03B03674625cD82cb24e24bEa7312d",
      "function": "createInstitution(string,address)",
      "arguments": [
        "\"Institution \\0\\0\\0\\0\\0\\0\\0\\0\\0\\0\\0\\0\\0\\0\\0\\0\\0\\0\\0\\0\\0\\0\\0\\0\\0\\0\\0\\0\\0\\0\\0\\u{5}\"",
        "0xe1AB8145F7E55DC933d51a18c793F901A3A0b276"
      ],
      "transaction": {
        "type": "0x00",
        "from": "0xd1d1b8f0b6740fad9fb4166eeeefeddb84770938",
        "to": "0x137f6ad66a03b03674625cd82cb24e24bea7312d",
        "gas": "0x13d6b",
        "value": "0x0",
        "data": "0xe748f5680000000000000000000000000000000000000000000000000000000000000040000000000000000000000000e1ab8145f7e55dc933d51a18c793f901a3a0b276000000000000000000000000000000000000000000000000000000000000002c496e737469747574696f6e2000000000000000000000000000000000000000000000000000000000000000050000000000000000000000000000000000000000",
        "nonce": "0x18"
      },
      "additionalContracts": [],
      "isFixedGasLimit": false
    },
    {
      "hash": "0x877dd1b8571ff1d095afb9148c60ce8c08f098b9d4ff9bc99084ac3adf58cc85",
      "transactionType": "CALL",
      "contractName": null,
      "contractAddress": "0x137f6AD66a03B03674625cD82cb24e24bEa7312d",
      "function": "createProject(uint256,address,uint256,string)",
      "arguments": [
        "100",
        "0xE57bFE9F44b819898F47BF37E5AF72a0783e1141",
        "1000",
        "\"Project \\0\\0\\0\\0\\0\\0\\0\\0\\0\\0\\0\\0\\0\\0\\0\\0\\0\\0\\0\\0\\0\\0\\0\\0\\0\\0\\0\\0\\0\\0\\0\\u{1}\""
      ],
      "transaction": {
        "type": "0x00",
        "from": "0xd1d1b8f0b6740fad9fb4166eeeefeddb84770938",
        "to": "0x137f6ad66a03b03674625cd82cb24e24bea7312d",
        "gas": "0x46acf",
        "value": "0x0",
        "data": "0x71c79f6b0000000000000000000000000000000000000000000000000000000000000064000000000000000000000000e57bfe9f44b819898f47bf37e5af72a0783e114100000000000000000000000000000000000000000000000000000000000003e80000000000000000000000000000000000000000000000000000000000000080000000000000000000000000000000000000000000000000000000000000002850726f6a656374200000000000000000000000000000000000000000000000000000000000000001000000000000000000000000000000000000000000000000",
        "nonce": "0x19"
      },
      "additionalContracts": [],
      "isFixedGasLimit": false
    },
    {
      "hash": "0x4907ab51fd980453313e5ab664c78cfec35f9ce3f8eb4eae98e4e2e8e8383d88",
      "transactionType": "CALL",
      "contractName": null,
      "contractAddress": "0x137f6AD66a03B03674625cD82cb24e24bEa7312d",
      "function": "createProject(uint256,address,uint256,string)",
      "arguments": [
        "110",
        "0xd41c057fd1c78805AAC12B0A94a405c0461A6FBb",
        "1001",
        "\"Project \\0\\0\\0\\0\\0\\0\\0\\0\\0\\0\\0\\0\\0\\0\\0\\0\\0\\0\\0\\0\\0\\0\\0\\0\\0\\0\\0\\0\\0\\0\\0\\u{2}\""
      ],
      "transaction": {
        "type": "0x00",
        "from": "0xd1d1b8f0b6740fad9fb4166eeeefeddb84770938",
        "to": "0x137f6ad66a03b03674625cd82cb24e24bea7312d",
        "gas": "0x46acf",
        "value": "0x0",
        "data": "0x71c79f6b000000000000000000000000000000000000000000000000000000000000006e000000000000000000000000d41c057fd1c78805aac12b0a94a405c0461a6fbb00000000000000000000000000000000000000000000000000000000000003e90000000000000000000000000000000000000000000000000000000000000080000000000000000000000000000000000000000000000000000000000000002850726f6a656374200000000000000000000000000000000000000000000000000000000000000002000000000000000000000000000000000000000000000000",
        "nonce": "0x1a"
      },
      "additionalContracts": [],
      "isFixedGasLimit": false
    },
    {
      "hash": "0xcd871419a1536c64891b20eac473b341b92c18d430405257e998affac08c53a7",
      "transactionType": "CALL",
      "contractName": null,
      "contractAddress": "0x137f6AD66a03B03674625cD82cb24e24bEa7312d",
      "function": "createProject(uint256,address,uint256,string)",
      "arguments": [
        "120",
        "0xF1F6619B38A98d6De0800F1DefC0a6399eB6d30C",
        "1002",
        "\"Project \\0\\0\\0\\0\\0\\0\\0\\0\\0\\0\\0\\0\\0\\0\\0\\0\\0\\0\\0\\0\\0\\0\\0\\0\\0\\0\\0\\0\\0\\0\\0\\u{3}\""
      ],
      "transaction": {
        "type": "0x00",
        "from": "0xd1d1b8f0b6740fad9fb4166eeeefeddb84770938",
        "to": "0x137f6ad66a03b03674625cd82cb24e24bea7312d",
        "gas": "0x46acf",
        "value": "0x0",
        "data": "0x71c79f6b0000000000000000000000000000000000000000000000000000000000000078000000000000000000000000f1f6619b38a98d6de0800f1defc0a6399eb6d30c00000000000000000000000000000000000000000000000000000000000003ea0000000000000000000000000000000000000000000000000000000000000080000000000000000000000000000000000000000000000000000000000000002850726f6a656374200000000000000000000000000000000000000000000000000000000000000003000000000000000000000000000000000000000000000000",
        "nonce": "0x1b"
      },
      "additionalContracts": [],
      "isFixedGasLimit": false
    },
    {
      "hash": "0x9e7798256ec1fb10becd4aaae94a4133b8f880a7c032d2e51362571316b56f28",
      "transactionType": "CALL",
      "contractName": null,
      "contractAddress": "0x137f6AD66a03B03674625cD82cb24e24bEa7312d",
      "function": "createProject(uint256,address,uint256,string)",
      "arguments": [
        "130",
        "0xF7Edc8FA1eCc32967F827C9043FcAe6ba73afA5c",
        "1003",
        "\"Project \\0\\0\\0\\0\\0\\0\\0\\0\\0\\0\\0\\0\\0\\0\\0\\0\\0\\0\\0\\0\\0\\0\\0\\0\\0\\0\\0\\0\\0\\0\\0\\u{4}\""
      ],
      "transaction": {
        "type": "0x00",
        "from": "0xd1d1b8f0b6740fad9fb4166eeeefeddb84770938",
        "to": "0x137f6ad66a03b03674625cd82cb24e24bea7312d",
        "gas": "0x46acf",
        "value": "0x0",
        "data": "0x71c79f6b0000000000000000000000000000000000000000000000000000000000000082000000000000000000000000f7edc8fa1ecc32967f827c9043fcae6ba73afa5c00000000000000000000000000000000000000000000000000000000000003eb0000000000000000000000000000000000000000000000000000000000000080000000000000000000000000000000000000000000000000000000000000002850726f6a656374200000000000000000000000000000000000000000000000000000000000000004000000000000000000000000000000000000000000000000",
        "nonce": "0x1c"
      },
      "additionalContracts": [],
      "isFixedGasLimit": false
    },
    {
      "hash": "0xf7a208f064f18f4890e04805da25677b39cceeb301005db4260ef76c4cd393da",
      "transactionType": "CALL",
      "contractName": null,
      "contractAddress": "0x137f6AD66a03B03674625cD82cb24e24bEa7312d",
      "function": "createProject(uint256,address,uint256,string)",
      "arguments": [
        "140",
        "0x4CCeBa2d7D2B4fdcE4304d3e09a1fea9fbEb1528",
        "1004",
        "\"Project \\0\\0\\0\\0\\0\\0\\0\\0\\0\\0\\0\\0\\0\\0\\0\\0\\0\\0\\0\\0\\0\\0\\0\\0\\0\\0\\0\\0\\0\\0\\0\\u{5}\""
      ],
      "transaction": {
        "type": "0x00",
        "from": "0xd1d1b8f0b6740fad9fb4166eeeefeddb84770938",
        "to": "0x137f6ad66a03b03674625cd82cb24e24bea7312d",
        "gas": "0x46acf",
        "value": "0x0",
        "data": "0x71c79f6b000000000000000000000000000000000000000000000000000000000000008c0000000000000000000000004cceba2d7d2b4fdce4304d3e09a1fea9fbeb152800000000000000000000000000000000000000000000000000000000000003ec0000000000000000000000000000000000000000000000000000000000000080000000000000000000000000000000000000000000000000000000000000002850726f6a656374200000000000000000000000000000000000000000000000000000000000000005000000000000000000000000000000000000000000000000",
        "nonce": "0x1d"
      },
      "additionalContracts": [],
      "isFixedGasLimit": false
    },
    {
      "hash": "0x2e41c30a4adbfac2aedf302c1686ecc29cbd1b5393d6b6977c9501a02747e9bf",
      "transactionType": "CALL",
      "contractName": null,
      "contractAddress": "0x137f6AD66a03B03674625cD82cb24e24bEa7312d",
      "function": "createVoter(string,address)",
      "arguments": [
        "\"Voter \\0\\0\\0\\0\\0\\0\\0\\0\\0\\0\\0\\0\\0\\0\\0\\0\\0\\0\\0\\0\\0\\0\\0\\0\\0\\0\\0\\0\\0\\0\\0\\u{1}\"",
        "0x3DA8D322CB2435dA26E9C9fEE670f9fB7Fe74E49"
      ],
      "transaction": {
        "type": "0x00",
        "from": "0xd1d1b8f0b6740fad9fb4166eeeefeddb84770938",
        "to": "0x137f6ad66a03b03674625cd82cb24e24bea7312d",
        "gas": "0x12bc3",
        "value": "0x0",
        "data": "0x2a4be2ad00000000000000000000000000000000000000000000000000000000000000400000000000000000000000003da8d322cb2435da26e9c9fee670f9fb7fe74e490000000000000000000000000000000000000000000000000000000000000026566f7465722000000000000000000000000000000000000000000000000000000000000000010000000000000000000000000000000000000000000000000000",
        "nonce": "0x1e"
      },
      "additionalContracts": [],
      "isFixedGasLimit": false
    },
    {
      "hash": "0x63c277fe8a367f8781371d56770f39771fbf3622dfb44c16140905fab68f9bfc",
      "transactionType": "CALL",
      "contractName": null,
      "contractAddress": "0x137f6AD66a03B03674625cD82cb24e24bEa7312d",
      "function": "createVoter(string,address)",
      "arguments": [
        "\"Voter \\0\\0\\0\\0\\0\\0\\0\\0\\0\\0\\0\\0\\0\\0\\0\\0\\0\\0\\0\\0\\0\\0\\0\\0\\0\\0\\0\\0\\0\\0\\0\\u{2}\"",
        "0xDbc23AE43a150ff8884B02Cea117b22D1c3b9796"
      ],
      "transaction": {
        "type": "0x00",
        "from": "0xd1d1b8f0b6740fad9fb4166eeeefeddb84770938",
        "to": "0x137f6ad66a03b03674625cd82cb24e24bea7312d",
        "gas": "0x12bc3",
        "value": "0x0",
        "data": "0x2a4be2ad0000000000000000000000000000000000000000000000000000000000000040000000000000000000000000dbc23ae43a150ff8884b02cea117b22d1c3b97960000000000000000000000000000000000000000000000000000000000000026566f7465722000000000000000000000000000000000000000000000000000000000000000020000000000000000000000000000000000000000000000000000",
        "nonce": "0x1f"
      },
      "additionalContracts": [],
      "isFixedGasLimit": false
    },
    {
      "hash": "0x20bf8e1b1a0f8037cdd49de686b860e650019287ba3cc190dbdcc63a0e4d907e",
      "transactionType": "CALL",
      "contractName": null,
      "contractAddress": "0x137f6AD66a03B03674625cD82cb24e24bEa7312d",
      "function": "createVoter(string,address)",
      "arguments": [
        "\"Voter \\0\\0\\0\\0\\0\\0\\0\\0\\0\\0\\0\\0\\0\\0\\0\\0\\0\\0\\0\\0\\0\\0\\0\\0\\0\\0\\0\\0\\0\\0\\0\\u{3}\"",
        "0x68E527780872cda0216Ba0d8fBD58b67a5D5e351"
      ],
      "transaction": {
        "type": "0x00",
        "from": "0xd1d1b8f0b6740fad9fb4166eeeefeddb84770938",
        "to": "0x137f6ad66a03b03674625cd82cb24e24bea7312d",
        "gas": "0x12bc3",
        "value": "0x0",
        "data": "0x2a4be2ad000000000000000000000000000000000000000000000000000000000000004000000000000000000000000068e527780872cda0216ba0d8fbd58b67a5d5e3510000000000000000000000000000000000000000000000000000000000000026566f7465722000000000000000000000000000000000000000000000000000000000000000030000000000000000000000000000000000000000000000000000",
        "nonce": "0x20"
      },
      "additionalContracts": [],
      "isFixedGasLimit": false
    },
    {
      "hash": "0xf55a8cd1386d91b23ce515506f62d32a846f18d0faad2f0996908d38a20bb8bb",
      "transactionType": "CALL",
      "contractName": null,
      "contractAddress": "0x137f6AD66a03B03674625cD82cb24e24bEa7312d",
      "function": "createVoter(string,address)",
      "arguments": [
        "\"Voter \\0\\0\\0\\0\\0\\0\\0\\0\\0\\0\\0\\0\\0\\0\\0\\0\\0\\0\\0\\0\\0\\0\\0\\0\\0\\0\\0\\0\\0\\0\\0\\u{4}\"",
        "0x5A83529ff76Ac5723A87008c4D9B436AD4CA7d28"
      ],
      "transaction": {
        "type": "0x00",
        "from": "0xd1d1b8f0b6740fad9fb4166eeeefeddb84770938",
        "to": "0x137f6ad66a03b03674625cd82cb24e24bea7312d",
        "gas": "0x13d53",
        "value": "0x0",
        "data": "0x2a4be2ad00000000000000000000000000000000000000000000000000000000000000400000000000000000000000005a83529ff76ac5723a87008c4d9b436ad4ca7d280000000000000000000000000000000000000000000000000000000000000026566f7465722000000000000000000000000000000000000000000000000000000000000000040000000000000000000000000000000000000000000000000000",
        "nonce": "0x21"
      },
      "additionalContracts": [],
      "isFixedGasLimit": false
    },
    {
      "hash": "0x3e98248099f7f9bad1ee8d4a1da5495e776e1ad0298056e5107c449b1e58dd2f",
      "transactionType": "CALL",
      "contractName": null,
      "contractAddress": "0x137f6AD66a03B03674625cD82cb24e24bEa7312d",
      "function": "createVoter(string,address)",
      "arguments": [
        "\"Voter \\0\\0\\0\\0\\0\\0\\0\\0\\0\\0\\0\\0\\0\\0\\0\\0\\0\\0\\0\\0\\0\\0\\0\\0\\0\\0\\0\\0\\0\\0\\0\\u{5}\"",
        "0x8735015837bD10e05d9cf5EA43A2486Bf4Be156F"
      ],
      "transaction": {
        "type": "0x00",
        "from": "0xd1d1b8f0b6740fad9fb4166eeeefeddb84770938",
        "to": "0x137f6ad66a03b03674625cd82cb24e24bea7312d",
        "gas": "0x12bc3",
        "value": "0x0",
        "data": "0x2a4be2ad00000000000000000000000000000000000000000000000000000000000000400000000000000000000000008735015837bd10e05d9cf5ea43a2486bf4be156f0000000000000000000000000000000000000000000000000000000000000026566f7465722000000000000000000000000000000000000000000000000000000000000000050000000000000000000000000000000000000000000000000000",
        "nonce": "0x22"
      },
      "additionalContracts": [],
      "isFixedGasLimit": false
    }
  ],
  "receipts": [
    {
      "transactionHash": "0xc011063482c1c30ee56f39982c7731527e7a4e16a55e87f6d4e09d3ac32064db",
      "transactionIndex": "0x0",
      "blockHash": "0x316b59ffc37a51587d128557fda38d037c4e071e64da6853e242a0ada65901b0",
      "blockNumber": "0x1868bb9",
      "from": "0xd1D1B8F0B6740fad9Fb4166EeEEFEDDB84770938",
      "to": "0x137f6AD66a03B03674625cD82cb24e24bEa7312d",
      "cumulativeGasUsed": "0xd90a",
      "gasUsed": "0xd90a",
      "contractAddress": null,
      "logs": [
        {
          "address": "0x137f6AD66a03B03674625cD82cb24e24bEa7312d",
          "topics": [
            "0x8564fcb5cfd27fbe1e67f1f39f57adf7cb25eaeaf302379f358fe0686eb46688"
          ],
          "data": "0x00000000000000000000000000000000000000000000000000000000000000060000000000000000000000000000000000000000000000000000000000000040000000000000000000000000000000000000000000000000000000000000002c496e737469747574696f6e2000000000000000000000000000000000000000000000000000000000000000010000000000000000000000000000000000000000",
          "blockHash": "0x316b59ffc37a51587d128557fda38d037c4e071e64da6853e242a0ada65901b0",
          "blockNumber": "0x1868bb9",
          "transactionHash": "0xc011063482c1c30ee56f39982c7731527e7a4e16a55e87f6d4e09d3ac32064db",
          "transactionIndex": "0x0",
          "logIndex": "0x0",
          "removed": false
        }
      ],
      "status": "0x1",
      "logsBloom": "0x00000020000000000000000000000000000000000000004000000000000000000000000000000000000000000000000000000000000000000000000000000000000000000000200000000000000000000000000000000000000000004100000000000000000000000000000000000000000000000000000000000000000000000000000000000000000000000000000000000000000000000000000000000000000000000000000000000000000000000000000000000000000000000000000000000000000000000000000000000000000000000000000000000000000000000000000000000000000000000000000000000000001000000000000000000000",
      "type": "0x0",
      "effectiveGasPrice": "0x2540be400"
    },
    {
      "transactionHash": "0x44c78e94059150b5f536912ec1dbcf16a01a558c2517500828a227d498b3e0db",
      "transactionIndex": "0x1",
      "blockHash": "0x316b59ffc37a51587d128557fda38d037c4e071e64da6853e242a0ada65901b0",
      "blockNumber": "0x1868bb9",
      "from": "0xd1D1B8F0B6740fad9Fb4166EeEEFEDDB84770938",
      "to": "0x137f6AD66a03B03674625cD82cb24e24bEa7312d",
      "cumulativeGasUsed": "0x1b214",
      "gasUsed": "0xd90a",
      "contractAddress": null,
      "logs": [
        {
          "address": "0x137f6AD66a03B03674625cD82cb24e24bEa7312d",
          "topics": [
            "0x8564fcb5cfd27fbe1e67f1f39f57adf7cb25eaeaf302379f358fe0686eb46688"
          ],
          "data": "0x00000000000000000000000000000000000000000000000000000000000000070000000000000000000000000000000000000000000000000000000000000040000000000000000000000000000000000000000000000000000000000000002c496e737469747574696f6e2000000000000000000000000000000000000000000000000000000000000000020000000000000000000000000000000000000000",
          "blockHash": "0x316b59ffc37a51587d128557fda38d037c4e071e64da6853e242a0ada65901b0",
          "blockNumber": "0x1868bb9",
          "transactionHash": "0x44c78e94059150b5f536912ec1dbcf16a01a558c2517500828a227d498b3e0db",
          "transactionIndex": "0x1",
          "logIndex": "0x1",
          "removed": false
        }
      ],
      "status": "0x1",
      "logsBloom": "0x00000020000000000000000000000000000000000000004000000000000000000000000000000000000000000000000000000000000000000000000000000000000000000000200000000000000000000000000000000000000000004100000000000000000000000000000000000000000000000000000000000000000000000000000000000000000000000000000000000000000000000000000000000000000000000000000000000000000000000000000000000000000000000000000000000000000000000000000000000000000000000000000000000000000000000000000000000000000000000000000000000000001000000000000000000000",
      "type": "0x0",
      "effectiveGasPrice": "0x2540be400"
    },
    {
      "transactionHash": "0xc7e745f22e7d9913edc82911a6a5584aaded8af5e7a9119aa2e2665a572f3a22",
      "transactionIndex": "0x2",
      "blockHash": "0x316b59ffc37a51587d128557fda38d037c4e071e64da6853e242a0ada65901b0",
      "blockNumber": "0x1868bb9",
      "from": "0xd1D1B8F0B6740fad9Fb4166EeEEFEDDB84770938",
      "to": "0x137f6AD66a03B03674625cD82cb24e24bEa7312d",
      "cumulativeGasUsed": "0x28b12",
      "gasUsed": "0xd8fe",
      "contractAddress": null,
      "logs": [
        {
          "address": "0x137f6AD66a03B03674625cD82cb24e24bEa7312d",
          "topics": [
            "0x8564fcb5cfd27fbe1e67f1f39f57adf7cb25eaeaf302379f358fe0686eb46688"
          ],
          "data": "0x00000000000000000000000000000000000000000000000000000000000000080000000000000000000000000000000000000000000000000000000000000040000000000000000000000000000000000000000000000000000000000000002c496e737469747574696f6e2000000000000000000000000000000000000000000000000000000000000000030000000000000000000000000000000000000000",
          "blockHash": "0x316b59ffc37a51587d128557fda38d037c4e071e64da6853e242a0ada65901b0",
          "blockNumber": "0x1868bb9",
          "transactionHash": "0xc7e745f22e7d9913edc82911a6a5584aaded8af5e7a9119aa2e2665a572f3a22",
          "transactionIndex": "0x2",
          "logIndex": "0x2",
          "removed": false
        }
      ],
      "status": "0x1",
      "logsBloom": "0x00000020000000000000000000000000000000000000004000000000000000000000000000000000000000000000000000000000000000000000000000000000000000000000200000000000000000000000000000000000000000004100000000000000000000000000000000000000000000000000000000000000000000000000000000000000000000000000000000000000000000000000000000000000000000000000000000000000000000000000000000000000000000000000000000000000000000000000000000000000000000000000000000000000000000000000000000000000000000000000000000000000001000000000000000000000",
      "type": "0x0",
      "effectiveGasPrice": "0x2540be400"
    },
    {
      "transactionHash": "0x100652c7829c33096d883ee619bcdfeebc5593e817639cdea137a6b9ffe71720",
      "transactionIndex": "0x0",
      "blockHash": "0x672de763bc282a7136f19191b83bcc90b8effd4fcf0252ea2091a881f2d164c1",
      "blockNumber": "0x1868bba",
      "from": "0xd1D1B8F0B6740fad9Fb4166EeEEFEDDB84770938",
      "to": "0x137f6AD66a03B03674625cD82cb24e24bEa7312d",
      "cumulativeGasUsed": "0xd90a",
      "gasUsed": "0xd90a",
      "contractAddress": null,
      "logs": [
        {
          "address": "0x137f6AD66a03B03674625cD82cb24e24bEa7312d",
          "topics": [
            "0x8564fcb5cfd27fbe1e67f1f39f57adf7cb25eaeaf302379f358fe0686eb46688"
          ],
          "data": "0x00000000000000000000000000000000000000000000000000000000000000090000000000000000000000000000000000000000000000000000000000000040000000000000000000000000000000000000000000000000000000000000002c496e737469747574696f6e2000000000000000000000000000000000000000000000000000000000000000040000000000000000000000000000000000000000",
          "blockHash": "0x672de763bc282a7136f19191b83bcc90b8effd4fcf0252ea2091a881f2d164c1",
          "blockNumber": "0x1868bba",
          "transactionHash": "0x100652c7829c33096d883ee619bcdfeebc5593e817639cdea137a6b9ffe71720",
          "transactionIndex": "0x0",
          "logIndex": "0x0",
          "removed": false
        }
      ],
      "status": "0x1",
      "logsBloom": "0x00000020000000000000000000000000000000000000004000000000000000000000000000000000000000000000000000000000000000000000000000000000000000000000200000000000000000000000000000000000000000004100000000000000000000000000000000000000000000000000000000000000000000000000000000000000000000000000000000000000000000000000000000000000000000000000000000000000000000000000000000000000000000000000000000000000000000000000000000000000000000000000000000000000000000000000000000000000000000000000000000000000001000000000000000000000",
      "type": "0x0",
      "effectiveGasPrice": "0x2540be400"
    },
    {
      "transactionHash": "0x5d6a79f20363ecf16b05734f95f1560bf6aa359345316c29dc143f5e945df0a2",
      "transactionIndex": "0x1",
      "blockHash": "0x672de763bc282a7136f19191b83bcc90b8effd4fcf0252ea2091a881f2d164c1",
      "blockNumber": "0x1868bba",
      "from": "0xd1D1B8F0B6740fad9Fb4166EeEEFEDDB84770938",
      "to": "0x137f6AD66a03B03674625cD82cb24e24bEa7312d",
      "cumulativeGasUsed": "0x1b214",
      "gasUsed": "0xd90a",
      "contractAddress": null,
      "logs": [
        {
          "address": "0x137f6AD66a03B03674625cD82cb24e24bEa7312d",
          "topics": [
            "0x8564fcb5cfd27fbe1e67f1f39f57adf7cb25eaeaf302379f358fe0686eb46688"
          ],
          "data": "0x000000000000000000000000000000000000000000000000000000000000000a0000000000000000000000000000000000000000000000000000000000000040000000000000000000000000000000000000000000000000000000000000002c496e737469747574696f6e2000000000000000000000000000000000000000000000000000000000000000050000000000000000000000000000000000000000",
          "blockHash": "0x672de763bc282a7136f19191b83bcc90b8effd4fcf0252ea2091a881f2d164c1",
          "blockNumber": "0x1868bba",
          "transactionHash": "0x5d6a79f20363ecf16b05734f95f1560bf6aa359345316c29dc143f5e945df0a2",
          "transactionIndex": "0x1",
          "logIndex": "0x1",
          "removed": false
        }
      ],
      "status": "0x1",
      "logsBloom": "0x00000020000000000000000000000000000000000000004000000000000000000000000000000000000000000000000000000000000000000000000000000000000000000000200000000000000000000000000000000000000000004100000000000000000000000000000000000000000000000000000000000000000000000000000000000000000000000000000000000000000000000000000000000000000000000000000000000000000000000000000000000000000000000000000000000000000000000000000000000000000000000000000000000000000000000000000000000000000000000000000000000000001000000000000000000000",
      "type": "0x0",
      "effectiveGasPrice": "0x2540be400"
    },
    {
      "transactionHash": "0x877dd1b8571ff1d095afb9148c60ce8c08f098b9d4ff9bc99084ac3adf58cc85",
      "transactionIndex": "0x2",
      "blockHash": "0x672de763bc282a7136f19191b83bcc90b8effd4fcf0252ea2091a881f2d164c1",
      "blockNumber": "0x1868bba",
      "from": "0xd1D1B8F0B6740fad9Fb4166EeEEFEDDB84770938",
      "to": "0x137f6AD66a03B03674625cD82cb24e24bEa7312d",
      "cumulativeGasUsed": "0x4e4c4",
      "gasUsed": "0x332b0",
      "contractAddress": null,
      "logs": [
        {
          "address": "0x137f6AD66a03B03674625cD82cb24e24bEa7312d",
          "topics": [
            "0x1d01df2f27d43c539e43698d3850034aa4a290e2eb938fb45ef4631d4caea4b8"
          ],
          "data": "0x0000000000000000000000000000000000000000000000000000000000000006000000000000000000000000000000000000000000000000000000000000006000000000000000000000000000000000000000000000000000000000000003e8000000000000000000000000000000000000000000000000000000000000002850726f6a656374200000000000000000000000000000000000000000000000000000000000000001000000000000000000000000000000000000000000000000",
          "blockHash": "0x672de763bc282a7136f19191b83bcc90b8effd4fcf0252ea2091a881f2d164c1",
          "blockNumber": "0x1868bba",
          "transactionHash": "0x877dd1b8571ff1d095afb9148c60ce8c08f098b9d4ff9bc99084ac3adf58cc85",
          "transactionIndex": "0x2",
          "logIndex": "0x2",
          "removed": false
        }
      ],
      "status": "0x1",
      "logsBloom": "0x00000020000000000000000000000000000000000000000000000000000000000000000000000000000000000000000000000000000000000000000000000000000000000000000000000000000000000000000000000400000000004100000000000000000000000000000000000000000000000000000000000000000000000000000000000000000000000000000000000400000000000000000000000000000000000000000000000000000000000000000000000000000000000000200000000000000000000000000000000000000000000000000000000000000000000000000000000000000000000000000000000000000000000000000000000000",
      "type": "0x0",
      "effectiveGasPrice": "0x2540be400"
    },
    {
      "transactionHash": "0x4907ab51fd980453313e5ab664c78cfec35f9ce3f8eb4eae98e4e2e8e8383d88",
      "transactionIndex": "0x3",
      "blockHash": "0x672de763bc282a7136f19191b83bcc90b8effd4fcf0252ea2091a881f2d164c1",
      "blockNumber": "0x1868bba",
      "from": "0xd1D1B8F0B6740fad9Fb4166EeEEFEDDB84770938",
      "to": "0x137f6AD66a03B03674625cD82cb24e24bEa7312d",
      "cumulativeGasUsed": "0x81774",
      "gasUsed": "0x332b0",
      "contractAddress": null,
      "logs": [
        {
          "address": "0x137f6AD66a03B03674625cD82cb24e24bEa7312d",
          "topics": [
            "0x1d01df2f27d43c539e43698d3850034aa4a290e2eb938fb45ef4631d4caea4b8"
          ],
          "data": "0x0000000000000000000000000000000000000000000000000000000000000007000000000000000000000000000000000000000000000000000000000000006000000000000000000000000000000000000000000000000000000000000003e9000000000000000000000000000000000000000000000000000000000000002850726f6a656374200000000000000000000000000000000000000000000000000000000000000002000000000000000000000000000000000000000000000000",
          "blockHash": "0x672de763bc282a7136f19191b83bcc90b8effd4fcf0252ea2091a881f2d164c1",
          "blockNumber": "0x1868bba",
          "transactionHash": "0x4907ab51fd980453313e5ab664c78cfec35f9ce3f8eb4eae98e4e2e8e8383d88",
          "transactionIndex": "0x3",
          "logIndex": "0x3",
          "removed": false
        }
      ],
      "status": "0x1",
      "logsBloom": "0x00000020000000000000000000000000000000000000000000000000000000000000000000000000000000000000000000000000000000000000000000000000000000000000000000000000000000000000000000000400000000004100000000000000000000000000000000000000000000000000000000000000000000000000000000000000000000000000000000000400000000000000000000000000000000000000000000000000000000000000000000000000000000000000200000000000000000000000000000000000000000000000000000000000000000000000000000000000000000000000000000000000000000000000000000000000",
      "type": "0x0",
      "effectiveGasPrice": "0x2540be400"
    },
    {
      "transactionHash": "0xcd871419a1536c64891b20eac473b341b92c18d430405257e998affac08c53a7",
      "transactionIndex": "0x4",
      "blockHash": "0x672de763bc282a7136f19191b83bcc90b8effd4fcf0252ea2091a881f2d164c1",
      "blockNumber": "0x1868bba",
      "from": "0xd1D1B8F0B6740fad9Fb4166EeEEFEDDB84770938",
      "to": "0x137f6AD66a03B03674625cD82cb24e24bEa7312d",
      "cumulativeGasUsed": "0xb4a24",
      "gasUsed": "0x332b0",
      "contractAddress": null,
      "logs": [
        {
          "address": "0x137f6AD66a03B03674625cD82cb24e24bEa7312d",
          "topics": [
            "0x1d01df2f27d43c539e43698d3850034aa4a290e2eb938fb45ef4631d4caea4b8"
          ],
          "data": "0x0000000000000000000000000000000000000000000000000000000000000008000000000000000000000000000000000000000000000000000000000000006000000000000000000000000000000000000000000000000000000000000003ea000000000000000000000000000000000000000000000000000000000000002850726f6a656374200000000000000000000000000000000000000000000000000000000000000003000000000000000000000000000000000000000000000000",
          "blockHash": "0x672de763bc282a7136f19191b83bcc90b8effd4fcf0252ea2091a881f2d164c1",
          "blockNumber": "0x1868bba",
          "transactionHash": "0xcd871419a1536c64891b20eac473b341b92c18d430405257e998affac08c53a7",
          "transactionIndex": "0x4",
          "logIndex": "0x4",
          "removed": false
        }
      ],
      "status": "0x1",
      "logsBloom": "0x00000020000000000000000000000000000000000000000000000000000000000000000000000000000000000000000000000000000000000000000000000000000000000000000000000000000000000000000000000400000000004100000000000000000000000000000000000000000000000000000000000000000000000000000000000000000000000000000000000400000000000000000000000000000000000000000000000000000000000000000000000000000000000000200000000000000000000000000000000000000000000000000000000000000000000000000000000000000000000000000000000000000000000000000000000000",
      "type": "0x0",
      "effectiveGasPrice": "0x2540be400"
    },
    {
      "transactionHash": "0x9e7798256ec1fb10becd4aaae94a4133b8f880a7c032d2e51362571316b56f28",
      "transactionIndex": "0x5",
      "blockHash": "0x672de763bc282a7136f19191b83bcc90b8effd4fcf0252ea2091a881f2d164c1",
      "blockNumber": "0x1868bba",
      "from": "0xd1D1B8F0B6740fad9Fb4166EeEEFEDDB84770938",
      "to": "0x137f6AD66a03B03674625cD82cb24e24bEa7312d",
      "cumulativeGasUsed": "0xe7cd4",
      "gasUsed": "0x332b0",
      "contractAddress": null,
      "logs": [
        {
          "address": "0x137f6AD66a03B03674625cD82cb24e24bEa7312d",
          "topics": [
            "0x1d01df2f27d43c539e43698d3850034aa4a290e2eb938fb45ef4631d4caea4b8"
          ],
          "data": "0x0000000000000000000000000000000000000000000000000000000000000009000000000000000000000000000000000000000000000000000000000000006000000000000000000000000000000000000000000000000000000000000003eb000000000000000000000000000000000000000000000000000000000000002850726f6a656374200000000000000000000000000000000000000000000000000000000000000004000000000000000000000000000000000000000000000000",
          "blockHash": "0x672de763bc282a7136f19191b83bcc90b8effd4fcf0252ea2091a881f2d164c1",
          "blockNumber": "0x1868bba",
          "transactionHash": "0x9e7798256ec1fb10becd4aaae94a4133b8f880a7c032d2e51362571316b56f28",
          "transactionIndex": "0x5",
          "logIndex": "0x5",
          "removed": false
        }
      ],
      "status": "0x1",
      "logsBloom": "0x00000020000000000000000000000000000000000000000000000000000000000000000000000000000000000000000000000000000000000000000000000000000000000000000000000000000000000000000000000400000000004100000000000000000000000000000000000000000000000000000000000000000000000000000000000000000000000000000000000400000000000000000000000000000000000000000000000000000000000000000000000000000000000000200000000000000000000000000000000000000000000000000000000000000000000000000000000000000000000000000000000000000000000000000000000000",
      "type": "0x0",
      "effectiveGasPrice": "0x2540be400"
    },
    {
      "transactionHash": "0xf7a208f064f18f4890e04805da25677b39cceeb301005db4260ef76c4cd393da",
      "transactionIndex": "0x6",
      "blockHash": "0x672de763bc282a7136f19191b83bcc90b8effd4fcf0252ea2091a881f2d164c1",
      "blockNumber": "0x1868bba",
      "from": "0xd1D1B8F0B6740fad9Fb4166EeEEFEDDB84770938",
      "to": "0x137f6AD66a03B03674625cD82cb24e24bEa7312d",
      "cumulativeGasUsed": "0x11af84",
      "gasUsed": "0x332b0",
      "contractAddress": null,
      "logs": [
        {
          "address": "0x137f6AD66a03B03674625cD82cb24e24bEa7312d",
          "topics": [
            "0x1d01df2f27d43c539e43698d3850034aa4a290e2eb938fb45ef4631d4caea4b8"
          ],
          "data": "0x000000000000000000000000000000000000000000000000000000000000000a000000000000000000000000000000000000000000000000000000000000006000000000000000000000000000000000000000000000000000000000000003ec000000000000000000000000000000000000000000000000000000000000002850726f6a656374200000000000000000000000000000000000000000000000000000000000000005000000000000000000000000000000000000000000000000",
          "blockHash": "0x672de763bc282a7136f19191b83bcc90b8effd4fcf0252ea2091a881f2d164c1",
          "blockNumber": "0x1868bba",
          "transactionHash": "0xf7a208f064f18f4890e04805da25677b39cceeb301005db4260ef76c4cd393da",
          "transactionIndex": "0x6",
          "logIndex": "0x6",
          "removed": false
        }
      ],
      "status": "0x1",
      "logsBloom": "0x00000020000000000000000000000000000000000000000000000000000000000000000000000000000000000000000000000000000000000000000000000000000000000000000000000000000000000000000000000400000000004100000000000000000000000000000000000000000000000000000000000000000000000000000000000000000000000000000000000400000000000000000000000000000000000000000000000000000000000000000000000000000000000000200000000000000000000000000000000000000000000000000000000000000000000000000000000000000000000000000000000000000000000000000000000000",
      "type": "0x0",
      "effectiveGasPrice": "0x2540be400"
    },
    {
      "transactionHash": "0x2e41c30a4adbfac2aedf302c1686ecc29cbd1b5393d6b6977c9501a02747e9bf",
      "transactionIndex": "0x7",
      "blockHash": "0x672de763bc282a7136f19191b83bcc90b8effd4fcf0252ea2091a881f2d164c1",
      "blockNumber": "0x1868bba",
      "from": "0xd1D1B8F0B6740fad9Fb4166EeEEFEDDB84770938",
      "to": "0x137f6AD66a03B03674625cD82cb24e24bEa7312d",
      "cumulativeGasUsed": "0x12888a",
      "gasUsed": "0xd906",
      "contractAddress": null,
      "logs": [
        {
          "address": "0x137f6AD66a03B03674625cD82cb24e24bEa7312d",
          "topics": [
            "0x902813d9d8cdb71697048d14e9e27d033cb3bba4db3b358c16e750ab5d796451"
          ],
          "data": "0x000000000000000000000000000000000000000000000000000000000000000600000000000000000000000000000000000000000000000000000000000000400000000000000000000000000000000000000000000000000000000000000026566f7465722000000000000000000000000000000000000000000000000000000000000000010000000000000000000000000000000000000000000000000000",
          "blockHash": "0x672de763bc282a7136f19191b83bcc90b8effd4fcf0252ea2091a881f2d164c1",
          "blockNumber": "0x1868bba",
          "transactionHash": "0x2e41c30a4adbfac2aedf302c1686ecc29cbd1b5393d6b6977c9501a02747e9bf",
          "transactionIndex": "0x7",
          "logIndex": "0x7",
          "removed": false
        }
      ],
      "status": "0x1",
      "logsBloom": "0x00000020000000000000000000000000000000000000000000000000000000000000000000000000000000000000000000000000000000000000000000000000000000000000000000000000000000000000000000000000000000004100000000000000000000000000000000000000000100000000000000000000000000000000000000000000000000000000004000000000000000000000010000000000000000000000000000000000000000000000000000000000000000000000000000000000000000000000000000000000000000000000000000000000000000000000000000000000000000000000000000000000000000000000000000000000",
      "type": "0x0",
      "effectiveGasPrice": "0x2540be400"
    },
    {
      "transactionHash": "0x63c277fe8a367f8781371d56770f39771fbf3622dfb44c16140905fab68f9bfc",
      "transactionIndex": "0x8",
      "blockHash": "0x672de763bc282a7136f19191b83bcc90b8effd4fcf0252ea2091a881f2d164c1",
      "blockNumber": "0x1868bba",
      "from": "0xd1D1B8F0B6740fad9Fb4166EeEEFEDDB84770938",
      "to": "0x137f6AD66a03B03674625cD82cb24e24bEa7312d",
      "cumulativeGasUsed": "0x136190",
      "gasUsed": "0xd906",
      "contractAddress": null,
      "logs": [
        {
          "address": "0x137f6AD66a03B03674625cD82cb24e24bEa7312d",
          "topics": [
            "0x902813d9d8cdb71697048d14e9e27d033cb3bba4db3b358c16e750ab5d796451"
          ],
          "data": "0x000000000000000000000000000000000000000000000000000000000000000700000000000000000000000000000000000000000000000000000000000000400000000000000000000000000000000000000000000000000000000000000026566f7465722000000000000000000000000000000000000000000000000000000000000000020000000000000000000000000000000000000000000000000000",
          "blockHash": "0x672de763bc282a7136f19191b83bcc90b8effd4fcf0252ea2091a881f2d164c1",
          "blockNumber": "0x1868bba",
          "transactionHash": "0x63c277fe8a367f8781371d56770f39771fbf3622dfb44c16140905fab68f9bfc",
          "transactionIndex": "0x8",
          "logIndex": "0x8",
          "removed": false
        }
      ],
      "status": "0x1",
      "logsBloom": "0x00000020000000000000000000000000000000000000000000000000000000000000000000000000000000000000000000000000000000000000000000000000000000000000000000000000000000000000000000000000000000004100000000000000000000000000000000000000000100000000000000000000000000000000000000000000000000000000004000000000000000000000010000000000000000000000000000000000000000000000000000000000000000000000000000000000000000000000000000000000000000000000000000000000000000000000000000000000000000000000000000000000000000000000000000000000",
      "type": "0x0",
      "effectiveGasPrice": "0x2540be400"
    },
    {
      "transactionHash": "0x20bf8e1b1a0f8037cdd49de686b860e650019287ba3cc190dbdcc63a0e4d907e",
      "transactionIndex": "0x9",
      "blockHash": "0x672de763bc282a7136f19191b83bcc90b8effd4fcf0252ea2091a881f2d164c1",
      "blockNumber": "0x1868bba",
      "from": "0xd1D1B8F0B6740fad9Fb4166EeEEFEDDB84770938",
      "to": "0x137f6AD66a03B03674625cD82cb24e24bEa7312d",
      "cumulativeGasUsed": "0x143a96",
      "gasUsed": "0xd906",
      "contractAddress": null,
      "logs": [
        {
          "address": "0x137f6AD66a03B03674625cD82cb24e24bEa7312d",
          "topics": [
            "0x902813d9d8cdb71697048d14e9e27d033cb3bba4db3b358c16e750ab5d796451"
          ],
          "data": "0x000000000000000000000000000000000000000000000000000000000000000800000000000000000000000000000000000000000000000000000000000000400000000000000000000000000000000000000000000000000000000000000026566f7465722000000000000000000000000000000000000000000000000000000000000000030000000000000000000000000000000000000000000000000000",
          "blockHash": "0x672de763bc282a7136f19191b83bcc90b8effd4fcf0252ea2091a881f2d164c1",
          "blockNumber": "0x1868bba",
          "transactionHash": "0x20bf8e1b1a0f8037cdd49de686b860e650019287ba3cc190dbdcc63a0e4d907e",
          "transactionIndex": "0x9",
          "logIndex": "0x9",
          "removed": false
        }
      ],
      "status": "0x1",
      "logsBloom": "0x00000020000000000000000000000000000000000000000000000000000000000000000000000000000000000000000000000000000000000000000000000000000000000000000000000000000000000000000000000000000000004100000000000000000000000000000000000000000100000000000000000000000000000000000000000000000000000000004000000000000000000000010000000000000000000000000000000000000000000000000000000000000000000000000000000000000000000000000000000000000000000000000000000000000000000000000000000000000000000000000000000000000000000000000000000000",
      "type": "0x0",
      "effectiveGasPrice": "0x2540be400"
    },
    {
      "transactionHash": "0xf55a8cd1386d91b23ce515506f62d32a846f18d0faad2f0996908d38a20bb8bb",
      "transactionIndex": "0xa",
      "blockHash": "0x672de763bc282a7136f19191b83bcc90b8effd4fcf0252ea2091a881f2d164c1",
      "blockNumber": "0x1868bba",
      "from": "0xd1D1B8F0B6740fad9Fb4166EeEEFEDDB84770938",
      "to": "0x137f6AD66a03B03674625cD82cb24e24bEa7312d",
      "cumulativeGasUsed": "0x151390",
      "gasUsed": "0xd8fa",
      "contractAddress": null,
      "logs": [
        {
          "address": "0x137f6AD66a03B03674625cD82cb24e24bEa7312d",
          "topics": [
            "0x902813d9d8cdb71697048d14e9e27d033cb3bba4db3b358c16e750ab5d796451"
          ],
          "data": "0x000000000000000000000000000000000000000000000000000000000000000900000000000000000000000000000000000000000000000000000000000000400000000000000000000000000000000000000000000000000000000000000026566f7465722000000000000000000000000000000000000000000000000000000000000000040000000000000000000000000000000000000000000000000000",
          "blockHash": "0x672de763bc282a7136f19191b83bcc90b8effd4fcf0252ea2091a881f2d164c1",
          "blockNumber": "0x1868bba",
          "transactionHash": "0xf55a8cd1386d91b23ce515506f62d32a846f18d0faad2f0996908d38a20bb8bb",
          "transactionIndex": "0xa",
          "logIndex": "0xa",
          "removed": false
        }
      ],
      "status": "0x1",
      "logsBloom": "0x00000020000000000000000000000000000000000000000000000000000000000000000000000000000000000000000000000000000000000000000000000000000000000000000000000000000000000000000000000000000000004100000000000000000000000000000000000000000100000000000000000000000000000000000000000000000000000000004000000000000000000000010000000000000000000000000000000000000000000000000000000000000000000000000000000000000000000000000000000000000000000000000000000000000000000000000000000000000000000000000000000000000000000000000000000000",
      "type": "0x0",
      "effectiveGasPrice": "0x2540be400"
    },
    {
      "transactionHash": "0x3e98248099f7f9bad1ee8d4a1da5495e776e1ad0298056e5107c449b1e58dd2f",
      "transactionIndex": "0xb",
      "blockHash": "0x672de763bc282a7136f19191b83bcc90b8effd4fcf0252ea2091a881f2d164c1",
      "blockNumber": "0x1868bba",
      "from": "0xd1D1B8F0B6740fad9Fb4166EeEEFEDDB84770938",
      "to": "0x137f6AD66a03B03674625cD82cb24e24bEa7312d",
      "cumulativeGasUsed": "0x15ec96",
      "gasUsed": "0xd906",
      "contractAddress": null,
      "logs": [
        {
          "address": "0x137f6AD66a03B03674625cD82cb24e24bEa7312d",
          "topics": [
            "0x902813d9d8cdb71697048d14e9e27d033cb3bba4db3b358c16e750ab5d796451"
          ],
          "data": "0x000000000000000000000000000000000000000000000000000000000000000a00000000000000000000000000000000000000000000000000000000000000400000000000000000000000000000000000000000000000000000000000000026566f7465722000000000000000000000000000000000000000000000000000000000000000050000000000000000000000000000000000000000000000000000",
          "blockHash": "0x672de763bc282a7136f19191b83bcc90b8effd4fcf0252ea2091a881f2d164c1",
          "blockNumber": "0x1868bba",
          "transactionHash": "0x3e98248099f7f9bad1ee8d4a1da5495e776e1ad0298056e5107c449b1e58dd2f",
          "transactionIndex": "0xb",
          "logIndex": "0xb",
          "removed": false
        }
      ],
      "status": "0x1",
      "logsBloom": "0x00000020000000000000000000000000000000000000000000000000000000000000000000000000000000000000000000000000000000000000000000000000000000000000000000000000000000000000000000000000000000004100000000000000000000000000000000000000000100000000000000000000000000000000000000000000000000000000004000000000000000000000010000000000000000000000000000000000000000000000000000000000000000000000000000000000000000000000000000000000000000000000000000000000000000000000000000000000000000000000000000000000000000000000000000000000",
      "type": "0x0",
      "effectiveGasPrice": "0x2540be400"
    }
  ],
  "libraries": [],
  "pending": [],
  "returns": {},
  "timestamp": 1723385382,
  "chain": 44787,
  "multi": false,
  "commit": "f54dc5f"
}