{
  "transactions": [
    {
      "hash": "0x16ee705d8595ee04b95bd37db8292e0c3049186d56aadc9a4cc83163b5042ace",
      "transactionType": "CALL",
      "contractName": null,
      "contractAddress": "0x137f6AD66a03B03674625cD82cb24e24bEa7312d",
      "function": "createInstitution(string,address)",
      "arguments": [
        "\"Institution \\0\\0\\0\\0\\0\\0\\0\\0\\0\\0\\0\\0\\0\\0\\0\\0\\0\\0\\0\\0\\0\\0\\0\\0\\0\\0\\0\\0\\0\\0\\0\\u{1}\"",
        "0x7E5F4552091A69125d5DfCb7b8C2659029395Bdf"
      ],
      "transaction": {
        "type": "0x00",
        "from": "0xd1d1b8f0b6740fad9fb4166eeeefeddb84770938",
        "to": "0x137f6ad66a03b03674625cd82cb24e24bea7312d",
        "gas": "0x3ed44",
        "value": "0x0",
        "data": "0xe748f56800000000000000000000000000000000000000000000000000000000000000400000000000000000000000007e5f4552091a69125d5dfcb7b8c2659029395bdf000000000000000000000000000000000000000000000000000000000000002c496e737469747574696f6e2000000000000000000000000000000000000000000000000000000000000000010000000000000000000000000000000000000000",
        "nonce": "0x5"
      },
      "additionalContracts": [],
      "isFixedGasLimit": false
    },
    {
      "hash": "0x50b81a6bb74c2f86beebc7528fe2b5a37c672d0293e1fb63809b5c6b749b1e79",
      "transactionType": "CALL",
      "contractName": null,
      "contractAddress": "0x137f6AD66a03B03674625cD82cb24e24bEa7312d",
      "function": "createInstitution(string,address)",
      "arguments": [
        "\"Institution \\0\\0\\0\\0\\0\\0\\0\\0\\0\\0\\0\\0\\0\\0\\0\\0\\0\\0\\0\\0\\0\\0\\0\\0\\0\\0\\0\\0\\0\\0\\0\\u{2}\"",
        "0x2B5AD5c4795c026514f8317c7a215E218DcCD6cF"
      ],
      "transaction": {
        "type": "0x00",
        "from": "0xd1d1b8f0b6740fad9fb4166eeeefeddb84770938",
        "to": "0x137f6ad66a03b03674625cd82cb24e24bea7312d",
        "gas": "0x39101",
        "value": "0x0",
        "data": "0xe748f56800000000000000000000000000000000000000000000000000000000000000400000000000000000000000002b5ad5c4795c026514f8317c7a215e218dccd6cf000000000000000000000000000000000000000000000000000000000000002c496e737469747574696f6e2000000000000000000000000000000000000000000000000000000000000000020000000000000000000000000000000000000000",
        "nonce": "0x6"
      },
      "additionalContracts": [],
      "isFixedGasLimit": false
    },
    {
      "hash": "0x7b1aa630f574956e521b393425afa6b02ec262332558f3b662216f5ebf6f7a3a",
      "transactionType": "CALL",
      "contractName": null,
      "contractAddress": "0x137f6AD66a03B03674625cD82cb24e24bEa7312d",
      "function": "createInstitution(string,address)",
      "arguments": [
        "\"Institution \\0\\0\\0\\0\\0\\0\\0\\0\\0\\0\\0\\0\\0\\0\\0\\0\\0\\0\\0\\0\\0\\0\\0\\0\\0\\0\\0\\0\\0\\0\\0\\u{3}\"",
        "0x6813Eb9362372EEF6200f3b1dbC3f819671cBA69"
      ],
      "transaction": {
        "type": "0x00",
        "from": "0xd1d1b8f0b6740fad9fb4166eeeefeddb84770938",
        "to": "0x137f6ad66a03b03674625cd82cb24e24bea7312d",
        "gas": "0x390f0",
        "value": "0x0",
        "data": "0xe748f56800000000000000000000000000000000000000000000000000000000000000400000000000000000000000006813eb9362372eef6200f3b1dbc3f819671cba69000000000000000000000000000000000000000000000000000000000000002c496e737469747574696f6e2000000000000000000000000000000000000000000000000000000000000000030000000000000000000000000000000000000000",
        "nonce": "0x7"
      },
      "additionalContracts": [],
      "isFixedGasLimit": false
    },
    {
      "hash": "0xa4cf47ce11a74cef70cd9bd0a3d54fa3db72ee3e739d68d2a5d259f015d51532",
      "transactionType": "CALL",
      "contractName": null,
      "contractAddress": "0x137f6AD66a03B03674625cD82cb24e24bEa7312d",
      "function": "createInstitution(string,address)",
      "arguments": [
        "\"Institution \\0\\0\\0\\0\\0\\0\\0\\0\\0\\0\\0\\0\\0\\0\\0\\0\\0\\0\\0\\0\\0\\0\\0\\0\\0\\0\\0\\0\\0\\0\\0\\u{4}\"",
        "0x1efF47bc3a10a45D4B230B5d10E37751FE6AA718"
      ],
      "transaction": {
        "type": "0x00",
        "from": "0xd1d1b8f0b6740fad9fb4166eeeefeddb84770938",
        "to": "0x137f6ad66a03b03674625cd82cb24e24bea7312d",
        "gas": "0x39101",
        "value": "0x0",
        "data": "0xe748f56800000000000000000000000000000000000000000000000000000000000000400000000000000000000000001eff47bc3a10a45d4b230b5d10e37751fe6aa718000000000000000000000000000000000000000000000000000000000000002c496e737469747574696f6e2000000000000000000000000000000000000000000000000000000000000000040000000000000000000000000000000000000000",
        "nonce": "0x8"
      },
      "additionalContracts": [],
      "isFixedGasLimit": false
    },
    {
      "hash": "0xf2fe78ccbbc83e5c86aea2046a7c7a66d1abf8813e871d7fd59649265b520dd9",
      "transactionType": "CALL",
      "contractName": null,
      "contractAddress": "0x137f6AD66a03B03674625cD82cb24e24bEa7312d",
      "function": "createInstitution(string,address)",
      "arguments": [
        "\"Institution \\0\\0\\0\\0\\0\\0\\0\\0\\0\\0\\0\\0\\0\\0\\0\\0\\0\\0\\0\\0\\0\\0\\0\\0\\0\\0\\0\\0\\0\\0\\0\\u{5}\"",
        "0xe1AB8145F7E55DC933d51a18c793F901A3A0b276"
      ],
      "transaction": {
        "type": "0x00",
        "from": "0xd1d1b8f0b6740fad9fb4166eeeefeddb84770938",
        "to": "0x137f6ad66a03b03674625cd82cb24e24bea7312d",
        "gas": "0x39101",
        "value": "0x0",
        "data": "0xe748f5680000000000000000000000000000000000000000000000000000000000000040000000000000000000000000e1ab8145f7e55dc933d51a18c793f901a3a0b276000000000000000000000000000000000000000000000000000000000000002c496e737469747574696f6e2000000000000000000000000000000000000000000000000000000000000000050000000000000000000000000000000000000000",
        "nonce": "0x9"
      },
      "additionalContracts": [],
      "isFixedGasLimit": false
    },
    {
      "hash": "0x8a28a843d2df433c853ff699d044efd717e4890ed02046c1e15d76751d72a7af",
      "transactionType": "CALL",
      "contractName": null,
      "contractAddress": "0x137f6AD66a03B03674625cD82cb24e24bEa7312d",
      "function": "createProject(uint256,address,uint256,string)",
      "arguments": [
        "100",
        "0xE57bFE9F44b819898F47BF37E5AF72a0783e1141",
        "1000",
        "\"Project \\0\\0\\0\\0\\0\\0\\0\\0\\0\\0\\0\\0\\0\\0\\0\\0\\0\\0\\0\\0\\0\\0\\0\\0\\0\\0\\0\\0\\0\\0\\0\\u{1}\""
      ],
      "transaction": {
        "type": "0x00",
        "from": "0xd1d1b8f0b6740fad9fb4166eeeefeddb84770938",
        "to": "0x137f6ad66a03b03674625cd82cb24e24bea7312d",
        "gas": "0x46acf",
        "value": "0x0",
        "data": "0x71c79f6b0000000000000000000000000000000000000000000000000000000000000064000000000000000000000000e57bfe9f44b819898f47bf37e5af72a0783e114100000000000000000000000000000000000000000000000000000000000003e80000000000000000000000000000000000000000000000000000000000000080000000000000000000000000000000000000000000000000000000000000002850726f6a656374200000000000000000000000000000000000000000000000000000000000000001000000000000000000000000000000000000000000000000",
        "nonce": "0xa"
      },
      "additionalContracts": [],
      "isFixedGasLimit": false
    },
    {
      "hash": "0x273c307342d75d32c03a2cb1f7986ba768b8e013fa2bd993a251b6c34701ac8c",
      "transactionType": "CALL",
      "contractName": null,
      "contractAddress": "0x137f6AD66a03B03674625cD82cb24e24bEa7312d",
      "function": "createProject(uint256,address,uint256,string)",
      "arguments": [
        "110",
        "0xd41c057fd1c78805AAC12B0A94a405c0461A6FBb",
        "1001",
        "\"Project \\0\\0\\0\\0\\0\\0\\0\\0\\0\\0\\0\\0\\0\\0\\0\\0\\0\\0\\0\\0\\0\\0\\0\\0\\0\\0\\0\\0\\0\\0\\0\\u{2}\""
      ],
      "transaction": {
        "type": "0x00",
        "from": "0xd1d1b8f0b6740fad9fb4166eeeefeddb84770938",
        "to": "0x137f6ad66a03b03674625cd82cb24e24bea7312d",
        "gas": "0x46acf",
        "value": "0x0",
        "data": "0x71c79f6b000000000000000000000000000000000000000000000000000000000000006e000000000000000000000000d41c057fd1c78805aac12b0a94a405c0461a6fbb00000000000000000000000000000000000000000000000000000000000003e90000000000000000000000000000000000000000000000000000000000000080000000000000000000000000000000000000000000000000000000000000002850726f6a656374200000000000000000000000000000000000000000000000000000000000000002000000000000000000000000000000000000000000000000",
        "nonce": "0xb"
      },
      "additionalContracts": [],
      "isFixedGasLimit": false
    },
    {
      "hash": "0xc221f0b3d479d994a190dc54a8a2a7718fbe902a7e8949ae769c85aa32780365",
      "transactionType": "CALL",
      "contractName": null,
      "contractAddress": "0x137f6AD66a03B03674625cD82cb24e24bEa7312d",
      "function": "createProject(uint256,address,uint256,string)",
      "arguments": [
        "120",
        "0xF1F6619B38A98d6De0800F1DefC0a6399eB6d30C",
        "1002",
        "\"Project \\0\\0\\0\\0\\0\\0\\0\\0\\0\\0\\0\\0\\0\\0\\0\\0\\0\\0\\0\\0\\0\\0\\0\\0\\0\\0\\0\\0\\0\\0\\0\\u{3}\""
      ],
      "transaction": {
        "type": "0x00",
        "from": "0xd1d1b8f0b6740fad9fb4166eeeefeddb84770938",
        "to": "0x137f6ad66a03b03674625cd82cb24e24bea7312d",
        "gas": "0x46acf",
        "value": "0x0",
        "data": "0x71c79f6b0000000000000000000000000000000000000000000000000000000000000078000000000000000000000000f1f6619b38a98d6de0800f1defc0a6399eb6d30c00000000000000000000000000000000000000000000000000000000000003ea0000000000000000000000000000000000000000000000000000000000000080000000000000000000000000000000000000000000000000000000000000002850726f6a656374200000000000000000000000000000000000000000000000000000000000000003000000000000000000000000000000000000000000000000",
        "nonce": "0xc"
      },
      "additionalContracts": [],
      "isFixedGasLimit": false
    },
    {
      "hash": "0x74edbf091ecbe9f75b2d6d447a9e3dd3464b4a37da95b8a9e48c55f1279f0f6b",
      "transactionType": "CALL",
      "contractName": null,
      "contractAddress": "0x137f6AD66a03B03674625cD82cb24e24bEa7312d",
      "function": "createProject(uint256,address,uint256,string)",
      "arguments": [
        "130",
        "0xF7Edc8FA1eCc32967F827C9043FcAe6ba73afA5c",
        "1003",
        "\"Project \\0\\0\\0\\0\\0\\0\\0\\0\\0\\0\\0\\0\\0\\0\\0\\0\\0\\0\\0\\0\\0\\0\\0\\0\\0\\0\\0\\0\\0\\0\\0\\u{4}\""
      ],
      "transaction": {
        "type": "0x00",
        "from": "0xd1d1b8f0b6740fad9fb4166eeeefeddb84770938",
        "to": "0x137f6ad66a03b03674625cd82cb24e24bea7312d",
        "gas": "0x46acf",
        "value": "0x0",
        "data": "0x71c79f6b0000000000000000000000000000000000000000000000000000000000000082000000000000000000000000f7edc8fa1ecc32967f827c9043fcae6ba73afa5c00000000000000000000000000000000000000000000000000000000000003eb0000000000000000000000000000000000000000000000000000000000000080000000000000000000000000000000000000000000000000000000000000002850726f6a656374200000000000000000000000000000000000000000000000000000000000000004000000000000000000000000000000000000000000000000",
        "nonce": "0xd"
      },
      "additionalContracts": [],
      "isFixedGasLimit": false
    },
    {
      "hash": "0x985eb74ac4b41add001ede01dbd2960103a865dc19f634c188efadd63341923b",
      "transactionType": "CALL",
      "contractName": null,
      "contractAddress": "0x137f6AD66a03B03674625cD82cb24e24bEa7312d",
      "function": "createProject(uint256,address,uint256,string)",
      "arguments": [
        "140",
        "0x4CCeBa2d7D2B4fdcE4304d3e09a1fea9fbEb1528",
        "1004",
        "\"Project \\0\\0\\0\\0\\0\\0\\0\\0\\0\\0\\0\\0\\0\\0\\0\\0\\0\\0\\0\\0\\0\\0\\0\\0\\0\\0\\0\\0\\0\\0\\0\\u{5}\""
      ],
      "transaction": {
        "type": "0x00",
        "from": "0xd1d1b8f0b6740fad9fb4166eeeefeddb84770938",
        "to": "0x137f6ad66a03b03674625cd82cb24e24bea7312d",
        "gas": "0x46acf",
        "value": "0x0",
        "data": "0x71c79f6b000000000000000000000000000000000000000000000000000000000000008c0000000000000000000000004cceba2d7d2b4fdce4304d3e09a1fea9fbeb152800000000000000000000000000000000000000000000000000000000000003ec0000000000000000000000000000000000000000000000000000000000000080000000000000000000000000000000000000000000000000000000000000002850726f6a656374200000000000000000000000000000000000000000000000000000000000000005000000000000000000000000000000000000000000000000",
        "nonce": "0xe"
      },
      "additionalContracts": [],
      "isFixedGasLimit": false
    },
    {
      "hash": "0x49ad62534e870b76a33fb1d785d2d01a43c74d05aad752cfb7143cdffd9b8e5f",
      "transactionType": "CALL",
      "contractName": null,
      "contractAddress": "0x137f6AD66a03B03674625cD82cb24e24bEa7312d",
      "function": "createVoter(string,address)",
      "arguments": [
        "\"Voter \\0\\0\\0\\0\\0\\0\\0\\0\\0\\0\\0\\0\\0\\0\\0\\0\\0\\0\\0\\0\\0\\0\\0\\0\\0\\0\\0\\0\\0\\0\\0\\u{1}\"",
        "0x3DA8D322CB2435dA26E9C9fEE670f9fB7Fe74E49"
      ],
      "transaction": {
        "type": "0x00",
        "from": "0xd1d1b8f0b6740fad9fb4166eeeefeddb84770938",
        "to": "0x137f6ad66a03b03674625cd82cb24e24bea7312d",
        "gas": "0x390fb",
        "value": "0x0",
        "data": "0x2a4be2ad00000000000000000000000000000000000000000000000000000000000000400000000000000000000000003da8d322cb2435da26e9c9fee670f9fb7fe74e490000000000000000000000000000000000000000000000000000000000000026566f7465722000000000000000000000000000000000000000000000000000000000000000010000000000000000000000000000000000000000000000000000",
        "nonce": "0xf"
      },
      "additionalContracts": [],
      "isFixedGasLimit": false
    },
    {
      "hash": "0xa874d27bf3e353fd43b3b1ab304d75aa0d6efa01645bf1a9be1f50c93f53928d",
      "transactionType": "CALL",
      "contractName": null,
      "contractAddress": "0x137f6AD66a03B03674625cD82cb24e24bEa7312d",
      "function": "createVoter(string,address)",
      "arguments": [
        "\"Voter \\0\\0\\0\\0\\0\\0\\0\\0\\0\\0\\0\\0\\0\\0\\0\\0\\0\\0\\0\\0\\0\\0\\0\\0\\0\\0\\0\\0\\0\\0\\0\\u{2}\"",
        "0xDbc23AE43a150ff8884B02Cea117b22D1c3b9796"
      ],
      "transaction": {
        "type": "0x00",
        "from": "0xd1d1b8f0b6740fad9fb4166eeeefeddb84770938",
        "to": "0x137f6ad66a03b03674625cd82cb24e24bea7312d",
        "gas": "0x390fb",
        "value": "0x0",
        "data": "0x2a4be2ad0000000000000000000000000000000000000000000000000000000000000040000000000000000000000000dbc23ae43a150ff8884b02cea117b22d1c3b97960000000000000000000000000000000000000000000000000000000000000026566f7465722000000000000000000000000000000000000000000000000000000000000000020000000000000000000000000000000000000000000000000000",
        "nonce": "0x10"
      },
      "additionalContracts": [],
      "isFixedGasLimit": false
    },
    {
      "hash": "0x51ed93ba215752554dd05f00daa87b4c0e2cb00b625b15b3dbfe50f854869b0a",
      "transactionType": "CALL",
      "contractName": null,
      "contractAddress": "0x137f6AD66a03B03674625cD82cb24e24bEa7312d",
      "function": "createVoter(string,address)",
      "arguments": [
        "\"Voter \\0\\0\\0\\0\\0\\0\\0\\0\\0\\0\\0\\0\\0\\0\\0\\0\\0\\0\\0\\0\\0\\0\\0\\0\\0\\0\\0\\0\\0\\0\\0\\u{3}\"",
        "0x68E527780872cda0216Ba0d8fBD58b67a5D5e351"
      ],
      "transaction": {
        "type": "0x00",
        "from": "0xd1d1b8f0b6740fad9fb4166eeeefeddb84770938",
        "to": "0x137f6ad66a03b03674625cd82cb24e24bea7312d",
        "gas": "0x390fb",
        "value": "0x0",
        "data": "0x2a4be2ad000000000000000000000000000000000000000000000000000000000000004000000000000000000000000068e527780872cda0216ba0d8fbd58b67a5d5e3510000000000000000000000000000000000000000000000000000000000000026566f7465722000000000000000000000000000000000000000000000000000000000000000030000000000000000000000000000000000000000000000000000",
        "nonce": "0x11"
      },
      "additionalContracts": [],
      "isFixedGasLimit": false
    },
    {
      "hash": "0xda7adf9dfbedcba347aa143ee45dc9b821d51f0bfa56b81dbd36c74c73867ba5",
      "transactionType": "CALL",
      "contractName": null,
      "contractAddress": "0x137f6AD66a03B03674625cD82cb24e24bEa7312d",
      "function": "createVoter(string,address)",
      "arguments": [
        "\"Voter \\0\\0\\0\\0\\0\\0\\0\\0\\0\\0\\0\\0\\0\\0\\0\\0\\0\\0\\0\\0\\0\\0\\0\\0\\0\\0\\0\\0\\0\\0\\0\\u{4}\"",
        "0x5A83529ff76Ac5723A87008c4D9B436AD4CA7d28"
      ],
      "transaction": {
        "type": "0x00",
        "from": "0xd1d1b8f0b6740fad9fb4166eeeefeddb84770938",
        "to": "0x137f6ad66a03b03674625cd82cb24e24bea7312d",
        "gas": "0x390eb",
        "value": "0x0",
        "data": "0x2a4be2ad00000000000000000000000000000000000000000000000000000000000000400000000000000000000000005a83529ff76ac5723a87008c4d9b436ad4ca7d280000000000000000000000000000000000000000000000000000000000000026566f7465722000000000000000000000000000000000000000000000000000000000000000040000000000000000000000000000000000000000000000000000",
        "nonce": "0x12"
      },
      "additionalContracts": [],
      "isFixedGasLimit": false
    },
    {
      "hash": "0x94e03ab89969c00b388fe6a6ef18bcd37d9211bf570b3a85adb1ad9c71cea98f",
      "transactionType": "CALL",
      "contractName": null,
      "contractAddress": "0x137f6AD66a03B03674625cD82cb24e24bEa7312d",
      "function": "createVoter(string,address)",
      "arguments": [
        "\"Voter \\0\\0\\0\\0\\0\\0\\0\\0\\0\\0\\0\\0\\0\\0\\0\\0\\0\\0\\0\\0\\0\\0\\0\\0\\0\\0\\0\\0\\0\\0\\0\\u{5}\"",
        "0x8735015837bD10e05d9cf5EA43A2486Bf4Be156F"
      ],
      "transaction": {
        "type": "0x00",
        "from": "0xd1d1b8f0b6740fad9fb4166eeeefeddb84770938",
        "to": "0x137f6ad66a03b03674625cd82cb24e24bea7312d",
        "gas": "0x390fb",
        "value": "0x0",
        "data": "0x2a4be2ad00000000000000000000000000000000000000000000000000000000000000400000000000000000000000008735015837bd10e05d9cf5ea43a2486bf4be156f0000000000000000000000000000000000000000000000000000000000000026566f7465722000000000000000000000000000000000000000000000000000000000000000050000000000000000000000000000000000000000000000000000",
        "nonce": "0x13"
      },
      "additionalContracts": [],
      "isFixedGasLimit": false
    }
  ],
  "receipts": [
    {
      "transactionHash": "0x16ee705d8595ee04b95bd37db8292e0c3049186d56aadc9a4cc83163b5042ace",
      "transactionIndex": "0x0",
      "blockHash": "0x0ee5ab191fbcdee01d9a82facb49c273b222b69d5d7259b5669c76a66570806a",
      "blockNumber": "0x1868ba3",
      "from": "0xd1D1B8F0B6740fad9Fb4166EeEEFEDDB84770938",
      "to": "0x137f6AD66a03B03674625cD82cb24e24bEa7312d",
      "cumulativeGasUsed": "0x2d7cc",
      "gasUsed": "0x2d7cc",
      "contractAddress": null,
      "logs": [
        {
          "address": "0x137f6AD66a03B03674625cD82cb24e24bEa7312d",
          "topics": [
            "0x8564fcb5cfd27fbe1e67f1f39f57adf7cb25eaeaf302379f358fe0686eb46688"
          ],
          "data": "0x00000000000000000000000000000000000000000000000000000000000000010000000000000000000000000000000000000000000000000000000000000040000000000000000000000000000000000000000000000000000000000000002c496e737469747574696f6e2000000000000000000000000000000000000000000000000000000000000000010000000000000000000000000000000000000000",
          "blockHash": "0x0ee5ab191fbcdee01d9a82facb49c273b222b69d5d7259b5669c76a66570806a",
          "blockNumber": "0x1868ba3",
          "transactionHash": "0x16ee705d8595ee04b95bd37db8292e0c3049186d56aadc9a4cc83163b5042ace",
          "transactionIndex": "0x0",
          "logIndex": "0x0",
          "removed": false
        }
      ],
      "status": "0x1",
      "logsBloom": "0x00000020000000000000000000000000000000000000004000000000000000000000000000000000000000000000000000000000000000000000000000000000000000000000200000000000000000000000000000000000000000004100000000000000000000000000000000000000000000000000000000000000000000000000000000000000000000000000000000000000000000000000000000000000000000000000000000000000000000000000000000000000000000000000000000000000000000000000000000000000000000000000000000000000000000000000000000000000000000000000000000000000001000000000000000000000",
      "type": "0x0",
      "effectiveGasPrice": "0x2540be400"
    },
    {
      "transactionHash": "0x50b81a6bb74c2f86beebc7528fe2b5a37c672d0293e1fb63809b5c6b749b1e79",
      "transactionIndex": "0x1",
      "blockHash": "0x0ee5ab191fbcdee01d9a82facb49c273b222b69d5d7259b5669c76a66570806a",
      "blockNumber": "0x1868ba3",
      "from": "0xd1D1B8F0B6740fad9Fb4166EeEEFEDDB84770938",
      "to": "0x137f6AD66a03B03674625cD82cb24e24bEa7312d",
      "cumulativeGasUsed": "0x56ccc",
      "gasUsed": "0x29500",
      "contractAddress": null,
      "logs": [
        {
          "address": "0x137f6AD66a03B03674625cD82cb24e24bEa7312d",
          "topics": [
            "0x8564fcb5cfd27fbe1e67f1f39f57adf7cb25eaeaf302379f358fe0686eb46688"
          ],
          "data": "0x00000000000000000000000000000000000000000000000000000000000000020000000000000000000000000000000000000000000000000000000000000040000000000000000000000000000000000000000000000000000000000000002c496e737469747574696f6e2000000000000000000000000000000000000000000000000000000000000000020000000000000000000000000000000000000000",
          "blockHash": "0x0ee5ab191fbcdee01d9a82facb49c273b222b69d5d7259b5669c76a66570806a",
          "blockNumber": "0x1868ba3",
          "transactionHash": "0x50b81a6bb74c2f86beebc7528fe2b5a37c672d0293e1fb63809b5c6b749b1e79",
          "transactionIndex": "0x1",
          "logIndex": "0x1",
          "removed": false
        }
      ],
      "status": "0x1",
      "logsBloom": "0x00000020000000000000000000000000000000000000004000000000000000000000000000000000000000000000000000000000000000000000000000000000000000000000200000000000000000000000000000000000000000004100000000000000000000000000000000000000000000000000000000000000000000000000000000000000000000000000000000000000000000000000000000000000000000000000000000000000000000000000000000000000000000000000000000000000000000000000000000000000000000000000000000000000000000000000000000000000000000000000000000000000001000000000000000000000",
      "type": "0x0",
      "effectiveGasPrice": "0x2540be400"
    },
    {
      "transactionHash": "0x7b1aa630f574956e521b393425afa6b02ec262332558f3b662216f5ebf6f7a3a",
      "transactionIndex": "0x2",
      "blockHash": "0x0ee5ab191fbcdee01d9a82facb49c273b222b69d5d7259b5669c76a66570806a",
      "blockNumber": "0x1868ba3",
      "from": "0xd1D1B8F0B6740fad9Fb4166EeEEFEDDB84770938",
      "to": "0x137f6AD66a03B03674625cD82cb24e24bEa7312d",
      "cumulativeGasUsed": "0x801c0",
      "gasUsed": "0x294f4",
      "contractAddress": null,
      "logs": [
        {
          "address": "0x137f6AD66a03B03674625cD82cb24e24bEa7312d",
          "topics": [
            "0x8564fcb5cfd27fbe1e67f1f39f57adf7cb25eaeaf302379f358fe0686eb46688"
          ],
          "data": "0x00000000000000000000000000000000000000000000000000000000000000030000000000000000000000000000000000000000000000000000000000000040000000000000000000000000000000000000000000000000000000000000002c496e737469747574696f6e2000000000000000000000000000000000000000000000000000000000000000030000000000000000000000000000000000000000",
          "blockHash": "0x0ee5ab191fbcdee01d9a82facb49c273b222b69d5d7259b5669c76a66570806a",
          "blockNumber": "0x1868ba3",
          "transactionHash": "0x7b1aa630f574956e521b393425afa6b02ec262332558f3b662216f5ebf6f7a3a",
          "transactionIndex": "0x2",
          "logIndex": "0x2",
          "removed": false
        }
      ],
      "status": "0x1",
      "logsBloom": "0x00000020000000000000000000000000000000000000004000000000000000000000000000000000000000000000000000000000000000000000000000000000000000000000200000000000000000000000000000000000000000004100000000000000000000000000000000000000000000000000000000000000000000000000000000000000000000000000000000000000000000000000000000000000000000000000000000000000000000000000000000000000000000000000000000000000000000000000000000000000000000000000000000000000000000000000000000000000000000000000000000000000001000000000000000000000",
      "type": "0x0",
      "effectiveGasPrice": "0x2540be400"
    },
    {
      "transactionHash": "0xa4cf47ce11a74cef70cd9bd0a3d54fa3db72ee3e739d68d2a5d259f015d51532",
      "transactionIndex": "0x3",
      "blockHash": "0x0ee5ab191fbcdee01d9a82facb49c273b222b69d5d7259b5669c76a66570806a",
      "blockNumber": "0x1868ba3",
      "from": "0xd1D1B8F0B6740fad9Fb4166EeEEFEDDB84770938",
      "to": "0x137f6AD66a03B03674625cD82cb24e24bEa7312d",
      "cumulativeGasUsed": "0xa96c0",
      "gasUsed": "0x29500",
      "contractAddress": null,
      "logs": [
        {
          "address": "0x137f6AD66a03B03674625cD82cb24e24bEa7312d",
          "topics": [
            "0x8564fcb5cfd27fbe1e67f1f39f57adf7cb25eaeaf302379f358fe0686eb46688"
          ],
          "data": "0x00000000000000000000000000000000000000000000000000000000000000040000000000000000000000000000000000000000000000000000000000000040000000000000000000000000000000000000000000000000000000000000002c496e737469747574696f6e2000000000000000000000000000000000000000000000000000000000000000040000000000000000000000000000000000000000",
          "blockHash": "0x0ee5ab191fbcdee01d9a82facb49c273b222b69d5d7259b5669c76a66570806a",
          "blockNumber": "0x1868ba3",
          "transactionHash": "0xa4cf47ce11a74cef70cd9bd0a3d54fa3db72ee3e739d68d2a5d259f015d51532",
          "transactionIndex": "0x3",
          "logIndex": "0x3",
          "removed": false
        }
      ],
      "status": "0x1",
      "logsBloom": "0x00000020000000000000000000000000000000000000004000000000000000000000000000000000000000000000000000000000000000000000000000000000000000000000200000000000000000000000000000000000000000004100000000000000000000000000000000000000000000000000000000000000000000000000000000000000000000000000000000000000000000000000000000000000000000000000000000000000000000000000000000000000000000000000000000000000000000000000000000000000000000000000000000000000000000000000000000000000000000000000000000000000001000000000000000000000",
      "type": "0x0",
      "effectiveGasPrice": "0x2540be400"
    },
    {
      "transactionHash": "0xf2fe78ccbbc83e5c86aea2046a7c7a66d1abf8813e871d7fd59649265b520dd9",
      "transactionIndex": "0x4",
      "blockHash": "0x0ee5ab191fbcdee01d9a82facb49c273b222b69d5d7259b5669c76a66570806a",
      "blockNumber": "0x1868ba3",
      "from": "0xd1D1B8F0B6740fad9Fb4166EeEEFEDDB84770938",
      "to": "0x137f6AD66a03B03674625cD82cb24e24bEa7312d",
      "cumulativeGasUsed": "0xd2bc0",
      "gasUsed": "0x29500",
      "contractAddress": null,
      "logs": [
        {
          "address": "0x137f6AD66a03B03674625cD82cb24e24bEa7312d",
          "topics": [
            "0x8564fcb5cfd27fbe1e67f1f39f57adf7cb25eaeaf302379f358fe0686eb46688"
          ],
          "data": "0x00000000000000000000000000000000000000000000000000000000000000050000000000000000000000000000000000000000000000000000000000000040000000000000000000000000000000000000000000000000000000000000002c496e737469747574696f6e2000000000000000000000000000000000000000000000000000000000000000050000000000000000000000000000000000000000",
          "blockHash": "0x0ee5ab191fbcdee01d9a82facb49c273b222b69d5d7259b5669c76a66570806a",
          "blockNumber": "0x1868ba3",
          "transactionHash": "0xf2fe78ccbbc83e5c86aea2046a7c7a66d1abf8813e871d7fd59649265b520dd9",
          "transactionIndex": "0x4",
          "logIndex": "0x4",
          "removed": false
        }
      ],
      "status": "0x1",
      "logsBloom": "0x00000020000000000000000000000000000000000000004000000000000000000000000000000000000000000000000000000000000000000000000000000000000000000000200000000000000000000000000000000000000000004100000000000000000000000000000000000000000000000000000000000000000000000000000000000000000000000000000000000000000000000000000000000000000000000000000000000000000000000000000000000000000000000000000000000000000000000000000000000000000000000000000000000000000000000000000000000000000000000000000000000000001000000000000000000000",
      "type": "0x0",
      "effectiveGasPrice": "0x2540be400"
    },
    {
      "transactionHash": "0x8a28a843d2df433c853ff699d044efd717e4890ed02046c1e15d76751d72a7af",
      "transactionIndex": "0x5",
      "blockHash": "0x0ee5ab191fbcdee01d9a82facb49c273b222b69d5d7259b5669c76a66570806a",
      "blockNumber": "0x1868ba3",
      "from": "0xd1D1B8F0B6740fad9Fb4166EeEEFEDDB84770938",
      "to": "0x137f6AD66a03B03674625cD82cb24e24bEa7312d",
      "cumulativeGasUsed": "0x105e70",
      "gasUsed": "0x332b0",
      "contractAddress": null,
      "logs": [
        {
          "address": "0x137f6AD66a03B03674625cD82cb24e24bEa7312d",
          "topics": [
            "0x1d01df2f27d43c539e43698d3850034aa4a290e2eb938fb45ef4631d4caea4b8"
          ],
          "data": "0x0000000000000000000000000000000000000000000000000000000000000001000000000000000000000000000000000000000000000000000000000000006000000000000000000000000000000000000000000000000000000000000003e8000000000000000000000000000000000000000000000000000000000000002850726f6a656374200000000000000000000000000000000000000000000000000000000000000001000000000000000000000000000000000000000000000000",
          "blockHash": "0x0ee5ab191fbcdee01d9a82facb49c273b222b69d5d7259b5669c76a66570806a",
          "blockNumber": "0x1868ba3",
          "transactionHash": "0x8a28a843d2df433c853ff699d044efd717e4890ed02046c1e15d76751d72a7af",
          "transactionIndex": "0x5",
          "logIndex": "0x5",
          "removed": false
        }
      ],
      "status": "0x1",
      "logsBloom": "0x00000020000000000000000000000000000000000000000000000000000000000000000000000000000000000000000000000000000000000000000000000000000000000000000000000000000000000000000000000400000000004100000000000000000000000000000000000000000000000000000000000000000000000000000000000000000000000000000000000400000000000000000000000000000000000000000000000000000000000000000000000000000000000000200000000000000000000000000000000000000000000000000000000000000000000000000000000000000000000000000000000000000000000000000000000000",
      "type": "0x0",
      "effectiveGasPrice": "0x2540be400"
    },
    {
      "transactionHash": "0x273c307342d75d32c03a2cb1f7986ba768b8e013fa2bd993a251b6c34701ac8c",
      "transactionIndex": "0x6",
      "blockHash": "0x0ee5ab191fbcdee01d9a82facb49c273b222b69d5d7259b5669c76a66570806a",
      "blockNumber": "0x1868ba3",
      "from": "0xd1D1B8F0B6740fad9Fb4166EeEEFEDDB84770938",
      "to": "0x137f6AD66a03B03674625cD82cb24e24bEa7312d",
      "cumulativeGasUsed": "0x139120",
      "gasUsed": "0x332b0",
      "contractAddress": null,
      "logs": [
        {
          "address": "0x137f6AD66a03B03674625cD82cb24e24bEa7312d",
          "topics": [
            "0x1d01df2f27d43c539e43698d3850034aa4a290e2eb938fb45ef4631d4caea4b8"
          ],
          "data": "0x0000000000000000000000000000000000000000000000000000000000000002000000000000000000000000000000000000000000000000000000000000006000000000000000000000000000000000000000000000000000000000000003e9000000000000000000000000000000000000000000000000000000000000002850726f6a656374200000000000000000000000000000000000000000000000000000000000000002000000000000000000000000000000000000000000000000",
          "blockHash": "0x0ee5ab191fbcdee01d9a82facb49c273b222b69d5d7259b5669c76a66570806a",
          "blockNumber": "0x1868ba3",
          "transactionHash": "0x273c307342d75d32c03a2cb1f7986ba768b8e013fa2bd993a251b6c34701ac8c",
          "transactionIndex": "0x6",
          "logIndex": "0x6",
          "removed": false
        }
      ],
      "status": "0x1",
      "logsBloom": "0x00000020000000000000000000000000000000000000000000000000000000000000000000000000000000000000000000000000000000000000000000000000000000000000000000000000000000000000000000000400000000004100000000000000000000000000000000000000000000000000000000000000000000000000000000000000000000000000000000000400000000000000000000000000000000000000000000000000000000000000000000000000000000000000200000000000000000000000000000000000000000000000000000000000000000000000000000000000000000000000000000000000000000000000000000000000",
      "type": "0x0",
      "effectiveGasPrice": "0x2540be400"
    },
    {
      "transactionHash": "0xc221f0b3d479d994a190dc54a8a2a7718fbe902a7e8949ae769c85aa32780365",
      "transactionIndex": "0x7",
      "blockHash": "0x0ee5ab191fbcdee01d9a82facb49c273b222b69d5d7259b5669c76a66570806a",
      "blockNumber": "0x1868ba3",
      "from": "0xd1D1B8F0B6740fad9Fb4166EeEEFEDDB84770938",
      "to": "0x137f6AD66a03B03674625cD82cb24e24bEa7312d",
      "cumulativeGasUsed": "0x16c3d0",
      "gasUsed": "0x332b0",
      "contractAddress": null,
      "logs": [
        {
          "address": "0x137f6AD66a03B03674625cD82cb24e24bEa7312d",
          "topics": [
            "0x1d01df2f27d43c539e43698d3850034aa4a290e2eb938fb45ef4631d4caea4b8"
          ],
          "data": "0x0000000000000000000000000000000000000000000000000000000000000003000000000000000000000000000000000000000000000000000000000000006000000000000000000000000000000000000000000000000000000000000003ea000000000000000000000000000000000000000000000000000000000000002850726f6a656374200000000000000000000000000000000000000000000000000000000000000003000000000000000000000000000000000000000000000000",
          "blockHash": "0x0ee5ab191fbcdee01d9a82facb49c273b222b69d5d7259b5669c76a66570806a",
          "blockNumber": "0x1868ba3",
          "transactionHash": "0xc221f0b3d479d994a190dc54a8a2a7718fbe902a7e8949ae769c85aa32780365",
          "transactionIndex": "0x7",
          "logIndex": "0x7",
          "removed": false
        }
      ],
      "status": "0x1",
      "logsBloom": "0x00000020000000000000000000000000000000000000000000000000000000000000000000000000000000000000000000000000000000000000000000000000000000000000000000000000000000000000000000000400000000004100000000000000000000000000000000000000000000000000000000000000000000000000000000000000000000000000000000000400000000000000000000000000000000000000000000000000000000000000000000000000000000000000200000000000000000000000000000000000000000000000000000000000000000000000000000000000000000000000000000000000000000000000000000000000",
      "type": "0x0",
      "effectiveGasPrice": "0x2540be400"
    },
    {
      "transactionHash": "0x74edbf091ecbe9f75b2d6d447a9e3dd3464b4a37da95b8a9e48c55f1279f0f6b",
      "transactionIndex": "0x8",
      "blockHash": "0x0ee5ab191fbcdee01d9a82facb49c273b222b69d5d7259b5669c76a66570806a",
      "blockNumber": "0x1868ba3",
      "from": "0xd1D1B8F0B6740fad9Fb4166EeEEFEDDB84770938",
      "to": "0x137f6AD66a03B03674625cD82cb24e24bEa7312d",
      "cumulativeGasUsed": "0x19f680",
      "gasUsed": "0x332b0",
      "contractAddress": null,
      "logs": [
        {
          "address": "0x137f6AD66a03B03674625cD82cb24e24bEa7312d",
          "topics": [
            "0x1d01df2f27d43c539e43698d3850034aa4a290e2eb938fb45ef4631d4caea4b8"
          ],
          "data": "0x0000000000000000000000000000000000000000000000000000000000000004000000000000000000000000000000000000000000000000000000000000006000000000000000000000000000000000000000000000000000000000000003eb000000000000000000000000000000000000000000000000000000000000002850726f6a656374200000000000000000000000000000000000000000000000000000000000000004000000000000000000000000000000000000000000000000",
          "blockHash": "0x0ee5ab191fbcdee01d9a82facb49c273b222b69d5d7259b5669c76a66570806a",
          "blockNumber": "0x1868ba3",
          "transactionHash": "0x74edbf091ecbe9f75b2d6d447a9e3dd3464b4a37da95b8a9e48c55f1279f0f6b",
          "transactionIndex": "0x8",
          "logIndex": "0x8",
          "removed": false
        }
      ],
      "status": "0x1",
      "logsBloom": "0x00000020000000000000000000000000000000000000000000000000000000000000000000000000000000000000000000000000000000000000000000000000000000000000000000000000000000000000000000000400000000004100000000000000000000000000000000000000000000000000000000000000000000000000000000000000000000000000000000000400000000000000000000000000000000000000000000000000000000000000000000000000000000000000200000000000000000000000000000000000000000000000000000000000000000000000000000000000000000000000000000000000000000000000000000000000",
      "type": "0x0",
      "effectiveGasPrice": "0x2540be400"
    },
    {
      "transactionHash": "0x985eb74ac4b41add001ede01dbd2960103a865dc19f634c188efadd63341923b",
      "transactionIndex": "0x9",
      "blockHash": "0x0ee5ab191fbcdee01d9a82facb49c273b222b69d5d7259b5669c76a66570806a",
      "blockNumber": "0x1868ba3",
      "from": "0xd1D1B8F0B6740fad9Fb4166EeEEFEDDB84770938",
      "to": "0x137f6AD66a03B03674625cD82cb24e24bEa7312d",
      "cumulativeGasUsed": "0x1d2930",
      "gasUsed": "0x332b0",
      "contractAddress": null,
      "logs": [
        {
          "address": "0x137f6AD66a03B03674625cD82cb24e24bEa7312d",
          "topics": [
            "0x1d01df2f27d43c539e43698d3850034aa4a290e2eb938fb45ef4631d4caea4b8"
          ],
          "data": "0x0000000000000000000000000000000000000000000000000000000000000005000000000000000000000000000000000000000000000000000000000000006000000000000000000000000000000000000000000000000000000000000003ec000000000000000000000000000000000000000000000000000000000000002850726f6a656374200000000000000000000000000000000000000000000000000000000000000005000000000000000000000000000000000000000000000000",
          "blockHash": "0x0ee5ab191fbcdee01d9a82facb49c273b222b69d5d7259b5669c76a66570806a",
          "blockNumber": "0x1868ba3",
          "transactionHash": "0x985eb74ac4b41add001ede01dbd2960103a865dc19f634c188efadd63341923b",
          "transactionIndex": "0x9",
          "logIndex": "0x9",
          "removed": false
        }
      ],
      "status": "0x1",
      "logsBloom": "0x00000020000000000000000000000000000000000000000000000000000000000000000000000000000000000000000000000000000000000000000000000000000000000000000000000000000000000000000000000400000000004100000000000000000000000000000000000000000000000000000000000000000000000000000000000000000000000000000000000400000000000000000000000000000000000000000000000000000000000000000000000000000000000000200000000000000000000000000000000000000000000000000000000000000000000000000000000000000000000000000000000000000000000000000000000000",
      "type": "0x0",
      "effectiveGasPrice": "0x2540be400"
    },
    {
      "transactionHash": "0x49ad62534e870b76a33fb1d785d2d01a43c74d05aad752cfb7143cdffd9b8e5f",
      "transactionIndex": "0xa",
      "blockHash": "0x0ee5ab191fbcdee01d9a82facb49c273b222b69d5d7259b5669c76a66570806a",
      "blockNumber": "0x1868ba3",
      "from": "0xd1D1B8F0B6740fad9Fb4166EeEEFEDDB84770938",
      "to": "0x137f6AD66a03B03674625cD82cb24e24bEa7312d",
      "cumulativeGasUsed": "0x1fbe2c",
      "gasUsed": "0x294fc",
      "contractAddress": null,
      "logs": [
        {
          "address": "0x137f6AD66a03B03674625cD82cb24e24bEa7312d",
          "topics": [
            "0x902813d9d8cdb71697048d14e9e27d033cb3bba4db3b358c16e750ab5d796451"
          ],
          "data": "0x000000000000000000000000000000000000000000000000000000000000000100000000000000000000000000000000000000000000000000000000000000400000000000000000000000000000000000000000000000000000000000000026566f7465722000000000000000000000000000000000000000000000000000000000000000010000000000000000000000000000000000000000000000000000",
          "blockHash": "0x0ee5ab191fbcdee01d9a82facb49c273b222b69d5d7259b5669c76a66570806a",
          "blockNumber": "0x1868ba3",
          "transactionHash": "0x49ad62534e870b76a33fb1d785d2d01a43c74d05aad752cfb7143cdffd9b8e5f",
          "transactionIndex": "0xa",
          "logIndex": "0xa",
          "removed": false
        }
      ],
      "status": "0x1",
      "logsBloom": "0x00000020000000000000000000000000000000000000000000000000000000000000000000000000000000000000000000000000000000000000000000000000000000000000000000000000000000000000000000000000000000004100000000000000000000000000000000000000000100000000000000000000000000000000000000000000000000000000004000000000000000000000010000000000000000000000000000000000000000000000000000000000000000000000000000000000000000000000000000000000000000000000000000000000000000000000000000000000000000000000000000000000000000000000000000000000",
      "type": "0x0",
      "effectiveGasPrice": "0x2540be400"
    },
    {
      "transactionHash": "0xa874d27bf3e353fd43b3b1ab304d75aa0d6efa01645bf1a9be1f50c93f53928d",
      "transactionIndex": "0xb",
      "blockHash": "0x0ee5ab191fbcdee01d9a82facb49c273b222b69d5d7259b5669c76a66570806a",
      "blockNumber": "0x1868ba3",
      "from": "0xd1D1B8F0B6740fad9Fb4166EeEEFEDDB84770938",
      "to": "0x137f6AD66a03B03674625cD82cb24e24bEa7312d",
      "cumulativeGasUsed": "0x225328",
      "gasUsed": "0x294fc",
      "contractAddress": null,
      "logs": [
        {
          "address": "0x137f6AD66a03B03674625cD82cb24e24bEa7312d",
          "topics": [
            "0x902813d9d8cdb71697048d14e9e27d033cb3bba4db3b358c16e750ab5d796451"
          ],
          "data": "0x000000000000000000000000000000000000000000000000000000000000000200000000000000000000000000000000000000000000000000000000000000400000000000000000000000000000000000000000000000000000000000000026566f7465722000000000000000000000000000000000000000000000000000000000000000020000000000000000000000000000000000000000000000000000",
          "blockHash": "0x0ee5ab191fbcdee01d9a82facb49c273b222b69d5d7259b5669c76a66570806a",
          "blockNumber": "0x1868ba3",
          "transactionHash": "0xa874d27bf3e353fd43b3b1ab304d75aa0d6efa01645bf1a9be1f50c93f53928d",
          "transactionIndex": "0xb",
          "logIndex": "0xb",
          "removed": false
        }
      ],
      "status": "0x1",
      "logsBloom": "0x00000020000000000000000000000000000000000000000000000000000000000000000000000000000000000000000000000000000000000000000000000000000000000000000000000000000000000000000000000000000000004100000000000000000000000000000000000000000100000000000000000000000000000000000000000000000000000000004000000000000000000000010000000000000000000000000000000000000000000000000000000000000000000000000000000000000000000000000000000000000000000000000000000000000000000000000000000000000000000000000000000000000000000000000000000000",
      "type": "0x0",
      "effectiveGasPrice": "0x2540be400"
    },
    {
      "transactionHash": "0x51ed93ba215752554dd05f00daa87b4c0e2cb00b625b15b3dbfe50f854869b0a",
      "transactionIndex": "0xc",
      "blockHash": "0x0ee5ab191fbcdee01d9a82facb49c273b222b69d5d7259b5669c76a66570806a",
      "blockNumber": "0x1868ba3",
      "from": "0xd1D1B8F0B6740fad9Fb4166EeEEFEDDB84770938",
      "to": "0x137f6AD66a03B03674625cD82cb24e24bEa7312d",
      "cumulativeGasUsed": "0x24e824",
      "gasUsed": "0x294fc",
      "contractAddress": null,
      "logs": [
        {
          "address": "0x137f6AD66a03B03674625cD82cb24e24bEa7312d",
          "topics": [
            "0x902813d9d8cdb71697048d14e9e27d033cb3bba4db3b358c16e750ab5d796451"
          ],
          "data": "0x000000000000000000000000000000000000000000000000000000000000000300000000000000000000000000000000000000000000000000000000000000400000000000000000000000000000000000000000000000000000000000000026566f7465722000000000000000000000000000000000000000000000000000000000000000030000000000000000000000000000000000000000000000000000",
          "blockHash": "0x0ee5ab191fbcdee01d9a82facb49c273b222b69d5d7259b5669c76a66570806a",
          "blockNumber": "0x1868ba3",
          "transactionHash": "0x51ed93ba215752554dd05f00daa87b4c0e2cb00b625b15b3dbfe50f854869b0a",
          "transactionIndex": "0xc",
          "logIndex": "0xc",
          "removed": false
        }
      ],
      "status": "0x1",
      "logsBloom": "0x00000020000000000000000000000000000000000000000000000000000000000000000000000000000000000000000000000000000000000000000000000000000000000000000000000000000000000000000000000000000000004100000000000000000000000000000000000000000100000000000000000000000000000000000000000000000000000000004000000000000000000000010000000000000000000000000000000000000000000000000000000000000000000000000000000000000000000000000000000000000000000000000000000000000000000000000000000000000000000000000000000000000000000000000000000000",
      "type": "0x0",
      "effectiveGasPrice": "0x2540be400"
    },
    {
      "transactionHash": "0xda7adf9dfbedcba347aa143ee45dc9b821d51f0bfa56b81dbd36c74c73867ba5",
      "transactionIndex": "0xd",
      "blockHash": "0x0ee5ab191fbcdee01d9a82facb49c273b222b69d5d7259b5669c76a66570806a",
      "blockNumber": "0x1868ba3",
      "from": "0xd1D1B8F0B6740fad9Fb4166EeEEFEDDB84770938",
      "to": "0x137f6AD66a03B03674625cD82cb24e24bEa7312d",
      "cumulativeGasUsed": "0x277d14",
      "gasUsed": "0x294f0",
      "contractAddress": null,
      "logs": [
        {
          "address": "0x137f6AD66a03B03674625cD82cb24e24bEa7312d",
          "topics": [
            "0x902813d9d8cdb71697048d14e9e27d033cb3bba4db3b358c16e750ab5d796451"
          ],
          "data": "0x000000000000000000000000000000000000000000000000000000000000000400000000000000000000000000000000000000000000000000000000000000400000000000000000000000000000000000000000000000000000000000000026566f7465722000000000000000000000000000000000000000000000000000000000000000040000000000000000000000000000000000000000000000000000",
          "blockHash": "0x0ee5ab191fbcdee01d9a82facb49c273b222b69d5d7259b5669c76a66570806a",
          "blockNumber": "0x1868ba3",
          "transactionHash": "0xda7adf9dfbedcba347aa143ee45dc9b821d51f0bfa56b81dbd36c74c73867ba5",
          "transactionIndex": "0xd",
          "logIndex": "0xd",
          "removed": false
        }
      ],
      "status": "0x1",
      "logsBloom": "0x00000020000000000000000000000000000000000000000000000000000000000000000000000000000000000000000000000000000000000000000000000000000000000000000000000000000000000000000000000000000000004100000000000000000000000000000000000000000100000000000000000000000000000000000000000000000000000000004000000000000000000000010000000000000000000000000000000000000000000000000000000000000000000000000000000000000000000000000000000000000000000000000000000000000000000000000000000000000000000000000000000000000000000000000000000000",
      "type": "0x0",
      "effectiveGasPrice": "0x2540be400"
    },
    {
      "transactionHash": "0x94e03ab89969c00b388fe6a6ef18bcd37d9211bf570b3a85adb1ad9c71cea98f",
      "transactionIndex": "0xe",
      "blockHash": "0x0ee5ab191fbcdee01d9a82facb49c273b222b69d5d7259b5669c76a66570806a",
      "blockNumber": "0x1868ba3",
      "from": "0xd1D1B8F0B6740fad9Fb4166EeEEFEDDB84770938",
      "to": "0x137f6AD66a03B03674625cD82cb24e24bEa7312d",
      "cumulativeGasUsed": "0x2a1210",
      "gasUsed": "0x294fc",
      "contractAddress": null,
      "logs": [
        {
          "address": "0x137f6AD66a03B03674625cD82cb24e24bEa7312d",
          "topics": [
            "0x902813d9d8cdb71697048d14e9e27d033cb3bba4db3b358c16e750ab5d796451"
          ],
          "data": "0x000000000000000000000000000000000000000000000000000000000000000500000000000000000000000000000000000000000000000000000000000000400000000000000000000000000000000000000000000000000000000000000026566f7465722000000000000000000000000000000000000000000000000000000000000000050000000000000000000000000000000000000000000000000000",
          "blockHash": "0x0ee5ab191fbcdee01d9a82facb49c273b222b69d5d7259b5669c76a66570806a",
          "blockNumber": "0x1868ba3",
          "transactionHash": "0x94e03ab89969c00b388fe6a6ef18bcd37d9211bf570b3a85adb1ad9c71cea98f",
          "transactionIndex": "0xe",
          "logIndex": "0xe",
          "removed": false
        }
      ],
      "status": "0x1",
      "logsBloom": "0x00000020000000000000000000000000000000000000000000000000000000000000000000000000000000000000000000000000000000000000000000000000000000000000000000000000000000000000000000000000000000004100000000000000000000000000000000000000000100000000000000000000000000000000000000000000000000000000004000000000000000000000010000000000000000000000000000000000000000000000000000000000000000000000000000000000000000000000000000000000000000000000000000000000000000000000000000000000000000000000000000000000000000000000000000000000",
      "type": "0x0",
      "effectiveGasPrice": "0x2540be400"
    }
  ],
  "libraries": [],
  "pending": [],
  "returns": {},
  "timestamp": 1723385269,
  "chain": 44787,
  "multi": false,
  "commit": "f54dc5f"
}