{
  "transactions": [
    {
      "hash": "0x3a51a557d83e8ff4840ce3fe2b1d01087c0c3e52dab8e4d2e51f8042111812e4",
      "transactionType": "CALL",
      "contractName": null,
      "contractAddress": "0x60423e0B9FB597c35249C86fF0249dcA66C07292",
      "function": "createInstitution(string,address)",
      "arguments": [
        "\"Institution \\0\\0\\0\\0\\0\\0\\0\\0\\0\\0\\0\\0\\0\\0\\0\\0\\0\\0\\0\\0\\0\\0\\0\\0\\0\\0\\0\\0\\0\\0\\0\\u{1}\"",
        "0x7E5F4552091A69125d5DfCb7b8C2659029395Bdf"
      ],
      "transaction": {
        "type": "0x02",
        "from": "0x26aa9bb6f36f404af102a53f327e2acf92aaf451",
        "to": "0x60423e0b9fb597c35249c86ff0249dca66c07292",
        "gas": "0x3d560",
        "value": "0x0",
        "data": "0xe748f56800000000000000000000000000000000000000000000000000000000000000400000000000000000000000007e5f4552091a69125d5dfcb7b8c2659029395bdf000000000000000000000000000000000000000000000000000000000000002c496e737469747574696f6e2000000000000000000000000000000000000000000000000000000000000000010000000000000000000000000000000000000000",
        "nonce": "0x45",
        "accessList": []
      },
      "additionalContracts": [],
      "isFixedGasLimit": false
    },
    {
      "hash": "0xf9b8dd7dba3d8d8e2d158939161687606b8d1fc4172de8aa8fddb868c2a0fe9b",
      "transactionType": "CALL",
      "contractName": null,
      "contractAddress": "0x60423e0B9FB597c35249C86fF0249dcA66C07292",
      "function": "createInstitution(string,address)",
      "arguments": [
        "\"Institution \\0\\0\\0\\0\\0\\0\\0\\0\\0\\0\\0\\0\\0\\0\\0\\0\\0\\0\\0\\0\\0\\0\\0\\0\\0\\0\\0\\0\\0\\0\\0\\u{2}\"",
        "0x2B5AD5c4795c026514f8317c7a215E218DcCD6cF"
      ],
      "transaction": {
        "type": "0x02",
        "from": "0x26aa9bb6f36f404af102a53f327e2acf92aaf451",
        "to": "0x60423e0b9fb597c35249c86ff0249dca66c07292",
        "gas": "0x3791d",
        "value": "0x0",
        "data": "0xe748f56800000000000000000000000000000000000000000000000000000000000000400000000000000000000000002b5ad5c4795c026514f8317c7a215e218dccd6cf000000000000000000000000000000000000000000000000000000000000002c496e737469747574696f6e2000000000000000000000000000000000000000000000000000000000000000020000000000000000000000000000000000000000",
        "nonce": "0x46",
        "accessList": []
      },
      "additionalContracts": [],
      "isFixedGasLimit": false
    },
    {
      "hash": "0x6865914e50b42b0fec4be461b5bef30fe4a61a2aeede247bc42b31b1d0baa0dc",
      "transactionType": "CALL",
      "contractName": null,
      "contractAddress": "0x60423e0B9FB597c35249C86fF0249dcA66C07292",
      "function": "createInstitution(string,address)",
      "arguments": [
        "\"Institution \\0\\0\\0\\0\\0\\0\\0\\0\\0\\0\\0\\0\\0\\0\\0\\0\\0\\0\\0\\0\\0\\0\\0\\0\\0\\0\\0\\0\\0\\0\\0\\u{3}\"",
        "0x6813Eb9362372EEF6200f3b1dbC3f819671cBA69"
      ],
      "transaction": {
        "type": "0x02",
        "from": "0x26aa9bb6f36f404af102a53f327e2acf92aaf451",
        "to": "0x60423e0b9fb597c35249c86ff0249dca66c07292",
        "gas": "0x3790c",
        "value": "0x0",
        "data": "0xe748f56800000000000000000000000000000000000000000000000000000000000000400000000000000000000000006813eb9362372eef6200f3b1dbc3f819671cba69000000000000000000000000000000000000000000000000000000000000002c496e737469747574696f6e2000000000000000000000000000000000000000000000000000000000000000030000000000000000000000000000000000000000",
        "nonce": "0x47",
        "accessList": []
      },
      "additionalContracts": [],
      "isFixedGasLimit": false
    },
    {
      "hash": "0xe800a1a8ffe3e80070846eb623d8b47a35b226ed47ed8a78d63ae29cc3594a82",
      "transactionType": "CALL",
      "contractName": null,
      "contractAddress": "0x60423e0B9FB597c35249C86fF0249dcA66C07292",
      "function": "createInstitution(string,address)",
      "arguments": [
        "\"Institution \\0\\0\\0\\0\\0\\0\\0\\0\\0\\0\\0\\0\\0\\0\\0\\0\\0\\0\\0\\0\\0\\0\\0\\0\\0\\0\\0\\0\\0\\0\\0\\u{4}\"",
        "0x1efF47bc3a10a45D4B230B5d10E37751FE6AA718"
      ],
      "transaction": {
        "type": "0x02",
        "from": "0x26aa9bb6f36f404af102a53f327e2acf92aaf451",
        "to": "0x60423e0b9fb597c35249c86ff0249dca66c07292",
        "gas": "0x3791d",
        "value": "0x0",
        "data": "0xe748f56800000000000000000000000000000000000000000000000000000000000000400000000000000000000000001eff47bc3a10a45d4b230b5d10e37751fe6aa718000000000000000000000000000000000000000000000000000000000000002c496e737469747574696f6e2000000000000000000000000000000000000000000000000000000000000000040000000000000000000000000000000000000000",
        "nonce": "0x48",
        "accessList": []
      },
      "additionalContracts": [],
      "isFixedGasLimit": false
    },
    {
      "hash": "0x9410c85e449b325821ee7625b87440097ccc94cfe3fa521d082d97610245c87e",
      "transactionType": "CALL",
      "contractName": null,
      "contractAddress": "0x60423e0B9FB597c35249C86fF0249dcA66C07292",
      "function": "createInstitution(string,address)",
      "arguments": [
        "\"Institution \\0\\0\\0\\0\\0\\0\\0\\0\\0\\0\\0\\0\\0\\0\\0\\0\\0\\0\\0\\0\\0\\0\\0\\0\\0\\0\\0\\0\\0\\0\\0\\u{5}\"",
        "0xe1AB8145F7E55DC933d51a18c793F901A3A0b276"
      ],
      "transaction": {
        "type": "0x02",
        "from": "0x26aa9bb6f36f404af102a53f327e2acf92aaf451",
        "to": "0x60423e0b9fb597c35249c86ff0249dca66c07292",
        "gas": "0x3791d",
        "value": "0x0",
        "data": "0xe748f5680000000000000000000000000000000000000000000000000000000000000040000000000000000000000000e1ab8145f7e55dc933d51a18c793f901a3a0b276000000000000000000000000000000000000000000000000000000000000002c496e737469747574696f6e2000000000000000000000000000000000000000000000000000000000000000050000000000000000000000000000000000000000",
        "nonce": "0x49",
        "accessList": []
      },
      "additionalContracts": [],
      "isFixedGasLimit": false
    },
    {
      "hash": "0xa7ecefe1ab4ef1065a637cc03602b6d0cf5934171fca514d15a8049f88f82a09",
      "transactionType": "CALL",
      "contractName": null,
      "contractAddress": "0x60423e0B9FB597c35249C86fF0249dcA66C07292",
      "function": "createProject(uint256,address,uint256,string)",
      "arguments": [
        "100",
        "0xE57bFE9F44b819898F47BF37E5AF72a0783e1141",
        "1000",
        "\"Project \\0\\0\\0\\0\\0\\0\\0\\0\\0\\0\\0\\0\\0\\0\\0\\0\\0\\0\\0\\0\\0\\0\\0\\0\\0\\0\\0\\0\\0\\0\\0\\u{1}\""
      ],
      "transaction": {
        "type": "0x02",
        "from": "0x26aa9bb6f36f404af102a53f327e2acf92aaf451",
        "to": "0x60423e0b9fb597c35249c86ff0249dca66c07292",
        "gas": "0x46b0b",
        "value": "0x0",
        "data": "0x71c79f6b0000000000000000000000000000000000000000000000000000000000000064000000000000000000000000e57bfe9f44b819898f47bf37e5af72a0783e114100000000000000000000000000000000000000000000000000000000000003e80000000000000000000000000000000000000000000000000000000000000080000000000000000000000000000000000000000000000000000000000000002850726f6a656374200000000000000000000000000000000000000000000000000000000000000001000000000000000000000000000000000000000000000000",
        "nonce": "0x4a",
        "accessList": []
      },
      "additionalContracts": [],
      "isFixedGasLimit": false
    },
    {
      "hash": "0xd2bd8d3e32ad1cc106b044da30ccdd9cf0ade4934738f4aa74835553e23231d0",
      "transactionType": "CALL",
      "contractName": null,
      "contractAddress": "0x60423e0B9FB597c35249C86fF0249dcA66C07292",
      "function": "createProject(uint256,address,uint256,string)",
      "arguments": [
        "110",
        "0xd41c057fd1c78805AAC12B0A94a405c0461A6FBb",
        "1001",
        "\"Project \\0\\0\\0\\0\\0\\0\\0\\0\\0\\0\\0\\0\\0\\0\\0\\0\\0\\0\\0\\0\\0\\0\\0\\0\\0\\0\\0\\0\\0\\0\\0\\u{2}\""
      ],
      "transaction": {
        "type": "0x02",
        "from": "0x26aa9bb6f36f404af102a53f327e2acf92aaf451",
        "to": "0x60423e0b9fb597c35249c86ff0249dca66c07292",
        "gas": "0x46b0b",
        "value": "0x0",
        "data": "0x71c79f6b000000000000000000000000000000000000000000000000000000000000006e000000000000000000000000d41c057fd1c78805aac12b0a94a405c0461a6fbb00000000000000000000000000000000000000000000000000000000000003e90000000000000000000000000000000000000000000000000000000000000080000000000000000000000000000000000000000000000000000000000000002850726f6a656374200000000000000000000000000000000000000000000000000000000000000002000000000000000000000000000000000000000000000000",
        "nonce": "0x4b",
        "accessList": []
      },
      "additionalContracts": [],
      "isFixedGasLimit": false
    },
    {
      "hash": "0x1ceb7eed810c30b77e5c02518a87b1f2e897d3155b2ca3a56146cf79319cfbba",
      "transactionType": "CALL",
      "contractName": null,
      "contractAddress": "0x60423e0B9FB597c35249C86fF0249dcA66C07292",
      "function": "createProject(uint256,address,uint256,string)",
      "arguments": [
        "120",
        "0xF1F6619B38A98d6De0800F1DefC0a6399eB6d30C",
        "1002",
        "\"Project \\0\\0\\0\\0\\0\\0\\0\\0\\0\\0\\0\\0\\0\\0\\0\\0\\0\\0\\0\\0\\0\\0\\0\\0\\0\\0\\0\\0\\0\\0\\0\\u{3}\""
      ],
      "transaction": {
        "type": "0x02",
        "from": "0x26aa9bb6f36f404af102a53f327e2acf92aaf451",
        "to": "0x60423e0b9fb597c35249c86ff0249dca66c07292",
        "gas": "0x46b0b",
        "value": "0x0",
        "data": "0x71c79f6b0000000000000000000000000000000000000000000000000000000000000078000000000000000000000000f1f6619b38a98d6de0800f1defc0a6399eb6d30c00000000000000000000000000000000000000000000000000000000000003ea0000000000000000000000000000000000000000000000000000000000000080000000000000000000000000000000000000000000000000000000000000002850726f6a656374200000000000000000000000000000000000000000000000000000000000000003000000000000000000000000000000000000000000000000",
        "nonce": "0x4c",
        "accessList": []
      },
      "additionalContracts": [],
      "isFixedGasLimit": false
    },
    {
      "hash": "0x1b0f767e72e97e2a782289923d7ff388958148b14179eab49a42477c01961ce3",
      "transactionType": "CALL",
      "contractName": null,
      "contractAddress": "0x60423e0B9FB597c35249C86fF0249dcA66C07292",
      "function": "createProject(uint256,address,uint256,string)",
      "arguments": [
        "130",
        "0xF7Edc8FA1eCc32967F827C9043FcAe6ba73afA5c",
        "1003",
        "\"Project \\0\\0\\0\\0\\0\\0\\0\\0\\0\\0\\0\\0\\0\\0\\0\\0\\0\\0\\0\\0\\0\\0\\0\\0\\0\\0\\0\\0\\0\\0\\0\\u{4}\""
      ],
      "transaction": {
        "type": "0x02",
        "from": "0x26aa9bb6f36f404af102a53f327e2acf92aaf451",
        "to": "0x60423e0b9fb597c35249c86ff0249dca66c07292",
        "gas": "0x46b0b",
        "value": "0x0",
        "data": "0x71c79f6b0000000000000000000000000000000000000000000000000000000000000082000000000000000000000000f7edc8fa1ecc32967f827c9043fcae6ba73afa5c00000000000000000000000000000000000000000000000000000000000003eb0000000000000000000000000000000000000000000000000000000000000080000000000000000000000000000000000000000000000000000000000000002850726f6a656374200000000000000000000000000000000000000000000000000000000000000004000000000000000000000000000000000000000000000000",
        "nonce": "0x4d",
        "accessList": []
      },
      "additionalContracts": [],
      "isFixedGasLimit": false
    },
    {
      "hash": "0x47342dce25ade3ee79585c1f1b74456928261abadb1a0da7d7e179512887d99f",
      "transactionType": "CALL",
      "contractName": null,
      "contractAddress": "0x60423e0B9FB597c35249C86fF0249dcA66C07292",
      "function": "createProject(uint256,address,uint256,string)",
      "arguments": [
        "140",
        "0x4CCeBa2d7D2B4fdcE4304d3e09a1fea9fbEb1528",
        "1004",
        "\"Project \\0\\0\\0\\0\\0\\0\\0\\0\\0\\0\\0\\0\\0\\0\\0\\0\\0\\0\\0\\0\\0\\0\\0\\0\\0\\0\\0\\0\\0\\0\\0\\u{5}\""
      ],
      "transaction": {
        "type": "0x02",
        "from": "0x26aa9bb6f36f404af102a53f327e2acf92aaf451",
        "to": "0x60423e0b9fb597c35249c86ff0249dca66c07292",
        "gas": "0x46b0b",
        "value": "0x0",
        "data": "0x71c79f6b000000000000000000000000000000000000000000000000000000000000008c0000000000000000000000004cceba2d7d2b4fdce4304d3e09a1fea9fbeb152800000000000000000000000000000000000000000000000000000000000003ec0000000000000000000000000000000000000000000000000000000000000080000000000000000000000000000000000000000000000000000000000000002850726f6a656374200000000000000000000000000000000000000000000000000000000000000005000000000000000000000000000000000000000000000000",
        "nonce": "0x4e",
        "accessList": []
      },
      "additionalContracts": [],
      "isFixedGasLimit": false
    },
    {
      "hash": "0x1f7a74d244394b9e07da55cbd43a88f599036d5aea4585dc1aaa0ac6683369e9",
      "transactionType": "CALL",
      "contractName": null,
      "contractAddress": "0x60423e0B9FB597c35249C86fF0249dcA66C07292",
      "function": "createVoter(string,address)",
      "arguments": [
        "\"Voter \\0\\0\\0\\0\\0\\0\\0\\0\\0\\0\\0\\0\\0\\0\\0\\0\\0\\0\\0\\0\\0\\0\\0\\0\\0\\0\\0\\0\\0\\0\\0\\u{1}\"",
        "0x3DA8D322CB2435dA26E9C9fEE670f9fB7Fe74E49"
      ],
      "transaction": {
        "type": "0x02",
        "from": "0x26aa9bb6f36f404af102a53f327e2acf92aaf451",
        "to": "0x60423e0b9fb597c35249c86ff0249dca66c07292",
        "gas": "0x390bc",
        "value": "0x0",
        "data": "0x2a4be2ad00000000000000000000000000000000000000000000000000000000000000400000000000000000000000003da8d322cb2435da26e9c9fee670f9fb7fe74e490000000000000000000000000000000000000000000000000000000000000026566f7465722000000000000000000000000000000000000000000000000000000000000000010000000000000000000000000000000000000000000000000000",
        "nonce": "0x4f",
        "accessList": []
      },
      "additionalContracts": [],
      "isFixedGasLimit": false
    },
    {
      "hash": "0xcd01bc0251b38cdef01d69e4272ff5a83977638b2fe7b0f4f2483afeda94dc7d",
      "transactionType": "CALL",
      "contractName": null,
      "contractAddress": "0x60423e0B9FB597c35249C86fF0249dcA66C07292",
      "function": "createVoter(string,address)",
      "arguments": [
        "\"Voter \\0\\0\\0\\0\\0\\0\\0\\0\\0\\0\\0\\0\\0\\0\\0\\0\\0\\0\\0\\0\\0\\0\\0\\0\\0\\0\\0\\0\\0\\0\\0\\u{2}\"",
        "0xDbc23AE43a150ff8884B02Cea117b22D1c3b9796"
      ],
      "transaction": {
        "type": "0x02",
        "from": "0x26aa9bb6f36f404af102a53f327e2acf92aaf451",
        "to": "0x60423e0b9fb597c35249c86ff0249dca66c07292",
        "gas": "0x390bc",
        "value": "0x0",
        "data": "0x2a4be2ad0000000000000000000000000000000000000000000000000000000000000040000000000000000000000000dbc23ae43a150ff8884b02cea117b22d1c3b97960000000000000000000000000000000000000000000000000000000000000026566f7465722000000000000000000000000000000000000000000000000000000000000000020000000000000000000000000000000000000000000000000000",
        "nonce": "0x50",
        "accessList": []
      },
      "additionalContracts": [],
      "isFixedGasLimit": false
    },
    {
      "hash": "0xcfc22a0138ea26a9be553f03e5c8914854f69c161b7fd96834186512f863f8c4",
      "transactionType": "CALL",
      "contractName": null,
      "contractAddress": "0x60423e0B9FB597c35249C86fF0249dcA66C07292",
      "function": "createVoter(string,address)",
      "arguments": [
        "\"Voter \\0\\0\\0\\0\\0\\0\\0\\0\\0\\0\\0\\0\\0\\0\\0\\0\\0\\0\\0\\0\\0\\0\\0\\0\\0\\0\\0\\0\\0\\0\\0\\u{3}\"",
        "0x68E527780872cda0216Ba0d8fBD58b67a5D5e351"
      ],
      "transaction": {
        "type": "0x02",
        "from": "0x26aa9bb6f36f404af102a53f327e2acf92aaf451",
        "to": "0x60423e0b9fb597c35249c86ff0249dca66c07292",
        "gas": "0x390bc",
        "value": "0x0",
        "data": "0x2a4be2ad000000000000000000000000000000000000000000000000000000000000004000000000000000000000000068e527780872cda0216ba0d8fbd58b67a5d5e3510000000000000000000000000000000000000000000000000000000000000026566f7465722000000000000000000000000000000000000000000000000000000000000000030000000000000000000000000000000000000000000000000000",
        "nonce": "0x51",
        "accessList": []
      },
      "additionalContracts": [],
      "isFixedGasLimit": false
    },
    {
      "hash": "0xfafa558452cae20c428aed80459ae5d13cf25590533225023622bdb27d8321b1",
      "transactionType": "CALL",
      "contractName": null,
      "contractAddress": "0x60423e0B9FB597c35249C86fF0249dcA66C07292",
      "function": "createVoter(string,address)",
      "arguments": [
        "\"Voter \\0\\0\\0\\0\\0\\0\\0\\0\\0\\0\\0\\0\\0\\0\\0\\0\\0\\0\\0\\0\\0\\0\\0\\0\\0\\0\\0\\0\\0\\0\\0\\u{4}\"",
        "0x5A83529ff76Ac5723A87008c4D9B436AD4CA7d28"
      ],
      "transaction": {
        "type": "0x02",
        "from": "0x26aa9bb6f36f404af102a53f327e2acf92aaf451",
        "to": "0x60423e0b9fb597c35249c86ff0249dca66c07292",
        "gas": "0x3c65c",
        "value": "0x0",
        "data": "0x2a4be2ad00000000000000000000000000000000000000000000000000000000000000400000000000000000000000005a83529ff76ac5723a87008c4d9b436ad4ca7d280000000000000000000000000000000000000000000000000000000000000026566f7465722000000000000000000000000000000000000000000000000000000000000000040000000000000000000000000000000000000000000000000000",
        "nonce": "0x52",
        "accessList": []
      },
      "additionalContracts": [],
      "isFixedGasLimit": false
    },
    {
      "hash": "0x4ae1c3c9f7d1e55260ea90011b453665bd893b10e0184cd93802456b23b36564",
      "transactionType": "CALL",
      "contractName": null,
      "contractAddress": "0x60423e0B9FB597c35249C86fF0249dcA66C07292",
      "function": "createVoter(string,address)",
      "arguments": [
        "\"Voter \\0\\0\\0\\0\\0\\0\\0\\0\\0\\0\\0\\0\\0\\0\\0\\0\\0\\0\\0\\0\\0\\0\\0\\0\\0\\0\\0\\0\\0\\0\\0\\u{5}\"",
        "0x8735015837bD10e05d9cf5EA43A2486Bf4Be156F"
      ],
      "transaction": {
        "type": "0x02",
        "from": "0x26aa9bb6f36f404af102a53f327e2acf92aaf451",
        "to": "0x60423e0b9fb597c35249c86ff0249dca66c07292",
        "gas": "0x390bc",
        "value": "0x0",
        "data": "0x2a4be2ad00000000000000000000000000000000000000000000000000000000000000400000000000000000000000008735015837bd10e05d9cf5ea43a2486bf4be156f0000000000000000000000000000000000000000000000000000000000000026566f7465722000000000000000000000000000000000000000000000000000000000000000050000000000000000000000000000000000000000000000000000",
        "nonce": "0x53",
        "accessList": []
      },
      "additionalContracts": [],
      "isFixedGasLimit": false
    }
  ],
  "receipts": [
    {
      "transactionHash": "0x3a51a557d83e8ff4840ce3fe2b1d01087c0c3e52dab8e4d2e51f8042111812e4",
      "transactionIndex": "0x1",
      "blockHash": "0xfcca579435a198cde4544d89e098d22595f85a0e33d01e9ffef517a6fe745f5a",
      "blockNumber": "0xd223e5",
      "from": "0x26aA9BB6f36f404aF102A53F327E2aCf92aaF451",
      "to": "0x60423e0B9FB597c35249C86fF0249dcA66C07292",
      "cumulativeGasUsed": "0x371ef",
      "gasUsed": "0x2c680",
      "contractAddress": null,
      "logs": [
        {
          "address": "0x60423e0B9FB597c35249C86fF0249dcA66C07292",
          "topics": [
            "0x8564fcb5cfd27fbe1e67f1f39f57adf7cb25eaeaf302379f358fe0686eb46688"
          ],
          "data": "0x00000000000000000000000000000000000000000000000000000000000000010000000000000000000000000000000000000000000000000000000000000040000000000000000000000000000000000000000000000000000000000000002c496e737469747574696f6e2000000000000000000000000000000000000000000000000000000000000000010000000000000000000000000000000000000000",
          "blockHash": "0xfcca579435a198cde4544d89e098d22595f85a0e33d01e9ffef517a6fe745f5a",
          "blockNumber": "0xd223e5",
          "transactionHash": "0x3a51a557d83e8ff4840ce3fe2b1d01087c0c3e52dab8e4d2e51f8042111812e4",
          "transactionIndex": "0x1",
          "logIndex": "0x0",
          "removed": false
        }
      ],
      "status": "0x1",
      "logsBloom": "0x00000000000000000000000000000000000000000000004000000000000000000000000000000000000000080000000000000000000000000000000000000000000000000000200000000000000000000000000000000000000000000000000000000000000000000000000000000000000000000000000000000000000000000000000000000000000000000000000000000000000000000000000000000000000000000000000000000000000000000000000000000000000000000000000000000000000000001000000000000000200000000000000000000000000000000000000000000000000000000000000000000000001000000000000000000000",
      "type": "0x2",
      "effectiveGasPrice": "0xb35d12ad"
    },
    {
      "transactionHash": "0xf9b8dd7dba3d8d8e2d158939161687606b8d1fc4172de8aa8fddb868c2a0fe9b",
      "transactionIndex": "0x2",
      "blockHash": "0xfcca579435a198cde4544d89e098d22595f85a0e33d01e9ffef517a6fe745f5a",
      "blockNumber": "0xd223e5",
      "from": "0x26aA9BB6f36f404aF102A53F327E2aCf92aaF451",
      "to": "0x60423e0B9FB597c35249C86fF0249dcA66C07292",
      "cumulativeGasUsed": "0x5f5a3",
      "gasUsed": "0x283b4",
      "contractAddress": null,
      "logs": [
        {
          "address": "0x60423e0B9FB597c35249C86fF0249dcA66C07292",
          "topics": [
            "0x8564fcb5cfd27fbe1e67f1f39f57adf7cb25eaeaf302379f358fe0686eb46688"
          ],
          "data": "0x00000000000000000000000000000000000000000000000000000000000000020000000000000000000000000000000000000000000000000000000000000040000000000000000000000000000000000000000000000000000000000000002c496e737469747574696f6e2000000000000000000000000000000000000000000000000000000000000000020000000000000000000000000000000000000000",
          "blockHash": "0xfcca579435a198cde4544d89e098d22595f85a0e33d01e9ffef517a6fe745f5a",
          "blockNumber": "0xd223e5",
          "transactionHash": "0xf9b8dd7dba3d8d8e2d158939161687606b8d1fc4172de8aa8fddb868c2a0fe9b",
          "transactionIndex": "0x2",
          "logIndex": "0x1",
          "removed": false
        }
      ],
      "status": "0x1",
      "logsBloom": "0x00000000000000000000000000000000000000000000004000000000000000000000000000000000000000080000000000000000000000000000000000000000000000000000200000000000000000000000000000000000000000000000000000000000000000000000000000000000000000000000000000000000000000000000000000000000000000000000000000000000000000000000000000000000000000000000000000000000000000000000000000000000000000000000000000000000000000001000000000000000200000000000000000000000000000000000000000000000000000000000000000000000001000000000000000000000",
      "type": "0x2",
      "effectiveGasPrice": "0xb35d12ad"
    },
    {
      "transactionHash": "0x6865914e50b42b0fec4be461b5bef30fe4a61a2aeede247bc42b31b1d0baa0dc",
      "transactionIndex": "0x3",
      "blockHash": "0xfcca579435a198cde4544d89e098d22595f85a0e33d01e9ffef517a6fe745f5a",
      "blockNumber": "0xd223e5",
      "from": "0x26aA9BB6f36f404aF102A53F327E2aCf92aaF451",
      "to": "0x60423e0B9FB597c35249C86fF0249dcA66C07292",
      "cumulativeGasUsed": "0x8794b",
      "gasUsed": "0x283a8",
      "contractAddress": null,
      "logs": [
        {
          "address": "0x60423e0B9FB597c35249C86fF0249dcA66C07292",
          "topics": [
            "0x8564fcb5cfd27fbe1e67f1f39f57adf7cb25eaeaf302379f358fe0686eb46688"
          ],
          "data": "0x00000000000000000000000000000000000000000000000000000000000000030000000000000000000000000000000000000000000000000000000000000040000000000000000000000000000000000000000000000000000000000000002c496e737469747574696f6e2000000000000000000000000000000000000000000000000000000000000000030000000000000000000000000000000000000000",
          "blockHash": "0xfcca579435a198cde4544d89e098d22595f85a0e33d01e9ffef517a6fe745f5a",
          "blockNumber": "0xd223e5",
          "transactionHash": "0x6865914e50b42b0fec4be461b5bef30fe4a61a2aeede247bc42b31b1d0baa0dc",
          "transactionIndex": "0x3",
          "logIndex": "0x2",
          "removed": false
        }
      ],
      "status": "0x1",
      "logsBloom": "0x00000000000000000000000000000000000000000000004000000000000000000000000000000000000000080000000000000000000000000000000000000000000000000000200000000000000000000000000000000000000000000000000000000000000000000000000000000000000000000000000000000000000000000000000000000000000000000000000000000000000000000000000000000000000000000000000000000000000000000000000000000000000000000000000000000000000000001000000000000000200000000000000000000000000000000000000000000000000000000000000000000000001000000000000000000000",
      "type": "0x2",
      "effectiveGasPrice": "0xb35d12ad"
    },
    {
      "transactionHash": "0xe800a1a8ffe3e80070846eb623d8b47a35b226ed47ed8a78d63ae29cc3594a82",
      "transactionIndex": "0x1",
      "blockHash": "0x5eb8116c121044ab2477db99a542f087082889e340c2084db75af3fbf3eed915",
      "blockNumber": "0xd223e6",
      "from": "0x26aA9BB6f36f404aF102A53F327E2aCf92aaF451",
      "to": "0x60423e0B9FB597c35249C86fF0249dcA66C07292",
      "cumulativeGasUsed": "0x32f23",
      "gasUsed": "0x283b4",
      "contractAddress": null,
      "logs": [
        {
          "address": "0x60423e0B9FB597c35249C86fF0249dcA66C07292",
          "topics": [
            "0x8564fcb5cfd27fbe1e67f1f39f57adf7cb25eaeaf302379f358fe0686eb46688"
          ],
          "data": "0x00000000000000000000000000000000000000000000000000000000000000040000000000000000000000000000000000000000000000000000000000000040000000000000000000000000000000000000000000000000000000000000002c496e737469747574696f6e2000000000000000000000000000000000000000000000000000000000000000040000000000000000000000000000000000000000",
          "blockHash": "0x5eb8116c121044ab2477db99a542f087082889e340c2084db75af3fbf3eed915",
          "blockNumber": "0xd223e6",
          "transactionHash": "0xe800a1a8ffe3e80070846eb623d8b47a35b226ed47ed8a78d63ae29cc3594a82",
          "transactionIndex": "0x1",
          "logIndex": "0x0",
          "removed": false
        }
      ],
      "status": "0x1",
      "logsBloom": "0x00000000000000000000000000000000000000000000004000000000000000000000000000000000000000080000000000000000000000000000000000000000000000000000200000000000000000000000000000000000000000000000000000000000000000000000000000000000000000000000000000000000000000000000000000000000000000000000000000000000000000000000000000000000000000000000000000000000000000000000000000000000000000000000000000000000000000001000000000000000200000000000000000000000000000000000000000000000000000000000000000000000001000000000000000000000",
      "type": "0x2",
      "effectiveGasPrice": "0xb35cae09"
    },
    {
      "transactionHash": "0x9410c85e449b325821ee7625b87440097ccc94cfe3fa521d082d97610245c87e",
      "transactionIndex": "0x2",
      "blockHash": "0x5eb8116c121044ab2477db99a542f087082889e340c2084db75af3fbf3eed915",
      "blockNumber": "0xd223e6",
      "from": "0x26aA9BB6f36f404aF102A53F327E2aCf92aaF451",
      "to": "0x60423e0B9FB597c35249C86fF0249dcA66C07292",
      "cumulativeGasUsed": "0x5b2d7",
      "gasUsed": "0x283b4",
      "contractAddress": null,
      "logs": [
        {
          "address": "0x60423e0B9FB597c35249C86fF0249dcA66C07292",
          "topics": [
            "0x8564fcb5cfd27fbe1e67f1f39f57adf7cb25eaeaf302379f358fe0686eb46688"
          ],
          "data": "0x00000000000000000000000000000000000000000000000000000000000000050000000000000000000000000000000000000000000000000000000000000040000000000000000000000000000000000000000000000000000000000000002c496e737469747574696f6e2000000000000000000000000000000000000000000000000000000000000000050000000000000000000000000000000000000000",
          "blockHash": "0x5eb8116c121044ab2477db99a542f087082889e340c2084db75af3fbf3eed915",
          "blockNumber": "0xd223e6",
          "transactionHash": "0x9410c85e449b325821ee7625b87440097ccc94cfe3fa521d082d97610245c87e",
          "transactionIndex": "0x2",
          "logIndex": "0x1",
          "removed": false
        }
      ],
      "status": "0x1",
      "logsBloom": "0x00000000000000000000000000000000000000000000004000000000000000000000000000000000000000080000000000000000000000000000000000000000000000000000200000000000000000000000000000000000000000000000000000000000000000000000000000000000000000000000000000000000000000000000000000000000000000000000000000000000000000000000000000000000000000000000000000000000000000000000000000000000000000000000000000000000000000001000000000000000200000000000000000000000000000000000000000000000000000000000000000000000001000000000000000000000",
      "type": "0x2",
      "effectiveGasPrice": "0xb35cae09"
    },
    {
      "transactionHash": "0xa7ecefe1ab4ef1065a637cc03602b6d0cf5934171fca514d15a8049f88f82a09",
      "transactionIndex": "0x3",
      "blockHash": "0x5eb8116c121044ab2477db99a542f087082889e340c2084db75af3fbf3eed915",
      "blockNumber": "0xd223e6",
      "from": "0x26aA9BB6f36f404aF102A53F327E2aCf92aaF451",
      "to": "0x60423e0B9FB597c35249C86fF0249dcA66C07292",
      "cumulativeGasUsed": "0x8e5b3",
      "gasUsed": "0x332dc",
      "contractAddress": null,
      "logs": [
        {
          "address": "0x60423e0B9FB597c35249C86fF0249dcA66C07292",
          "topics": [
            "0x1d01df2f27d43c539e43698d3850034aa4a290e2eb938fb45ef4631d4caea4b8"
          ],
          "data": "0x0000000000000000000000000000000000000000000000000000000000000001000000000000000000000000000000000000000000000000000000000000006000000000000000000000000000000000000000000000000000000000000003e8000000000000000000000000000000000000000000000000000000000000002850726f6a656374200000000000000000000000000000000000000000000000000000000000000001000000000000000000000000000000000000000000000000",
          "blockHash": "0x5eb8116c121044ab2477db99a542f087082889e340c2084db75af3fbf3eed915",
          "blockNumber": "0xd223e6",
          "transactionHash": "0xa7ecefe1ab4ef1065a637cc03602b6d0cf5934171fca514d15a8049f88f82a09",
          "transactionIndex": "0x3",
          "logIndex": "0x2",
          "removed": false
        }
      ],
      "status": "0x1",
      "logsBloom": "0x00000000000000000000000000000000000000000000000000000000000000000000000000000000000000080000000000000000000000000000000000000000000000000000000000000000000000000000000000000400000000000000000000000000000000000000000000000000000000000000000000000000000000000000000000000000000000000000000000000400000000000000000000000000000000000000000000000000000000000000000000000000000000000000200000000000000000001000000000000000200000000000000000000000000000000000000000000000000000000000000000000000000000000000000000000000",
      "type": "0x2",
      "effectiveGasPrice": "0xb35cae09"
    },
    {
      "transactionHash": "0xd2bd8d3e32ad1cc106b044da30ccdd9cf0ade4934738f4aa74835553e23231d0",
      "transactionIndex": "0x4",
      "blockHash": "0x5eb8116c121044ab2477db99a542f087082889e340c2084db75af3fbf3eed915",
      "blockNumber": "0xd223e6",
      "from": "0x26aA9BB6f36f404aF102A53F327E2aCf92aaF451",
      "to": "0x60423e0B9FB597c35249C86fF0249dcA66C07292",
      "cumulativeGasUsed": "0xc188f",
      "gasUsed": "0x332dc",
      "contractAddress": null,
      "logs": [
        {
          "address": "0x60423e0B9FB597c35249C86fF0249dcA66C07292",
          "topics": [
            "0x1d01df2f27d43c539e43698d3850034aa4a290e2eb938fb45ef4631d4caea4b8"
          ],
          "data": "0x0000000000000000000000000000000000000000000000000000000000000002000000000000000000000000000000000000000000000000000000000000006000000000000000000000000000000000000000000000000000000000000003e9000000000000000000000000000000000000000000000000000000000000002850726f6a656374200000000000000000000000000000000000000000000000000000000000000002000000000000000000000000000000000000000000000000",
          "blockHash": "0x5eb8116c121044ab2477db99a542f087082889e340c2084db75af3fbf3eed915",
          "blockNumber": "0xd223e6",
          "transactionHash": "0xd2bd8d3e32ad1cc106b044da30ccdd9cf0ade4934738f4aa74835553e23231d0",
          "transactionIndex": "0x4",
          "logIndex": "0x3",
          "removed": false
        }
      ],
      "status": "0x1",
      "logsBloom": "0x00000000000000000000000000000000000000000000000000000000000000000000000000000000000000080000000000000000000000000000000000000000000000000000000000000000000000000000000000000400000000000000000000000000000000000000000000000000000000000000000000000000000000000000000000000000000000000000000000000400000000000000000000000000000000000000000000000000000000000000000000000000000000000000200000000000000000001000000000000000200000000000000000000000000000000000000000000000000000000000000000000000000000000000000000000000",
      "type": "0x2",
      "effectiveGasPrice": "0xb35cae09"
    },
    {
      "transactionHash": "0x1ceb7eed810c30b77e5c02518a87b1f2e897d3155b2ca3a56146cf79319cfbba",
      "transactionIndex": "0x5",
      "blockHash": "0x5eb8116c121044ab2477db99a542f087082889e340c2084db75af3fbf3eed915",
      "blockNumber": "0xd223e6",
      "from": "0x26aA9BB6f36f404aF102A53F327E2aCf92aaF451",
      "to": "0x60423e0B9FB597c35249C86fF0249dcA66C07292",
      "cumulativeGasUsed": "0xf4b6b",
      "gasUsed": "0x332dc",
      "contractAddress": null,
      "logs": [
        {
          "address": "0x60423e0B9FB597c35249C86fF0249dcA66C07292",
          "topics": [
            "0x1d01df2f27d43c539e43698d3850034aa4a290e2eb938fb45ef4631d4caea4b8"
          ],
          "data": "0x0000000000000000000000000000000000000000000000000000000000000003000000000000000000000000000000000000000000000000000000000000006000000000000000000000000000000000000000000000000000000000000003ea000000000000000000000000000000000000000000000000000000000000002850726f6a656374200000000000000000000000000000000000000000000000000000000000000003000000000000000000000000000000000000000000000000",
          "blockHash": "0x5eb8116c121044ab2477db99a542f087082889e340c2084db75af3fbf3eed915",
          "blockNumber": "0xd223e6",
          "transactionHash": "0x1ceb7eed810c30b77e5c02518a87b1f2e897d3155b2ca3a56146cf79319cfbba",
          "transactionIndex": "0x5",
          "logIndex": "0x4",
          "removed": false
        }
      ],
      "status": "0x1",
      "logsBloom": "0x00000000000000000000000000000000000000000000000000000000000000000000000000000000000000080000000000000000000000000000000000000000000000000000000000000000000000000000000000000400000000000000000000000000000000000000000000000000000000000000000000000000000000000000000000000000000000000000000000000400000000000000000000000000000000000000000000000000000000000000000000000000000000000000200000000000000000001000000000000000200000000000000000000000000000000000000000000000000000000000000000000000000000000000000000000000",
      "type": "0x2",
      "effectiveGasPrice": "0xb35cae09"
    },
    {
      "transactionHash": "0x1b0f767e72e97e2a782289923d7ff388958148b14179eab49a42477c01961ce3",
      "transactionIndex": "0x6",
      "blockHash": "0x5eb8116c121044ab2477db99a542f087082889e340c2084db75af3fbf3eed915",
      "blockNumber": "0xd223e6",
      "from": "0x26aA9BB6f36f404aF102A53F327E2aCf92aaF451",
      "to": "0x60423e0B9FB597c35249C86fF0249dcA66C07292",
      "cumulativeGasUsed": "0x127e47",
      "gasUsed": "0x332dc",
      "contractAddress": null,
      "logs": [
        {
          "address": "0x60423e0B9FB597c35249C86fF0249dcA66C07292",
          "topics": [
            "0x1d01df2f27d43c539e43698d3850034aa4a290e2eb938fb45ef4631d4caea4b8"
          ],
          "data": "0x0000000000000000000000000000000000000000000000000000000000000004000000000000000000000000000000000000000000000000000000000000006000000000000000000000000000000000000000000000000000000000000003eb000000000000000000000000000000000000000000000000000000000000002850726f6a656374200000000000000000000000000000000000000000000000000000000000000004000000000000000000000000000000000000000000000000",
          "blockHash": "0x5eb8116c121044ab2477db99a542f087082889e340c2084db75af3fbf3eed915",
          "blockNumber": "0xd223e6",
          "transactionHash": "0x1b0f767e72e97e2a782289923d7ff388958148b14179eab49a42477c01961ce3",
          "transactionIndex": "0x6",
          "logIndex": "0x5",
          "removed": false
        }
      ],
      "status": "0x1",
      "logsBloom": "0x00000000000000000000000000000000000000000000000000000000000000000000000000000000000000080000000000000000000000000000000000000000000000000000000000000000000000000000000000000400000000000000000000000000000000000000000000000000000000000000000000000000000000000000000000000000000000000000000000000400000000000000000000000000000000000000000000000000000000000000000000000000000000000000200000000000000000001000000000000000200000000000000000000000000000000000000000000000000000000000000000000000000000000000000000000000",
      "type": "0x2",
      "effectiveGasPrice": "0xb35cae09"
    },
    {
      "transactionHash": "0x47342dce25ade3ee79585c1f1b74456928261abadb1a0da7d7e179512887d99f",
      "transactionIndex": "0x7",
      "blockHash": "0x5eb8116c121044ab2477db99a542f087082889e340c2084db75af3fbf3eed915",
      "blockNumber": "0xd223e6",
      "from": "0x26aA9BB6f36f404aF102A53F327E2aCf92aaF451",
      "to": "0x60423e0B9FB597c35249C86fF0249dcA66C07292",
      "cumulativeGasUsed": "0x15b123",
      "gasUsed": "0x332dc",
      "contractAddress": null,
      "logs": [
        {
          "address": "0x60423e0B9FB597c35249C86fF0249dcA66C07292",
          "topics": [
            "0x1d01df2f27d43c539e43698d3850034aa4a290e2eb938fb45ef4631d4caea4b8"
          ],
          "data": "0x0000000000000000000000000000000000000000000000000000000000000005000000000000000000000000000000000000000000000000000000000000006000000000000000000000000000000000000000000000000000000000000003ec000000000000000000000000000000000000000000000000000000000000002850726f6a656374200000000000000000000000000000000000000000000000000000000000000005000000000000000000000000000000000000000000000000",
          "blockHash": "0x5eb8116c121044ab2477db99a542f087082889e340c2084db75af3fbf3eed915",
          "blockNumber": "0xd223e6",
          "transactionHash": "0x47342dce25ade3ee79585c1f1b74456928261abadb1a0da7d7e179512887d99f",
          "transactionIndex": "0x7",
          "logIndex": "0x6",
          "removed": false
        }
      ],
      "status": "0x1",
      "logsBloom": "0x00000000000000000000000000000000000000000000000000000000000000000000000000000000000000080000000000000000000000000000000000000000000000000000000000000000000000000000000000000400000000000000000000000000000000000000000000000000000000000000000000000000000000000000000000000000000000000000000000000400000000000000000000000000000000000000000000000000000000000000000000000000000000000000200000000000000000001000000000000000200000000000000000000000000000000000000000000000000000000000000000000000000000000000000000000000",
      "type": "0x2",
      "effectiveGasPrice": "0xb35cae09"
    },
    {
      "transactionHash": "0x1f7a74d244394b9e07da55cbd43a88f599036d5aea4585dc1aaa0ac6683369e9",
      "transactionIndex": "0x1",
      "blockHash": "0x23811b38ae42f1aeeab12bc0dc9c0a4a8540a572ce5eb23d85b1bfdf95a8ac8f",
      "blockNumber": "0xd223e7",
      "from": "0x26aA9BB6f36f404aF102A53F327E2aCf92aaF451",
      "to": "0x60423e0B9FB597c35249C86fF0249dcA66C07292",
      "cumulativeGasUsed": "0x3403e",
      "gasUsed": "0x294cf",
      "contractAddress": null,
      "logs": [
        {
          "address": "0x60423e0B9FB597c35249C86fF0249dcA66C07292",
          "topics": [
            "0x902813d9d8cdb71697048d14e9e27d033cb3bba4db3b358c16e750ab5d796451"
          ],
          "data": "0x000000000000000000000000000000000000000000000000000000000000000100000000000000000000000000000000000000000000000000000000000000400000000000000000000000000000000000000000000000000000000000000026566f7465722000000000000000000000000000000000000000000000000000000000000000010000000000000000000000000000000000000000000000000000",
          "blockHash": "0x23811b38ae42f1aeeab12bc0dc9c0a4a8540a572ce5eb23d85b1bfdf95a8ac8f",
          "blockNumber": "0xd223e7",
          "transactionHash": "0x1f7a74d244394b9e07da55cbd43a88f599036d5aea4585dc1aaa0ac6683369e9",
          "transactionIndex": "0x1",
          "logIndex": "0x0",
          "removed": false
        }
      ],
      "status": "0x1",
      "logsBloom": "0x00000000000000000000000000000000000000000000000000000000000000000000000000000000000000080000000000000000000000000000000000000000000000000000000000000000000000000000000000000000000000000000000000000000000000000000000000000000000100000000000000000000000000000000000000000000000000000000004000000000000000000000010000000000000000000000000000000000000000000000000000000000000000000000000000000000000000001000000000000000200000000000000000000000000000000000000000000000000000000000000000000000000000000000000000000000",
      "type": "0x2",
      "effectiveGasPrice": "0xb35c6ba5"
    },
    {
      "transactionHash": "0xcd01bc0251b38cdef01d69e4272ff5a83977638b2fe7b0f4f2483afeda94dc7d",
      "transactionIndex": "0x2",
      "blockHash": "0x23811b38ae42f1aeeab12bc0dc9c0a4a8540a572ce5eb23d85b1bfdf95a8ac8f",
      "blockNumber": "0xd223e7",
      "from": "0x26aA9BB6f36f404aF102A53F327E2aCf92aaF451",
      "to": "0x60423e0B9FB597c35249C86fF0249dcA66C07292",
      "cumulativeGasUsed": "0x5d50d",
      "gasUsed": "0x294cf",
      "contractAddress": null,
      "logs": [
        {
          "address": "0x60423e0B9FB597c35249C86fF0249dcA66C07292",
          "topics": [
            "0x902813d9d8cdb71697048d14e9e27d033cb3bba4db3b358c16e750ab5d796451"
          ],
          "data": "0x000000000000000000000000000000000000000000000000000000000000000200000000000000000000000000000000000000000000000000000000000000400000000000000000000000000000000000000000000000000000000000000026566f7465722000000000000000000000000000000000000000000000000000000000000000020000000000000000000000000000000000000000000000000000",
          "blockHash": "0x23811b38ae42f1aeeab12bc0dc9c0a4a8540a572ce5eb23d85b1bfdf95a8ac8f",
          "blockNumber": "0xd223e7",
          "transactionHash": "0xcd01bc0251b38cdef01d69e4272ff5a83977638b2fe7b0f4f2483afeda94dc7d",
          "transactionIndex": "0x2",
          "logIndex": "0x1",
          "removed": false
        }
      ],
      "status": "0x1",
      "logsBloom": "0x00000000000000000000000000000000000000000000000000000000000000000000000000000000000000080000000000000000000000000000000000000000000000000000000000000000000000000000000000000000000000000000000000000000000000000000000000000000000100000000000000000000000000000000000000000000000000000000004000000000000000000000010000000000000000000000000000000000000000000000000000000000000000000000000000000000000000001000000000000000200000000000000000000000000000000000000000000000000000000000000000000000000000000000000000000000",
      "type": "0x2",
      "effectiveGasPrice": "0xb35c6ba5"
    },
    {
      "transactionHash": "0xcfc22a0138ea26a9be553f03e5c8914854f69c161b7fd96834186512f863f8c4",
      "transactionIndex": "0x3",
      "blockHash": "0x23811b38ae42f1aeeab12bc0dc9c0a4a8540a572ce5eb23d85b1bfdf95a8ac8f",
      "blockNumber": "0xd223e7",
      "from": "0x26aA9BB6f36f404aF102A53F327E2aCf92aaF451",
      "to": "0x60423e0B9FB597c35249C86fF0249dcA66C07292",
      "cumulativeGasUsed": "0x869dc",
      "gasUsed": "0x294cf",
      "contractAddress": null,
      "logs": [
        {
          "address": "0x60423e0B9FB597c35249C86fF0249dcA66C07292",
          "topics": [
            "0x902813d9d8cdb71697048d14e9e27d033cb3bba4db3b358c16e750ab5d796451"
          ],
          "data": "0x000000000000000000000000000000000000000000000000000000000000000300000000000000000000000000000000000000000000000000000000000000400000000000000000000000000000000000000000000000000000000000000026566f7465722000000000000000000000000000000000000000000000000000000000000000030000000000000000000000000000000000000000000000000000",
          "blockHash": "0x23811b38ae42f1aeeab12bc0dc9c0a4a8540a572ce5eb23d85b1bfdf95a8ac8f",
          "blockNumber": "0xd223e7",
          "transactionHash": "0xcfc22a0138ea26a9be553f03e5c8914854f69c161b7fd96834186512f863f8c4",
          "transactionIndex": "0x3",
          "logIndex": "0x2",
          "removed": false
        }
      ],
      "status": "0x1",
      "logsBloom": "0x00000000000000000000000000000000000000000000000000000000000000000000000000000000000000080000000000000000000000000000000000000000000000000000000000000000000000000000000000000000000000000000000000000000000000000000000000000000000100000000000000000000000000000000000000000000000000000000004000000000000000000000010000000000000000000000000000000000000000000000000000000000000000000000000000000000000000001000000000000000200000000000000000000000000000000000000000000000000000000000000000000000000000000000000000000000",
      "type": "0x2",
      "effectiveGasPrice": "0xb35c6ba5"
    },
    {
      "transactionHash": "0xfafa558452cae20c428aed80459ae5d13cf25590533225023622bdb27d8321b1",
      "transactionIndex": "0x1",
      "blockHash": "0x209ac719fb1e6293a005fe2fb4bc0d8a59316e30dfb3a26653e3ad25a17eee53",
      "blockNumber": "0xd223e8",
      "from": "0x26aA9BB6f36f404aF102A53F327E2aCf92aaF451",
      "to": "0x60423e0B9FB597c35249C86fF0249dcA66C07292",
      "cumulativeGasUsed": "0x360f6",
      "gasUsed": "0x294c3",
      "contractAddress": null,
      "logs": [
        {
          "address": "0x60423e0B9FB597c35249C86fF0249dcA66C07292",
          "topics": [
            "0x902813d9d8cdb71697048d14e9e27d033cb3bba4db3b358c16e750ab5d796451"
          ],
          "data": "0x000000000000000000000000000000000000000000000000000000000000000400000000000000000000000000000000000000000000000000000000000000400000000000000000000000000000000000000000000000000000000000000026566f7465722000000000000000000000000000000000000000000000000000000000000000040000000000000000000000000000000000000000000000000000",
          "blockHash": "0x209ac719fb1e6293a005fe2fb4bc0d8a59316e30dfb3a26653e3ad25a17eee53",
          "blockNumber": "0xd223e8",
          "transactionHash": "0xfafa558452cae20c428aed80459ae5d13cf25590533225023622bdb27d8321b1",
          "transactionIndex": "0x1",
          "logIndex": "0x0",
          "removed": false
        }
      ],
      "status": "0x1",
      "logsBloom": "0x00000000000000000000000000000000000000000000000000000000000000000000000000000000000000080000000000000000000000000000000000000000000000000000000000000000000000000000000000000000000000000000000000000000000000000000000000000000000100000000000000000000000000000000000000000000000000000000004000000000000000000000010000000000000000000000000000000000000000000000000000000000000000000000000000000000000000001000000000000000200000000000000000000000000000000000000000000000000000000000000000000000000000000000000000000000",
      "type": "0x2",
      "effectiveGasPrice": "0xb35c36b2"
    },
    {
      "transactionHash": "0x4ae1c3c9f7d1e55260ea90011b453665bd893b10e0184cd93802456b23b36564",
      "transactionIndex": "0x2",
      "blockHash": "0x209ac719fb1e6293a005fe2fb4bc0d8a59316e30dfb3a26653e3ad25a17eee53",
      "blockNumber": "0xd223e8",
      "from": "0x26aA9BB6f36f404aF102A53F327E2aCf92aaF451",
      "to": "0x60423e0B9FB597c35249C86fF0249dcA66C07292",
      "cumulativeGasUsed": "0x5f5c5",
      "gasUsed": "0x294cf",
      "contractAddress": null,
      "logs": [
        {
          "address": "0x60423e0B9FB597c35249C86fF0249dcA66C07292",
          "topics": [
            "0x902813d9d8cdb71697048d14e9e27d033cb3bba4db3b358c16e750ab5d796451"
          ],
          "data": "0x000000000000000000000000000000000000000000000000000000000000000500000000000000000000000000000000000000000000000000000000000000400000000000000000000000000000000000000000000000000000000000000026566f7465722000000000000000000000000000000000000000000000000000000000000000050000000000000000000000000000000000000000000000000000",
          "blockHash": "0x209ac719fb1e6293a005fe2fb4bc0d8a59316e30dfb3a26653e3ad25a17eee53",
          "blockNumber": "0xd223e8",
          "transactionHash": "0x4ae1c3c9f7d1e55260ea90011b453665bd893b10e0184cd93802456b23b36564",
          "transactionIndex": "0x2",
          "logIndex": "0x1",
          "removed": false
        }
      ],
      "status": "0x1",
      "logsBloom": "0x00000000000000000000000000000000000000000000000000000000000000000000000000000000000000080000000000000000000000000000000000000000000000000000000000000000000000000000000000000000000000000000000000000000000000000000000000000000000100000000000000000000000000000000000000000000000000000000004000000000000000000000010000000000000000000000000000000000000000000000000000000000000000000000000000000000000000001000000000000000200000000000000000000000000000000000000000000000000000000000000000000000000000000000000000000000",
      "type": "0x2",
      "effectiveGasPrice": "0xb35c36b2"
    }
  ],
  "libraries": [],
  "pending": [],
  "returns": {},
  "timestamp": 1723311796,
  "chain": 84532,
  "multi": false,
  "commit": "d6107bf"
}