{
  "transactions": [
    {
      "hash": "0x1e00004039a89e31fa840ae34bac757bdc96a52c78a970b4be14e5c3bf26c383",
      "transactionType": "CALL",
      "contractName": null,
      "contractAddress": "0x7cA95E87F3A95f4689C6b860CA259A68A5D4c5D7",
      "function": "createInstitution(string,address)",
      "arguments": [
        "\"Institution \\0\\0\\0\\0\\0\\0\\0\\0\\0\\0\\0\\0\\0\\0\\0\\0\\0\\0\\0\\0\\0\\0\\0\\0\\0\\0\\0\\0\\0\\0\\0\\u{1}\"",
        "0x7E5F4552091A69125d5DfCb7b8C2659029395Bdf"
      ],
      "transaction": {
        "type": "0x02",
        "from": "0x26aa9bb6f36f404af102a53f327e2acf92aaf451",
        "to": "0x7ca95e87f3a95f4689c6b860ca259a68a5d4c5d7",
        "gas": "0x3d560",
        "value": "0x0",
        "data": "0xe748f56800000000000000000000000000000000000000000000000000000000000000400000000000000000000000007e5f4552091a69125d5dfcb7b8c2659029395bdf000000000000000000000000000000000000000000000000000000000000002c496e737469747574696f6e2000000000000000000000000000000000000000000000000000000000000000010000000000000000000000000000000000000000",
        "nonce": "0x6e",
        "accessList": []
      },
      "additionalContracts": [],
      "isFixedGasLimit": false
    },
    {
      "hash": "0x84da190a7b8cbf7434925439ede8a70b49b31188efeb314eee2cc56993ce4d6c",
      "transactionType": "CALL",
      "contractName": null,
      "contractAddress": "0x7cA95E87F3A95f4689C6b860CA259A68A5D4c5D7",
      "function": "createInstitution(string,address)",
      "arguments": [
        "\"Institution \\0\\0\\0\\0\\0\\0\\0\\0\\0\\0\\0\\0\\0\\0\\0\\0\\0\\0\\0\\0\\0\\0\\0\\0\\0\\0\\0\\0\\0\\0\\0\\u{2}\"",
        "0x2B5AD5c4795c026514f8317c7a215E218DcCD6cF"
      ],
      "transaction": {
        "type": "0x02",
        "from": "0x26aa9bb6f36f404af102a53f327e2acf92aaf451",
        "to": "0x7ca95e87f3a95f4689c6b860ca259a68a5d4c5d7",
        "gas": "0x3791d",
        "value": "0x0",
        "data": "0xe748f56800000000000000000000000000000000000000000000000000000000000000400000000000000000000000002b5ad5c4795c026514f8317c7a215e218dccd6cf000000000000000000000000000000000000000000000000000000000000002c496e737469747574696f6e2000000000000000000000000000000000000000000000000000000000000000020000000000000000000000000000000000000000",
        "nonce": "0x6f",
        "accessList": []
      },
      "additionalContracts": [],
      "isFixedGasLimit": false
    },
    {
      "hash": "0xc54d36b2da80deb37490e290f038f376c361fda59530cef2a92233f73b276ac5",
      "transactionType": "CALL",
      "contractName": null,
      "contractAddress": "0x7cA95E87F3A95f4689C6b860CA259A68A5D4c5D7",
      "function": "createInstitution(string,address)",
      "arguments": [
        "\"Institution \\0\\0\\0\\0\\0\\0\\0\\0\\0\\0\\0\\0\\0\\0\\0\\0\\0\\0\\0\\0\\0\\0\\0\\0\\0\\0\\0\\0\\0\\0\\0\\u{3}\"",
        "0x6813Eb9362372EEF6200f3b1dbC3f819671cBA69"
      ],
      "transaction": {
        "type": "0x02",
        "from": "0x26aa9bb6f36f404af102a53f327e2acf92aaf451",
        "to": "0x7ca95e87f3a95f4689c6b860ca259a68a5d4c5d7",
        "gas": "0x3790c",
        "value": "0x0",
        "data": "0xe748f56800000000000000000000000000000000000000000000000000000000000000400000000000000000000000006813eb9362372eef6200f3b1dbc3f819671cba69000000000000000000000000000000000000000000000000000000000000002c496e737469747574696f6e2000000000000000000000000000000000000000000000000000000000000000030000000000000000000000000000000000000000",
        "nonce": "0x70",
        "accessList": []
      },
      "additionalContracts": [],
      "isFixedGasLimit": false
    },
    {
      "hash": "0x67a58701494972534f89a515fae8b4dd8e5e1b0973856a09bac68af24286a683",
      "transactionType": "CALL",
      "contractName": null,
      "contractAddress": "0x7cA95E87F3A95f4689C6b860CA259A68A5D4c5D7",
      "function": "createInstitution(string,address)",
      "arguments": [
        "\"Institution \\0\\0\\0\\0\\0\\0\\0\\0\\0\\0\\0\\0\\0\\0\\0\\0\\0\\0\\0\\0\\0\\0\\0\\0\\0\\0\\0\\0\\0\\0\\0\\u{4}\"",
        "0x1efF47bc3a10a45D4B230B5d10E37751FE6AA718"
      ],
      "transaction": {
        "type": "0x02",
        "from": "0x26aa9bb6f36f404af102a53f327e2acf92aaf451",
        "to": "0x7ca95e87f3a95f4689c6b860ca259a68a5d4c5d7",
        "gas": "0x3791d",
        "value": "0x0",
        "data": "0xe748f56800000000000000000000000000000000000000000000000000000000000000400000000000000000000000001eff47bc3a10a45d4b230b5d10e37751fe6aa718000000000000000000000000000000000000000000000000000000000000002c496e737469747574696f6e2000000000000000000000000000000000000000000000000000000000000000040000000000000000000000000000000000000000",
        "nonce": "0x71",
        "accessList": []
      },
      "additionalContracts": [],
      "isFixedGasLimit": false
    },
    {
      "hash": "0x8260c43f54c8e60042de5aa61bbb4958e575b52b728eb4e32d85ef18dc632749",
      "transactionType": "CALL",
      "contractName": null,
      "contractAddress": "0x7cA95E87F3A95f4689C6b860CA259A68A5D4c5D7",
      "function": "createInstitution(string,address)",
      "arguments": [
        "\"Institution \\0\\0\\0\\0\\0\\0\\0\\0\\0\\0\\0\\0\\0\\0\\0\\0\\0\\0\\0\\0\\0\\0\\0\\0\\0\\0\\0\\0\\0\\0\\0\\u{5}\"",
        "0xe1AB8145F7E55DC933d51a18c793F901A3A0b276"
      ],
      "transaction": {
        "type": "0x02",
        "from": "0x26aa9bb6f36f404af102a53f327e2acf92aaf451",
        "to": "0x7ca95e87f3a95f4689c6b860ca259a68a5d4c5d7",
        "gas": "0x3791d",
        "value": "0x0",
        "data": "0xe748f5680000000000000000000000000000000000000000000000000000000000000040000000000000000000000000e1ab8145f7e55dc933d51a18c793f901a3a0b276000000000000000000000000000000000000000000000000000000000000002c496e737469747574696f6e2000000000000000000000000000000000000000000000000000000000000000050000000000000000000000000000000000000000",
        "nonce": "0x72",
        "accessList": []
      },
      "additionalContracts": [],
      "isFixedGasLimit": false
    },
    {
      "hash": "0x716142f8da6f47682429a1ecc5aa48cd8e26f6cbe0657df1bb9c27f62735fd02",
      "transactionType": "CALL",
      "contractName": null,
      "contractAddress": "0x7cA95E87F3A95f4689C6b860CA259A68A5D4c5D7",
      "function": "createProject(uint256,address,uint256,string)",
      "arguments": [
        "100",
        "0xE57bFE9F44b819898F47BF37E5AF72a0783e1141",
        "1000",
        "\"Project \\0\\0\\0\\0\\0\\0\\0\\0\\0\\0\\0\\0\\0\\0\\0\\0\\0\\0\\0\\0\\0\\0\\0\\0\\0\\0\\0\\0\\0\\0\\0\\u{1}\""
      ],
      "transaction": {
        "type": "0x02",
        "from": "0x26aa9bb6f36f404af102a53f327e2acf92aaf451",
        "to": "0x7ca95e87f3a95f4689c6b860ca259a68a5d4c5d7",
        "gas": "0x46b0b",
        "value": "0x0",
        "data": "0x71c79f6b0000000000000000000000000000000000000000000000000000000000000064000000000000000000000000e57bfe9f44b819898f47bf37e5af72a0783e114100000000000000000000000000000000000000000000000000000000000003e80000000000000000000000000000000000000000000000000000000000000080000000000000000000000000000000000000000000000000000000000000002850726f6a656374200000000000000000000000000000000000000000000000000000000000000001000000000000000000000000000000000000000000000000",
        "nonce": "0x73",
        "accessList": []
      },
      "additionalContracts": [],
      "isFixedGasLimit": false
    },
    {
      "hash": "0x2352ceb8186035d173cbc89e17022f5a62e8f72ff2297a8d8ca98ea96d0dab14",
      "transactionType": "CALL",
      "contractName": null,
      "contractAddress": "0x7cA95E87F3A95f4689C6b860CA259A68A5D4c5D7",
      "function": "createProject(uint256,address,uint256,string)",
      "arguments": [
        "110",
        "0xd41c057fd1c78805AAC12B0A94a405c0461A6FBb",
        "1001",
        "\"Project \\0\\0\\0\\0\\0\\0\\0\\0\\0\\0\\0\\0\\0\\0\\0\\0\\0\\0\\0\\0\\0\\0\\0\\0\\0\\0\\0\\0\\0\\0\\0\\u{2}\""
      ],
      "transaction": {
        "type": "0x02",
        "from": "0x26aa9bb6f36f404af102a53f327e2acf92aaf451",
        "to": "0x7ca95e87f3a95f4689c6b860ca259a68a5d4c5d7",
        "gas": "0x46b0b",
        "value": "0x0",
        "data": "0x71c79f6b000000000000000000000000000000000000000000000000000000000000006e000000000000000000000000d41c057fd1c78805aac12b0a94a405c0461a6fbb00000000000000000000000000000000000000000000000000000000000003e90000000000000000000000000000000000000000000000000000000000000080000000000000000000000000000000000000000000000000000000000000002850726f6a656374200000000000000000000000000000000000000000000000000000000000000002000000000000000000000000000000000000000000000000",
        "nonce": "0x74",
        "accessList": []
      },
      "additionalContracts": [],
      "isFixedGasLimit": false
    },
    {
      "hash": "0xdfb58ccad33169b7cb26b9a5bc71d74fe10c42d2684cc31075d84cbf86ff8dd1",
      "transactionType": "CALL",
      "contractName": null,
      "contractAddress": "0x7cA95E87F3A95f4689C6b860CA259A68A5D4c5D7",
      "function": "createProject(uint256,address,uint256,string)",
      "arguments": [
        "120",
        "0xF1F6619B38A98d6De0800F1DefC0a6399eB6d30C",
        "1002",
        "\"Project \\0\\0\\0\\0\\0\\0\\0\\0\\0\\0\\0\\0\\0\\0\\0\\0\\0\\0\\0\\0\\0\\0\\0\\0\\0\\0\\0\\0\\0\\0\\0\\u{3}\""
      ],
      "transaction": {
        "type": "0x02",
        "from": "0x26aa9bb6f36f404af102a53f327e2acf92aaf451",
        "to": "0x7ca95e87f3a95f4689c6b860ca259a68a5d4c5d7",
        "gas": "0x46b0b",
        "value": "0x0",
        "data": "0x71c79f6b0000000000000000000000000000000000000000000000000000000000000078000000000000000000000000f1f6619b38a98d6de0800f1defc0a6399eb6d30c00000000000000000000000000000000000000000000000000000000000003ea0000000000000000000000000000000000000000000000000000000000000080000000000000000000000000000000000000000000000000000000000000002850726f6a656374200000000000000000000000000000000000000000000000000000000000000003000000000000000000000000000000000000000000000000",
        "nonce": "0x75",
        "accessList": []
      },
      "additionalContracts": [],
      "isFixedGasLimit": false
    },
    {
      "hash": "0xf8790425f69d60152e5b77973d3574c1866d8b89336bde61823baa2821aea06e",
      "transactionType": "CALL",
      "contractName": null,
      "contractAddress": "0x7cA95E87F3A95f4689C6b860CA259A68A5D4c5D7",
      "function": "createProject(uint256,address,uint256,string)",
      "arguments": [
        "130",
        "0xF7Edc8FA1eCc32967F827C9043FcAe6ba73afA5c",
        "1003",
        "\"Project \\0\\0\\0\\0\\0\\0\\0\\0\\0\\0\\0\\0\\0\\0\\0\\0\\0\\0\\0\\0\\0\\0\\0\\0\\0\\0\\0\\0\\0\\0\\0\\u{4}\""
      ],
      "transaction": {
        "type": "0x02",
        "from": "0x26aa9bb6f36f404af102a53f327e2acf92aaf451",
        "to": "0x7ca95e87f3a95f4689c6b860ca259a68a5d4c5d7",
        "gas": "0x46b0b",
        "value": "0x0",
        "data": "0x71c79f6b0000000000000000000000000000000000000000000000000000000000000082000000000000000000000000f7edc8fa1ecc32967f827c9043fcae6ba73afa5c00000000000000000000000000000000000000000000000000000000000003eb0000000000000000000000000000000000000000000000000000000000000080000000000000000000000000000000000000000000000000000000000000002850726f6a656374200000000000000000000000000000000000000000000000000000000000000004000000000000000000000000000000000000000000000000",
        "nonce": "0x76",
        "accessList": []
      },
      "additionalContracts": [],
      "isFixedGasLimit": false
    },
    {
      "hash": "0x7efa9cd645b9197b5a8eff017cc5c0cade6a2a09b82b88f04b4c0b82848a727d",
      "transactionType": "CALL",
      "contractName": null,
      "contractAddress": "0x7cA95E87F3A95f4689C6b860CA259A68A5D4c5D7",
      "function": "createProject(uint256,address,uint256,string)",
      "arguments": [
        "140",
        "0x4CCeBa2d7D2B4fdcE4304d3e09a1fea9fbEb1528",
        "1004",
        "\"Project \\0\\0\\0\\0\\0\\0\\0\\0\\0\\0\\0\\0\\0\\0\\0\\0\\0\\0\\0\\0\\0\\0\\0\\0\\0\\0\\0\\0\\0\\0\\0\\u{5}\""
      ],
      "transaction": {
        "type": "0x02",
        "from": "0x26aa9bb6f36f404af102a53f327e2acf92aaf451",
        "to": "0x7ca95e87f3a95f4689c6b860ca259a68a5d4c5d7",
        "gas": "0x46b0b",
        "value": "0x0",
        "data": "0x71c79f6b000000000000000000000000000000000000000000000000000000000000008c0000000000000000000000004cceba2d7d2b4fdce4304d3e09a1fea9fbeb152800000000000000000000000000000000000000000000000000000000000003ec0000000000000000000000000000000000000000000000000000000000000080000000000000000000000000000000000000000000000000000000000000002850726f6a656374200000000000000000000000000000000000000000000000000000000000000005000000000000000000000000000000000000000000000000",
        "nonce": "0x77",
        "accessList": []
      },
      "additionalContracts": [],
      "isFixedGasLimit": false
    },
    {
      "hash": "0x3539370bf25d65afced2c6258ff053a095b491a2ce126994bfc6816754057dfc",
      "transactionType": "CALL",
      "contractName": null,
      "contractAddress": "0x7cA95E87F3A95f4689C6b860CA259A68A5D4c5D7",
      "function": "createVoter(string,address)",
      "arguments": [
        "\"Voter \\0\\0\\0\\0\\0\\0\\0\\0\\0\\0\\0\\0\\0\\0\\0\\0\\0\\0\\0\\0\\0\\0\\0\\0\\0\\0\\0\\0\\0\\0\\0\\u{1}\"",
        "0x3DA8D322CB2435dA26E9C9fEE670f9fB7Fe74E49"
      ],
      "transaction": {
        "type": "0x02",
        "from": "0x26aa9bb6f36f404af102a53f327e2acf92aaf451",
        "to": "0x7ca95e87f3a95f4689c6b860ca259a68a5d4c5d7",
        "gas": "0x390bc",
        "value": "0x0",
        "data": "0x2a4be2ad00000000000000000000000000000000000000000000000000000000000000400000000000000000000000003da8d322cb2435da26e9c9fee670f9fb7fe74e490000000000000000000000000000000000000000000000000000000000000026566f7465722000000000000000000000000000000000000000000000000000000000000000010000000000000000000000000000000000000000000000000000",
        "nonce": "0x78",
        "accessList": []
      },
      "additionalContracts": [],
      "isFixedGasLimit": false
    },
    {
      "hash": "0x869c7f35e7f199efc13573226da79f89490744e2c94b7bc688278d95e3b46357",
      "transactionType": "CALL",
      "contractName": null,
      "contractAddress": "0x7cA95E87F3A95f4689C6b860CA259A68A5D4c5D7",
      "function": "createVoter(string,address)",
      "arguments": [
        "\"Voter \\0\\0\\0\\0\\0\\0\\0\\0\\0\\0\\0\\0\\0\\0\\0\\0\\0\\0\\0\\0\\0\\0\\0\\0\\0\\0\\0\\0\\0\\0\\0\\u{2}\"",
        "0xDbc23AE43a150ff8884B02Cea117b22D1c3b9796"
      ],
      "transaction": {
        "type": "0x02",
        "from": "0x26aa9bb6f36f404af102a53f327e2acf92aaf451",
        "to": "0x7ca95e87f3a95f4689c6b860ca259a68a5d4c5d7",
        "gas": "0x390bc",
        "value": "0x0",
        "data": "0x2a4be2ad0000000000000000000000000000000000000000000000000000000000000040000000000000000000000000dbc23ae43a150ff8884b02cea117b22d1c3b97960000000000000000000000000000000000000000000000000000000000000026566f7465722000000000000000000000000000000000000000000000000000000000000000020000000000000000000000000000000000000000000000000000",
        "nonce": "0x79",
        "accessList": []
      },
      "additionalContracts": [],
      "isFixedGasLimit": false
    },
    {
      "hash": "0xa2de2426ae5b924aa6693b59b59727498963a4f00a1466ca1d9f7fc6949f2826",
      "transactionType": "CALL",
      "contractName": null,
      "contractAddress": "0x7cA95E87F3A95f4689C6b860CA259A68A5D4c5D7",
      "function": "createVoter(string,address)",
      "arguments": [
        "\"Voter \\0\\0\\0\\0\\0\\0\\0\\0\\0\\0\\0\\0\\0\\0\\0\\0\\0\\0\\0\\0\\0\\0\\0\\0\\0\\0\\0\\0\\0\\0\\0\\u{3}\"",
        "0x68E527780872cda0216Ba0d8fBD58b67a5D5e351"
      ],
      "transaction": {
        "type": "0x02",
        "from": "0x26aa9bb6f36f404af102a53f327e2acf92aaf451",
        "to": "0x7ca95e87f3a95f4689c6b860ca259a68a5d4c5d7",
        "gas": "0x390bc",
        "value": "0x0",
        "data": "0x2a4be2ad000000000000000000000000000000000000000000000000000000000000004000000000000000000000000068e527780872cda0216ba0d8fbd58b67a5d5e3510000000000000000000000000000000000000000000000000000000000000026566f7465722000000000000000000000000000000000000000000000000000000000000000030000000000000000000000000000000000000000000000000000",
        "nonce": "0x7a",
        "accessList": []
      },
      "additionalContracts": [],
      "isFixedGasLimit": false
    },
    {
      "hash": "0x519e9e06f709785aa84b6998681e4372a7b53322d673d347e3ec3b1a94d815fb",
      "transactionType": "CALL",
      "contractName": null,
      "contractAddress": "0x7cA95E87F3A95f4689C6b860CA259A68A5D4c5D7",
      "function": "createVoter(string,address)",
      "arguments": [
        "\"Voter \\0\\0\\0\\0\\0\\0\\0\\0\\0\\0\\0\\0\\0\\0\\0\\0\\0\\0\\0\\0\\0\\0\\0\\0\\0\\0\\0\\0\\0\\0\\0\\u{4}\"",
        "0x5A83529ff76Ac5723A87008c4D9B436AD4CA7d28"
      ],
      "transaction": {
        "type": "0x02",
        "from": "0x26aa9bb6f36f404af102a53f327e2acf92aaf451",
        "to": "0x7ca95e87f3a95f4689c6b860ca259a68a5d4c5d7",
        "gas": "0x3c65c",
        "value": "0x0",
        "data": "0x2a4be2ad00000000000000000000000000000000000000000000000000000000000000400000000000000000000000005a83529ff76ac5723a87008c4d9b436ad4ca7d280000000000000000000000000000000000000000000000000000000000000026566f7465722000000000000000000000000000000000000000000000000000000000000000040000000000000000000000000000000000000000000000000000",
        "nonce": "0x7b",
        "accessList": []
      },
      "additionalContracts": [],
      "isFixedGasLimit": false
    },
    {
      "hash": "0x5a5f568f96c0714ae355b5285c5b74ef0102b8dfb50841c8312dd1200fdaaea3",
      "transactionType": "CALL",
      "contractName": null,
      "contractAddress": "0x7cA95E87F3A95f4689C6b860CA259A68A5D4c5D7",
      "function": "createVoter(string,address)",
      "arguments": [
        "\"Voter \\0\\0\\0\\0\\0\\0\\0\\0\\0\\0\\0\\0\\0\\0\\0\\0\\0\\0\\0\\0\\0\\0\\0\\0\\0\\0\\0\\0\\0\\0\\0\\u{5}\"",
        "0x8735015837bD10e05d9cf5EA43A2486Bf4Be156F"
      ],
      "transaction": {
        "type": "0x02",
        "from": "0x26aa9bb6f36f404af102a53f327e2acf92aaf451",
        "to": "0x7ca95e87f3a95f4689c6b860ca259a68a5d4c5d7",
        "gas": "0x390bc",
        "value": "0x0",
        "data": "0x2a4be2ad00000000000000000000000000000000000000000000000000000000000000400000000000000000000000008735015837bd10e05d9cf5ea43a2486bf4be156f0000000000000000000000000000000000000000000000000000000000000026566f7465722000000000000000000000000000000000000000000000000000000000000000050000000000000000000000000000000000000000000000000000",
        "nonce": "0x7c",
        "accessList": []
      },
      "additionalContracts": [],
      "isFixedGasLimit": false
    }
  ],
  "receipts": [
    {
      "transactionHash": "0x1e00004039a89e31fa840ae34bac757bdc96a52c78a970b4be14e5c3bf26c383",
      "transactionIndex": "0x1",
      "blockHash": "0xc28bd37da02c7e960a98281203559329dd166eb2c3b93f96563630e5685532d3",
      "blockNumber": "0xd25d07",
      "from": "0x26aA9BB6f36f404aF102A53F327E2aCf92aaF451",
      "to": "0x7cA95E87F3A95f4689C6b860CA259A68A5D4c5D7",
      "cumulativeGasUsed": "0x371d7",
      "gasUsed": "0x2c680",
      "contractAddress": null,
      "logs": [
        {
          "address": "0x7cA95E87F3A95f4689C6b860CA259A68A5D4c5D7",
          "topics": [
            "0x8564fcb5cfd27fbe1e67f1f39f57adf7cb25eaeaf302379f358fe0686eb46688"
          ],
          "data": "0x00000000000000000000000000000000000000000000000000000000000000010000000000000000000000000000000000000000000000000000000000000040000000000000000000000000000000000000000000000000000000000000002c496e737469747574696f6e2000000000000000000000000000000000000000000000000000000000000000010000000000000000000000000000000000000000",
          "blockHash": "0xc28bd37da02c7e960a98281203559329dd166eb2c3b93f96563630e5685532d3",
          "blockNumber": "0xd25d07",
          "transactionHash": "0x1e00004039a89e31fa840ae34bac757bdc96a52c78a970b4be14e5c3bf26c383",
          "transactionIndex": "0x1",
          "logIndex": "0x0",
          "removed": false
        }
      ],
      "status": "0x1",
      "logsBloom": "0x00000000000000800000000000000000000000000000004000000000000000000000000000000000000000000000000000000000000000000000000000000000000000000000200000000000000000000000000000000000000000000000000000000000000000008000000000000000000000000000000000000000000000000000000000000000000000000000000000000000000000000000000000000000000000000000000000000000000000000000000000000000000000000000000020000000000000000000000000000000000000000000000000000000000000000000000000000000000000000000000000000000001000000000000000000000",
      "type": "0x2",
      "effectiveGasPrice": "0xb35a8fd9"
    },
    {
      "transactionHash": "0x84da190a7b8cbf7434925439ede8a70b49b31188efeb314eee2cc56993ce4d6c",
      "transactionIndex": "0x1",
      "blockHash": "0xb76acebd25f5a537adb9fe1cbd4d089053dccba6cb1ae440933fe985115f9be7",
      "blockNumber": "0xd25d08",
      "from": "0x26aA9BB6f36f404aF102A53F327E2aCf92aaF451",
      "to": "0x7cA95E87F3A95f4689C6b860CA259A68A5D4c5D7",
      "cumulativeGasUsed": "0x32f0b",
      "gasUsed": "0x283b4",
      "contractAddress": null,
      "logs": [
        {
          "address": "0x7cA95E87F3A95f4689C6b860CA259A68A5D4c5D7",
          "topics": [
            "0x8564fcb5cfd27fbe1e67f1f39f57adf7cb25eaeaf302379f358fe0686eb46688"
          ],
          "data": "0x00000000000000000000000000000000000000000000000000000000000000020000000000000000000000000000000000000000000000000000000000000040000000000000000000000000000000000000000000000000000000000000002c496e737469747574696f6e2000000000000000000000000000000000000000000000000000000000000000020000000000000000000000000000000000000000",
          "blockHash": "0xb76acebd25f5a537adb9fe1cbd4d089053dccba6cb1ae440933fe985115f9be7",
          "blockNumber": "0xd25d08",
          "transactionHash": "0x84da190a7b8cbf7434925439ede8a70b49b31188efeb314eee2cc56993ce4d6c",
          "transactionIndex": "0x1",
          "logIndex": "0x0",
          "removed": false
        }
      ],
      "status": "0x1",
      "logsBloom": "0x00000000000000800000000000000000000000000000004000000000000000000000000000000000000000000000000000000000000000000000000000000000000000000000200000000000000000000000000000000000000000000000000000000000000000008000000000000000000000000000000000000000000000000000000000000000000000000000000000000000000000000000000000000000000000000000000000000000000000000000000000000000000000000000000020000000000000000000000000000000000000000000000000000000000000000000000000000000000000000000000000000000001000000000000000000000",
      "type": "0x2",
      "effectiveGasPrice": "0xb35a3e57"
    },
    {
      "transactionHash": "0xc54d36b2da80deb37490e290f038f376c361fda59530cef2a92233f73b276ac5",
      "transactionIndex": "0x2",
      "blockHash": "0xb76acebd25f5a537adb9fe1cbd4d089053dccba6cb1ae440933fe985115f9be7",
      "blockNumber": "0xd25d08",
      "from": "0x26aA9BB6f36f404aF102A53F327E2aCf92aaF451",
      "to": "0x7cA95E87F3A95f4689C6b860CA259A68A5D4c5D7",
      "cumulativeGasUsed": "0x5b2b3",
      "gasUsed": "0x283a8",
      "contractAddress": null,
      "logs": [
        {
          "address": "0x7cA95E87F3A95f4689C6b860CA259A68A5D4c5D7",
          "topics": [
            "0x8564fcb5cfd27fbe1e67f1f39f57adf7cb25eaeaf302379f358fe0686eb46688"
          ],
          "data": "0x00000000000000000000000000000000000000000000000000000000000000030000000000000000000000000000000000000000000000000000000000000040000000000000000000000000000000000000000000000000000000000000002c496e737469747574696f6e2000000000000000000000000000000000000000000000000000000000000000030000000000000000000000000000000000000000",
          "blockHash": "0xb76acebd25f5a537adb9fe1cbd4d089053dccba6cb1ae440933fe985115f9be7",
          "blockNumber": "0xd25d08",
          "transactionHash": "0xc54d36b2da80deb37490e290f038f376c361fda59530cef2a92233f73b276ac5",
          "transactionIndex": "0x2",
          "logIndex": "0x1",
          "removed": false
        }
      ],
      "status": "0x1",
      "logsBloom": "0x00000000000000800000000000000000000000000000004000000000000000000000000000000000000000000000000000000000000000000000000000000000000000000000200000000000000000000000000000000000000000000000000000000000000000008000000000000000000000000000000000000000000000000000000000000000000000000000000000000000000000000000000000000000000000000000000000000000000000000000000000000000000000000000000020000000000000000000000000000000000000000000000000000000000000000000000000000000000000000000000000000000001000000000000000000000",
      "type": "0x2",
      "effectiveGasPrice": "0xb35a3e57"
    },
    {
      "transactionHash": "0x67a58701494972534f89a515fae8b4dd8e5e1b0973856a09bac68af24286a683",
      "transactionIndex": "0x3",
      "blockHash": "0xb76acebd25f5a537adb9fe1cbd4d089053dccba6cb1ae440933fe985115f9be7",
      "blockNumber": "0xd25d08",
      "from": "0x26aA9BB6f36f404aF102A53F327E2aCf92aaF451",
      "to": "0x7cA95E87F3A95f4689C6b860CA259A68A5D4c5D7",
      "cumulativeGasUsed": "0x83667",
      "gasUsed": "0x283b4",
      "contractAddress": null,
      "logs": [
        {
          "address": "0x7cA95E87F3A95f4689C6b860CA259A68A5D4c5D7",
          "topics": [
            "0x8564fcb5cfd27fbe1e67f1f39f57adf7cb25eaeaf302379f358fe0686eb46688"
          ],
          "data": "0x00000000000000000000000000000000000000000000000000000000000000040000000000000000000000000000000000000000000000000000000000000040000000000000000000000000000000000000000000000000000000000000002c496e737469747574696f6e2000000000000000000000000000000000000000000000000000000000000000040000000000000000000000000000000000000000",
          "blockHash": "0xb76acebd25f5a537adb9fe1cbd4d089053dccba6cb1ae440933fe985115f9be7",
          "blockNumber": "0xd25d08",
          "transactionHash": "0x67a58701494972534f89a515fae8b4dd8e5e1b0973856a09bac68af24286a683",
          "transactionIndex": "0x3",
          "logIndex": "0x2",
          "removed": false
        }
      ],
      "status": "0x1",
      "logsBloom": "0x00000000000000800000000000000000000000000000004000000000000000000000000000000000000000000000000000000000000000000000000000000000000000000000200000000000000000000000000000000000000000000000000000000000000000008000000000000000000000000000000000000000000000000000000000000000000000000000000000000000000000000000000000000000000000000000000000000000000000000000000000000000000000000000000020000000000000000000000000000000000000000000000000000000000000000000000000000000000000000000000000000000001000000000000000000000",
      "type": "0x2",
      "effectiveGasPrice": "0xb35a3e57"
    },
    {
      "transactionHash": "0x8260c43f54c8e60042de5aa61bbb4958e575b52b728eb4e32d85ef18dc632749",
      "transactionIndex": "0x4",
      "blockHash": "0xb76acebd25f5a537adb9fe1cbd4d089053dccba6cb1ae440933fe985115f9be7",
      "blockNumber": "0xd25d08",
      "from": "0x26aA9BB6f36f404aF102A53F327E2aCf92aaF451",
      "to": "0x7cA95E87F3A95f4689C6b860CA259A68A5D4c5D7",
      "cumulativeGasUsed": "0xaba1b",
      "gasUsed": "0x283b4",
      "contractAddress": null,
      "logs": [
        {
          "address": "0x7cA95E87F3A95f4689C6b860CA259A68A5D4c5D7",
          "topics": [
            "0x8564fcb5cfd27fbe1e67f1f39f57adf7cb25eaeaf302379f358fe0686eb46688"
          ],
          "data": "0x00000000000000000000000000000000000000000000000000000000000000050000000000000000000000000000000000000000000000000000000000000040000000000000000000000000000000000000000000000000000000000000002c496e737469747574696f6e2000000000000000000000000000000000000000000000000000000000000000050000000000000000000000000000000000000000",
          "blockHash": "0xb76acebd25f5a537adb9fe1cbd4d089053dccba6cb1ae440933fe985115f9be7",
          "blockNumber": "0xd25d08",
          "transactionHash": "0x8260c43f54c8e60042de5aa61bbb4958e575b52b728eb4e32d85ef18dc632749",
          "transactionIndex": "0x4",
          "logIndex": "0x3",
          "removed": false
        }
      ],
      "status": "0x1",
      "logsBloom": "0x00000000000000800000000000000000000000000000004000000000000000000000000000000000000000000000000000000000000000000000000000000000000000000000200000000000000000000000000000000000000000000000000000000000000000008000000000000000000000000000000000000000000000000000000000000000000000000000000000000000000000000000000000000000000000000000000000000000000000000000000000000000000000000000000020000000000000000000000000000000000000000000000000000000000000000000000000000000000000000000000000000000001000000000000000000000",
      "type": "0x2",
      "effectiveGasPrice": "0xb35a3e57"
    },
    {
      "transactionHash": "0x716142f8da6f47682429a1ecc5aa48cd8e26f6cbe0657df1bb9c27f62735fd02",
      "transactionIndex": "0x5",
      "blockHash": "0xb76acebd25f5a537adb9fe1cbd4d089053dccba6cb1ae440933fe985115f9be7",
      "blockNumber": "0xd25d08",
      "from": "0x26aA9BB6f36f404aF102A53F327E2aCf92aaF451",
      "to": "0x7cA95E87F3A95f4689C6b860CA259A68A5D4c5D7",
      "cumulativeGasUsed": "0xdecf7",
      "gasUsed": "0x332dc",
      "contractAddress": null,
      "logs": [
        {
          "address": "0x7cA95E87F3A95f4689C6b860CA259A68A5D4c5D7",
          "topics": [
            "0x1d01df2f27d43c539e43698d3850034aa4a290e2eb938fb45ef4631d4caea4b8"
          ],
          "data": "0x0000000000000000000000000000000000000000000000000000000000000001000000000000000000000000000000000000000000000000000000000000006000000000000000000000000000000000000000000000000000000000000003e8000000000000000000000000000000000000000000000000000000000000002850726f6a656374200000000000000000000000000000000000000000000000000000000000000001000000000000000000000000000000000000000000000000",
          "blockHash": "0xb76acebd25f5a537adb9fe1cbd4d089053dccba6cb1ae440933fe985115f9be7",
          "blockNumber": "0xd25d08",
          "transactionHash": "0x716142f8da6f47682429a1ecc5aa48cd8e26f6cbe0657df1bb9c27f62735fd02",
          "transactionIndex": "0x5",
          "logIndex": "0x4",
          "removed": false
        }
      ],
      "status": "0x1",
      "logsBloom": "0x00000000000000800000000000000000000000000000000000000000000000000000000000000000000000000000000000000000000000000000000000000000000000000000000000000000000000000000000000000400000000000000000000000000000000008000000000000000000000000000000000000000000000000000000000000000000000000000000000000400000000000000000000000000000000000000000000000000000000000000000000000000000000000000200020000000000000000000000000000000000000000000000000000000000000000000000000000000000000000000000000000000000000000000000000000000",
      "type": "0x2",
      "effectiveGasPrice": "0xb35a3e57"
    },
    {
      "transactionHash": "0x2352ceb8186035d173cbc89e17022f5a62e8f72ff2297a8d8ca98ea96d0dab14",
      "transactionIndex": "0x6",
      "blockHash": "0xb76acebd25f5a537adb9fe1cbd4d089053dccba6cb1ae440933fe985115f9be7",
      "blockNumber": "0xd25d08",
      "from": "0x26aA9BB6f36f404aF102A53F327E2aCf92aaF451",
      "to": "0x7cA95E87F3A95f4689C6b860CA259A68A5D4c5D7",
      "cumulativeGasUsed": "0x111fd3",
      "gasUsed": "0x332dc",
      "contractAddress": null,
      "logs": [
        {
          "address": "0x7cA95E87F3A95f4689C6b860CA259A68A5D4c5D7",
          "topics": [
            "0x1d01df2f27d43c539e43698d3850034aa4a290e2eb938fb45ef4631d4caea4b8"
          ],
          "data": "0x0000000000000000000000000000000000000000000000000000000000000002000000000000000000000000000000000000000000000000000000000000006000000000000000000000000000000000000000000000000000000000000003e9000000000000000000000000000000000000000000000000000000000000002850726f6a656374200000000000000000000000000000000000000000000000000000000000000002000000000000000000000000000000000000000000000000",
          "blockHash": "0xb76acebd25f5a537adb9fe1cbd4d089053dccba6cb1ae440933fe985115f9be7",
          "blockNumber": "0xd25d08",
          "transactionHash": "0x2352ceb8186035d173cbc89e17022f5a62e8f72ff2297a8d8ca98ea96d0dab14",
          "transactionIndex": "0x6",
          "logIndex": "0x5",
          "removed": false
        }
      ],
      "status": "0x1",
      "logsBloom": "0x00000000000000800000000000000000000000000000000000000000000000000000000000000000000000000000000000000000000000000000000000000000000000000000000000000000000000000000000000000400000000000000000000000000000000008000000000000000000000000000000000000000000000000000000000000000000000000000000000000400000000000000000000000000000000000000000000000000000000000000000000000000000000000000200020000000000000000000000000000000000000000000000000000000000000000000000000000000000000000000000000000000000000000000000000000000",
      "type": "0x2",
      "effectiveGasPrice": "0xb35a3e57"
    },
    {
      "transactionHash": "0xdfb58ccad33169b7cb26b9a5bc71d74fe10c42d2684cc31075d84cbf86ff8dd1",
      "transactionIndex": "0x7",
      "blockHash": "0xb76acebd25f5a537adb9fe1cbd4d089053dccba6cb1ae440933fe985115f9be7",
      "blockNumber": "0xd25d08",
      "from": "0x26aA9BB6f36f404aF102A53F327E2aCf92aaF451",
      "to": "0x7cA95E87F3A95f4689C6b860CA259A68A5D4c5D7",
      "cumulativeGasUsed": "0x1452af",
      "gasUsed": "0x332dc",
      "contractAddress": null,
      "logs": [
        {
          "address": "0x7cA95E87F3A95f4689C6b860CA259A68A5D4c5D7",
          "topics": [
            "0x1d01df2f27d43c539e43698d3850034aa4a290e2eb938fb45ef4631d4caea4b8"
          ],
          "data": "0x0000000000000000000000000000000000000000000000000000000000000003000000000000000000000000000000000000000000000000000000000000006000000000000000000000000000000000000000000000000000000000000003ea000000000000000000000000000000000000000000000000000000000000002850726f6a656374200000000000000000000000000000000000000000000000000000000000000003000000000000000000000000000000000000000000000000",
          "blockHash": "0xb76acebd25f5a537adb9fe1cbd4d089053dccba6cb1ae440933fe985115f9be7",
          "blockNumber": "0xd25d08",
          "transactionHash": "0xdfb58ccad33169b7cb26b9a5bc71d74fe10c42d2684cc31075d84cbf86ff8dd1",
          "transactionIndex": "0x7",
          "logIndex": "0x6",
          "removed": false
        }
      ],
      "status": "0x1",
      "logsBloom": "0x00000000000000800000000000000000000000000000000000000000000000000000000000000000000000000000000000000000000000000000000000000000000000000000000000000000000000000000000000000400000000000000000000000000000000008000000000000000000000000000000000000000000000000000000000000000000000000000000000000400000000000000000000000000000000000000000000000000000000000000000000000000000000000000200020000000000000000000000000000000000000000000000000000000000000000000000000000000000000000000000000000000000000000000000000000000",
      "type": "0x2",
      "effectiveGasPrice": "0xb35a3e57"
    },
    {
      "transactionHash": "0xf8790425f69d60152e5b77973d3574c1866d8b89336bde61823baa2821aea06e",
      "transactionIndex": "0x1",
      "blockHash": "0x286d879c70e74d0eab234e2bc2374a487f0f4b5734b737c4183b4a6a6b80d7a8",
      "blockNumber": "0xd25d09",
      "from": "0x26aA9BB6f36f404aF102A53F327E2aCf92aaF451",
      "to": "0x7cA95E87F3A95f4689C6b860CA259A68A5D4c5D7",
      "cumulativeGasUsed": "0x3fef7",
      "gasUsed": "0x332dc",
      "contractAddress": null,
      "logs": [
        {
          "address": "0x7cA95E87F3A95f4689C6b860CA259A68A5D4c5D7",
          "topics": [
            "0x1d01df2f27d43c539e43698d3850034aa4a290e2eb938fb45ef4631d4caea4b8"
          ],
          "data": "0x0000000000000000000000000000000000000000000000000000000000000004000000000000000000000000000000000000000000000000000000000000006000000000000000000000000000000000000000000000000000000000000003eb000000000000000000000000000000000000000000000000000000000000002850726f6a656374200000000000000000000000000000000000000000000000000000000000000004000000000000000000000000000000000000000000000000",
          "blockHash": "0x286d879c70e74d0eab234e2bc2374a487f0f4b5734b737c4183b4a6a6b80d7a8",
          "blockNumber": "0xd25d09",
          "transactionHash": "0xf8790425f69d60152e5b77973d3574c1866d8b89336bde61823baa2821aea06e",
          "transactionIndex": "0x1",
          "logIndex": "0x0",
          "removed": false
        }
      ],
      "status": "0x1",
      "logsBloom": "0x00000000000000800000000000000000000000000000000000000000000000000000000000000000000000000000000000000000000000000000000000000000000000000000000000000000000000000000000000000400000000000000000000000000000000008000000000000000000000000000000000000000000000000000000000000000000000000000000000000400000000000000000000000000000000000000000000000000000000000000000000000000000000000000200020000000000000000000000000000000000000000000000000000000000000000000000000000000000000000000000000000000000000000000000000000000",
      "type": "0x2",
      "effectiveGasPrice": "0xb35a36d0"
    },
    {
      "transactionHash": "0x7efa9cd645b9197b5a8eff017cc5c0cade6a2a09b82b88f04b4c0b82848a727d",
      "transactionIndex": "0x2",
      "blockHash": "0x286d879c70e74d0eab234e2bc2374a487f0f4b5734b737c4183b4a6a6b80d7a8",
      "blockNumber": "0xd25d09",
      "from": "0x26aA9BB6f36f404aF102A53F327E2aCf92aaF451",
      "to": "0x7cA95E87F3A95f4689C6b860CA259A68A5D4c5D7",
      "cumulativeGasUsed": "0x731d3",
      "gasUsed": "0x332dc",
      "contractAddress": null,
      "logs": [
        {
          "address": "0x7cA95E87F3A95f4689C6b860CA259A68A5D4c5D7",
          "topics": [
            "0x1d01df2f27d43c539e43698d3850034aa4a290e2eb938fb45ef4631d4caea4b8"
          ],
          "data": "0x0000000000000000000000000000000000000000000000000000000000000005000000000000000000000000000000000000000000000000000000000000006000000000000000000000000000000000000000000000000000000000000003ec000000000000000000000000000000000000000000000000000000000000002850726f6a656374200000000000000000000000000000000000000000000000000000000000000005000000000000000000000000000000000000000000000000",
          "blockHash": "0x286d879c70e74d0eab234e2bc2374a487f0f4b5734b737c4183b4a6a6b80d7a8",
          "blockNumber": "0xd25d09",
          "transactionHash": "0x7efa9cd645b9197b5a8eff017cc5c0cade6a2a09b82b88f04b4c0b82848a727d",
          "transactionIndex": "0x2",
          "logIndex": "0x1",
          "removed": false
        }
      ],
      "status": "0x1",
      "logsBloom": "0x00000000000000800000000000000000000000000000000000000000000000000000000000000000000000000000000000000000000000000000000000000000000000000000000000000000000000000000000000000400000000000000000000000000000000008000000000000000000000000000000000000000000000000000000000000000000000000000000000000400000000000000000000000000000000000000000000000000000000000000000000000000000000000000200020000000000000000000000000000000000000000000000000000000000000000000000000000000000000000000000000000000000000000000000000000000",
      "type": "0x2",
      "effectiveGasPrice": "0xb35a36d0"
    },
    {
      "transactionHash": "0x3539370bf25d65afced2c6258ff053a095b491a2ce126994bfc6816754057dfc",
      "transactionIndex": "0x3",
      "blockHash": "0x286d879c70e74d0eab234e2bc2374a487f0f4b5734b737c4183b4a6a6b80d7a8",
      "blockNumber": "0xd25d09",
      "from": "0x26aA9BB6f36f404aF102A53F327E2aCf92aaF451",
      "to": "0x7cA95E87F3A95f4689C6b860CA259A68A5D4c5D7",
      "cumulativeGasUsed": "0x9c6a2",
      "gasUsed": "0x294cf",
      "contractAddress": null,
      "logs": [
        {
          "address": "0x7cA95E87F3A95f4689C6b860CA259A68A5D4c5D7",
          "topics": [
            "0x902813d9d8cdb71697048d14e9e27d033cb3bba4db3b358c16e750ab5d796451"
          ],
          "data": "0x000000000000000000000000000000000000000000000000000000000000000100000000000000000000000000000000000000000000000000000000000000400000000000000000000000000000000000000000000000000000000000000026566f7465722000000000000000000000000000000000000000000000000000000000000000010000000000000000000000000000000000000000000000000000",
          "blockHash": "0x286d879c70e74d0eab234e2bc2374a487f0f4b5734b737c4183b4a6a6b80d7a8",
          "blockNumber": "0xd25d09",
          "transactionHash": "0x3539370bf25d65afced2c6258ff053a095b491a2ce126994bfc6816754057dfc",
          "transactionIndex": "0x3",
          "logIndex": "0x2",
          "removed": false
        }
      ],
      "status": "0x1",
      "logsBloom": "0x00000000000000800000000000000000000000000000000000000000000000000000000000000000000000000000000000000000000000000000000000000000000000000000000000000000000000000000000000000000000000000000000000000000000000008000000000000000000100000000000000000000000000000000000000000000000000000000004000000000000000000000010000000000000000000000000000000000000000000000000000000000000000000000000020000000000000000000000000000000000000000000000000000000000000000000000000000000000000000000000000000000000000000000000000000000",
      "type": "0x2",
      "effectiveGasPrice": "0xb35a36d0"
    },
    {
      "transactionHash": "0x869c7f35e7f199efc13573226da79f89490744e2c94b7bc688278d95e3b46357",
      "transactionIndex": "0x4",
      "blockHash": "0x286d879c70e74d0eab234e2bc2374a487f0f4b5734b737c4183b4a6a6b80d7a8",
      "blockNumber": "0xd25d09",
      "from": "0x26aA9BB6f36f404aF102A53F327E2aCf92aaF451",
      "to": "0x7cA95E87F3A95f4689C6b860CA259A68A5D4c5D7",
      "cumulativeGasUsed": "0xc5b71",
      "gasUsed": "0x294cf",
      "contractAddress": null,
      "logs": [
        {
          "address": "0x7cA95E87F3A95f4689C6b860CA259A68A5D4c5D7",
          "topics": [
            "0x902813d9d8cdb71697048d14e9e27d033cb3bba4db3b358c16e750ab5d796451"
          ],
          "data": "0x000000000000000000000000000000000000000000000000000000000000000200000000000000000000000000000000000000000000000000000000000000400000000000000000000000000000000000000000000000000000000000000026566f7465722000000000000000000000000000000000000000000000000000000000000000020000000000000000000000000000000000000000000000000000",
          "blockHash": "0x286d879c70e74d0eab234e2bc2374a487f0f4b5734b737c4183b4a6a6b80d7a8",
          "blockNumber": "0xd25d09",
          "transactionHash": "0x869c7f35e7f199efc13573226da79f89490744e2c94b7bc688278d95e3b46357",
          "transactionIndex": "0x4",
          "logIndex": "0x3",
          "removed": false
        }
      ],
      "status": "0x1",
      "logsBloom": "0x00000000000000800000000000000000000000000000000000000000000000000000000000000000000000000000000000000000000000000000000000000000000000000000000000000000000000000000000000000000000000000000000000000000000000008000000000000000000100000000000000000000000000000000000000000000000000000000004000000000000000000000010000000000000000000000000000000000000000000000000000000000000000000000000020000000000000000000000000000000000000000000000000000000000000000000000000000000000000000000000000000000000000000000000000000000",
      "type": "0x2",
      "effectiveGasPrice": "0xb35a36d0"
    },
    {
      "transactionHash": "0xa2de2426ae5b924aa6693b59b59727498963a4f00a1466ca1d9f7fc6949f2826",
      "transactionIndex": "0x5",
      "blockHash": "0x286d879c70e74d0eab234e2bc2374a487f0f4b5734b737c4183b4a6a6b80d7a8",
      "blockNumber": "0xd25d09",
      "from": "0x26aA9BB6f36f404aF102A53F327E2aCf92aaF451",
      "to": "0x7cA95E87F3A95f4689C6b860CA259A68A5D4c5D7",
      "cumulativeGasUsed": "0xef040",
      "gasUsed": "0x294cf",
      "contractAddress": null,
      "logs": [
        {
          "address": "0x7cA95E87F3A95f4689C6b860CA259A68A5D4c5D7",
          "topics": [
            "0x902813d9d8cdb71697048d14e9e27d033cb3bba4db3b358c16e750ab5d796451"
          ],
          "data": "0x000000000000000000000000000000000000000000000000000000000000000300000000000000000000000000000000000000000000000000000000000000400000000000000000000000000000000000000000000000000000000000000026566f7465722000000000000000000000000000000000000000000000000000000000000000030000000000000000000000000000000000000000000000000000",
          "blockHash": "0x286d879c70e74d0eab234e2bc2374a487f0f4b5734b737c4183b4a6a6b80d7a8",
          "blockNumber": "0xd25d09",
          "transactionHash": "0xa2de2426ae5b924aa6693b59b59727498963a4f00a1466ca1d9f7fc6949f2826",
          "transactionIndex": "0x5",
          "logIndex": "0x4",
          "removed": false
        }
      ],
      "status": "0x1",
      "logsBloom": "0x00000000000000800000000000000000000000000000000000000000000000000000000000000000000000000000000000000000000000000000000000000000000000000000000000000000000000000000000000000000000000000000000000000000000000008000000000000000000100000000000000000000000000000000000000000000000000000000004000000000000000000000010000000000000000000000000000000000000000000000000000000000000000000000000020000000000000000000000000000000000000000000000000000000000000000000000000000000000000000000000000000000000000000000000000000000",
      "type": "0x2",
      "effectiveGasPrice": "0xb35a36d0"
    },
    {
      "transactionHash": "0x519e9e06f709785aa84b6998681e4372a7b53322d673d347e3ec3b1a94d815fb",
      "transactionIndex": "0x6",
      "blockHash": "0x286d879c70e74d0eab234e2bc2374a487f0f4b5734b737c4183b4a6a6b80d7a8",
      "blockNumber": "0xd25d09",
      "from": "0x26aA9BB6f36f404aF102A53F327E2aCf92aaF451",
      "to": "0x7cA95E87F3A95f4689C6b860CA259A68A5D4c5D7",
      "cumulativeGasUsed": "0x118503",
      "gasUsed": "0x294c3",
      "contractAddress": null,
      "logs": [
        {
          "address": "0x7cA95E87F3A95f4689C6b860CA259A68A5D4c5D7",
          "topics": [
            "0x902813d9d8cdb71697048d14e9e27d033cb3bba4db3b358c16e750ab5d796451"
          ],
          "data": "0x000000000000000000000000000000000000000000000000000000000000000400000000000000000000000000000000000000000000000000000000000000400000000000000000000000000000000000000000000000000000000000000026566f7465722000000000000000000000000000000000000000000000000000000000000000040000000000000000000000000000000000000000000000000000",
          "blockHash": "0x286d879c70e74d0eab234e2bc2374a487f0f4b5734b737c4183b4a6a6b80d7a8",
          "blockNumber": "0xd25d09",
          "transactionHash": "0x519e9e06f709785aa84b6998681e4372a7b53322d673d347e3ec3b1a94d815fb",
          "transactionIndex": "0x6",
          "logIndex": "0x5",
          "removed": false
        }
      ],
      "status": "0x1",
      "logsBloom": "0x00000000000000800000000000000000000000000000000000000000000000000000000000000000000000000000000000000000000000000000000000000000000000000000000000000000000000000000000000000000000000000000000000000000000000008000000000000000000100000000000000000000000000000000000000000000000000000000004000000000000000000000010000000000000000000000000000000000000000000000000000000000000000000000000020000000000000000000000000000000000000000000000000000000000000000000000000000000000000000000000000000000000000000000000000000000",
      "type": "0x2",
      "effectiveGasPrice": "0xb35a36d0"
    },
    {
      "transactionHash": "0x5a5f568f96c0714ae355b5285c5b74ef0102b8dfb50841c8312dd1200fdaaea3",
      "transactionIndex": "0x1",
      "blockHash": "0xefc2f51930a690f25b954bd8f309630e5cf4d3d5e3252776fc5e9c5aeb01c37d",
      "blockNumber": "0xd25d0a",
      "from": "0x26aA9BB6f36f404aF102A53F327E2aCf92aaF451",
      "to": "0x7cA95E87F3A95f4689C6b860CA259A68A5D4c5D7",
      "cumulativeGasUsed": "0x34026",
      "gasUsed": "0x294cf",
      "contractAddress": null,
      "logs": [
        {
          "address": "0x7cA95E87F3A95f4689C6b860CA259A68A5D4c5D7",
          "topics": [
            "0x902813d9d8cdb71697048d14e9e27d033cb3bba4db3b358c16e750ab5d796451"
          ],
          "data": "0x000000000000000000000000000000000000000000000000000000000000000500000000000000000000000000000000000000000000000000000000000000400000000000000000000000000000000000000000000000000000000000000026566f7465722000000000000000000000000000000000000000000000000000000000000000050000000000000000000000000000000000000000000000000000",
          "blockHash": "0xefc2f51930a690f25b954bd8f309630e5cf4d3d5e3252776fc5e9c5aeb01c37d",
          "blockNumber": "0xd25d0a",
          "transactionHash": "0x5a5f568f96c0714ae355b5285c5b74ef0102b8dfb50841c8312dd1200fdaaea3",
          "transactionIndex": "0x1",
          "logIndex": "0x0",
          "removed": false
        }
      ],
      "status": "0x1",
      "logsBloom": "0x00000000000000800000000000000000000000000000000000000000000000000000000000000000000000000000000000000000000000000000000000000000000000000000000000000000000000000000000000000000000000000000000000000000000000008000000000000000000100000000000000000000000000000000000000000000000000000000004000000000000000000000010000000000000000000000000000000000000000000000000000000000000000000000000020000000000000000000000000000000000000000000000000000000000000000000000000000000000000000000000000000000000000000000000000000000",
      "type": "0x2",
      "effectiveGasPrice": "0xb35a03c7"
    }
  ],
  "libraries": [],
  "pending": [],
  "returns": {},
  "timestamp": 1723341048,
  "chain": 84532,
  "multi": false,
  "commit": "7a48032"
}