{
  "transactions": [
    {
      "hash": "0x4cb6210719f8adb5296e7504f2427d5f3dc7d05e65a55763dd51f330344b48c9",
      "transactionType": "CALL",
      "contractName": null,
      "contractAddress": "0x02f1Da193Da9Ec0b9666bf45166078D50Cb582f1",
      "function": "createInstitution(string,address)",
      "arguments": [
        "\"Institution \\0\\0\\0\\0\\0\\0\\0\\0\\0\\0\\0\\0\\0\\0\\0\\0\\0\\0\\0\\0\\0\\0\\0\\0\\0\\0\\0\\0\\0\\0\\0\\u{1}\"",
        "0x7E5F4552091A69125d5DfCb7b8C2659029395Bdf"
      ],
      "transaction": {
        "type": "0x02",
        "from": "0x26aa9bb6f36f404af102a53f327e2acf92aaf451",
        "to": "0x02f1da193da9ec0b9666bf45166078d50cb582f1",
        "gas": "0x113e3",
        "value": "0x0",
        "data": "0xe748f56800000000000000000000000000000000000000000000000000000000000000400000000000000000000000007e5f4552091a69125d5dfcb7b8c2659029395bdf000000000000000000000000000000000000000000000000000000000000002c496e737469747574696f6e2000000000000000000000000000000000000000000000000000000000000000010000000000000000000000000000000000000000",
        "nonce": "0x32",
        "accessList": []
      },
      "additionalContracts": [],
      "isFixedGasLimit": false
    },
    {
      "hash": "0x1c6d0f4cac209757e35810f81386699a54214dbefcde679b405ac726402600c6",
      "transactionType": "CALL",
      "contractName": null,
      "contractAddress": "0x02f1Da193Da9Ec0b9666bf45166078D50Cb582f1",
      "function": "createInstitution(string,address)",
      "arguments": [
        "\"Institution \\0\\0\\0\\0\\0\\0\\0\\0\\0\\0\\0\\0\\0\\0\\0\\0\\0\\0\\0\\0\\0\\0\\0\\0\\0\\0\\0\\0\\0\\0\\0\\u{2}\"",
        "0x2B5AD5c4795c026514f8317c7a215E218DcCD6cF"
      ],
      "transaction": {
        "type": "0x02",
        "from": "0x26aa9bb6f36f404af102a53f327e2acf92aaf451",
        "to": "0x02f1da193da9ec0b9666bf45166078d50cb582f1",
        "gas": "0x113e3",
        "value": "0x0",
        "data": "0xe748f56800000000000000000000000000000000000000000000000000000000000000400000000000000000000000002b5ad5c4795c026514f8317c7a215e218dccd6cf000000000000000000000000000000000000000000000000000000000000002c496e737469747574696f6e2000000000000000000000000000000000000000000000000000000000000000020000000000000000000000000000000000000000",
        "nonce": "0x33",
        "accessList": []
      },
      "additionalContracts": [],
      "isFixedGasLimit": false
    },
    {
      "hash": "0xe030c1bdb1d551ff4f43e01cd04c3db1c8d10c70e368fe2a76ed7d84548509b3",
      "transactionType": "CALL",
      "contractName": null,
      "contractAddress": "0x02f1Da193Da9Ec0b9666bf45166078D50Cb582f1",
      "function": "createInstitution(string,address)",
      "arguments": [
        "\"Institution \\0\\0\\0\\0\\0\\0\\0\\0\\0\\0\\0\\0\\0\\0\\0\\0\\0\\0\\0\\0\\0\\0\\0\\0\\0\\0\\0\\0\\0\\0\\0\\u{3}\"",
        "0x6813Eb9362372EEF6200f3b1dbC3f819671cBA69"
      ],
      "transaction": {
        "type": "0x02",
        "from": "0x26aa9bb6f36f404af102a53f327e2acf92aaf451",
        "to": "0x02f1da193da9ec0b9666bf45166078d50cb582f1",
        "gas": "0x1240d",
        "value": "0x0",
        "data": "0xe748f56800000000000000000000000000000000000000000000000000000000000000400000000000000000000000006813eb9362372eef6200f3b1dbc3f819671cba69000000000000000000000000000000000000000000000000000000000000002c496e737469747574696f6e2000000000000000000000000000000000000000000000000000000000000000030000000000000000000000000000000000000000",
        "nonce": "0x34",
        "accessList": []
      },
      "additionalContracts": [],
      "isFixedGasLimit": false
    },
    {
      "hash": "0x304a748ec35116f1f654c0b710fefb87f44afaa950e95d9c43807b13de07a88d",
      "transactionType": "CALL",
      "contractName": null,
      "contractAddress": "0x02f1Da193Da9Ec0b9666bf45166078D50Cb582f1",
      "function": "createInstitution(string,address)",
      "arguments": [
        "\"Institution \\0\\0\\0\\0\\0\\0\\0\\0\\0\\0\\0\\0\\0\\0\\0\\0\\0\\0\\0\\0\\0\\0\\0\\0\\0\\0\\0\\0\\0\\0\\0\\u{4}\"",
        "0x1efF47bc3a10a45D4B230B5d10E37751FE6AA718"
      ],
      "transaction": {
        "type": "0x02",
        "from": "0x26aa9bb6f36f404af102a53f327e2acf92aaf451",
        "to": "0x02f1da193da9ec0b9666bf45166078d50cb582f1",
        "gas": "0x113e3",
        "value": "0x0",
        "data": "0xe748f56800000000000000000000000000000000000000000000000000000000000000400000000000000000000000001eff47bc3a10a45d4b230b5d10e37751fe6aa718000000000000000000000000000000000000000000000000000000000000002c496e737469747574696f6e2000000000000000000000000000000000000000000000000000000000000000040000000000000000000000000000000000000000",
        "nonce": "0x35",
        "accessList": []
      },
      "additionalContracts": [],
      "isFixedGasLimit": false
    },
    {
      "hash": "0x83952dd62efdf8797309bbd999855139c1e3d3882fb19a37538cde4719743991",
      "transactionType": "CALL",
      "contractName": null,
      "contractAddress": "0x02f1Da193Da9Ec0b9666bf45166078D50Cb582f1",
      "function": "createInstitution(string,address)",
      "arguments": [
        "\"Institution \\0\\0\\0\\0\\0\\0\\0\\0\\0\\0\\0\\0\\0\\0\\0\\0\\0\\0\\0\\0\\0\\0\\0\\0\\0\\0\\0\\0\\0\\0\\0\\u{5}\"",
        "0xe1AB8145F7E55DC933d51a18c793F901A3A0b276"
      ],
      "transaction": {
        "type": "0x02",
        "from": "0x26aa9bb6f36f404af102a53f327e2acf92aaf451",
        "to": "0x02f1da193da9ec0b9666bf45166078d50cb582f1",
        "gas": "0x113e3",
        "value": "0x0",
        "data": "0xe748f5680000000000000000000000000000000000000000000000000000000000000040000000000000000000000000e1ab8145f7e55dc933d51a18c793f901a3a0b276000000000000000000000000000000000000000000000000000000000000002c496e737469747574696f6e2000000000000000000000000000000000000000000000000000000000000000050000000000000000000000000000000000000000",
        "nonce": "0x36",
        "accessList": []
      },
      "additionalContracts": [],
      "isFixedGasLimit": false
    },
    {
      "hash": "0xf051e9f7196dd0661e12449606d33c04880400cebdb32942f39fd4faa35cb379",
      "transactionType": "CALL",
      "contractName": null,
      "contractAddress": "0x02f1Da193Da9Ec0b9666bf45166078D50Cb582f1",
      "function": "createProject(uint256,address,uint256,string)",
      "arguments": [
        "100",
        "0xE57bFE9F44b819898F47BF37E5AF72a0783e1141",
        "1000",
        "\"Project \\0\\0\\0\\0\\0\\0\\0\\0\\0\\0\\0\\0\\0\\0\\0\\0\\0\\0\\0\\0\\0\\0\\0\\0\\0\\0\\0\\0\\0\\0\\0\\u{1}\""
      ],
      "transaction": {
        "type": "0x02",
        "from": "0x26aa9bb6f36f404af102a53f327e2acf92aaf451",
        "to": "0x02f1da193da9ec0b9666bf45166078d50cb582f1",
        "gas": "0x46b0b",
        "value": "0x0",
        "data": "0x71c79f6b0000000000000000000000000000000000000000000000000000000000000064000000000000000000000000e57bfe9f44b819898f47bf37e5af72a0783e114100000000000000000000000000000000000000000000000000000000000003e80000000000000000000000000000000000000000000000000000000000000080000000000000000000000000000000000000000000000000000000000000002850726f6a656374200000000000000000000000000000000000000000000000000000000000000001000000000000000000000000000000000000000000000000",
        "nonce": "0x37",
        "accessList": []
      },
      "additionalContracts": [],
      "isFixedGasLimit": false
    },
    {
      "hash": "0xa203a3edaece05ae3222511c5a6ae94f69da680fa6207e04e095a89d4a191447",
      "transactionType": "CALL",
      "contractName": null,
      "contractAddress": "0x02f1Da193Da9Ec0b9666bf45166078D50Cb582f1",
      "function": "createProject(uint256,address,uint256,string)",
      "arguments": [
        "110",
        "0xd41c057fd1c78805AAC12B0A94a405c0461A6FBb",
        "1001",
        "\"Project \\0\\0\\0\\0\\0\\0\\0\\0\\0\\0\\0\\0\\0\\0\\0\\0\\0\\0\\0\\0\\0\\0\\0\\0\\0\\0\\0\\0\\0\\0\\0\\u{2}\""
      ],
      "transaction": {
        "type": "0x02",
        "from": "0x26aa9bb6f36f404af102a53f327e2acf92aaf451",
        "to": "0x02f1da193da9ec0b9666bf45166078d50cb582f1",
        "gas": "0x46b0b",
        "value": "0x0",
        "data": "0x71c79f6b000000000000000000000000000000000000000000000000000000000000006e000000000000000000000000d41c057fd1c78805aac12b0a94a405c0461a6fbb00000000000000000000000000000000000000000000000000000000000003e90000000000000000000000000000000000000000000000000000000000000080000000000000000000000000000000000000000000000000000000000000002850726f6a656374200000000000000000000000000000000000000000000000000000000000000002000000000000000000000000000000000000000000000000",
        "nonce": "0x38",
        "accessList": []
      },
      "additionalContracts": [],
      "isFixedGasLimit": false
    },
    {
      "hash": "0x70a66cb2e6de18eb2f08d4166420b00da64234e9e8c8da1bf9e8b9abba1e11f8",
      "transactionType": "CALL",
      "contractName": null,
      "contractAddress": "0x02f1Da193Da9Ec0b9666bf45166078D50Cb582f1",
      "function": "createProject(uint256,address,uint256,string)",
      "arguments": [
        "120",
        "0xF1F6619B38A98d6De0800F1DefC0a6399eB6d30C",
        "1002",
        "\"Project \\0\\0\\0\\0\\0\\0\\0\\0\\0\\0\\0\\0\\0\\0\\0\\0\\0\\0\\0\\0\\0\\0\\0\\0\\0\\0\\0\\0\\0\\0\\0\\u{3}\""
      ],
      "transaction": {
        "type": "0x02",
        "from": "0x26aa9bb6f36f404af102a53f327e2acf92aaf451",
        "to": "0x02f1da193da9ec0b9666bf45166078d50cb582f1",
        "gas": "0x46b0b",
        "value": "0x0",
        "data": "0x71c79f6b0000000000000000000000000000000000000000000000000000000000000078000000000000000000000000f1f6619b38a98d6de0800f1defc0a6399eb6d30c00000000000000000000000000000000000000000000000000000000000003ea0000000000000000000000000000000000000000000000000000000000000080000000000000000000000000000000000000000000000000000000000000002850726f6a656374200000000000000000000000000000000000000000000000000000000000000003000000000000000000000000000000000000000000000000",
        "nonce": "0x39",
        "accessList": []
      },
      "additionalContracts": [],
      "isFixedGasLimit": false
    },
    {
      "hash": "0x2ef441627825fd2faaed45f2871fe963f0c1a40e9158b4ce7b44beef644c9c8d",
      "transactionType": "CALL",
      "contractName": null,
      "contractAddress": "0x02f1Da193Da9Ec0b9666bf45166078D50Cb582f1",
      "function": "createProject(uint256,address,uint256,string)",
      "arguments": [
        "130",
        "0xF7Edc8FA1eCc32967F827C9043FcAe6ba73afA5c",
        "1003",
        "\"Project \\0\\0\\0\\0\\0\\0\\0\\0\\0\\0\\0\\0\\0\\0\\0\\0\\0\\0\\0\\0\\0\\0\\0\\0\\0\\0\\0\\0\\0\\0\\0\\u{4}\""
      ],
      "transaction": {
        "type": "0x02",
        "from": "0x26aa9bb6f36f404af102a53f327e2acf92aaf451",
        "to": "0x02f1da193da9ec0b9666bf45166078d50cb582f1",
        "gas": "0x46b0b",
        "value": "0x0",
        "data": "0x71c79f6b0000000000000000000000000000000000000000000000000000000000000082000000000000000000000000f7edc8fa1ecc32967f827c9043fcae6ba73afa5c00000000000000000000000000000000000000000000000000000000000003eb0000000000000000000000000000000000000000000000000000000000000080000000000000000000000000000000000000000000000000000000000000002850726f6a656374200000000000000000000000000000000000000000000000000000000000000004000000000000000000000000000000000000000000000000",
        "nonce": "0x3a",
        "accessList": []
      },
      "additionalContracts": [],
      "isFixedGasLimit": false
    },
    {
      "hash": "0xb4beab721d36a12e3cb89681789e54269b3779c65ea65185e78ddd555139f46e",
      "transactionType": "CALL",
      "contractName": null,
      "contractAddress": "0x02f1Da193Da9Ec0b9666bf45166078D50Cb582f1",
      "function": "createProject(uint256,address,uint256,string)",
      "arguments": [
        "140",
        "0x4CCeBa2d7D2B4fdcE4304d3e09a1fea9fbEb1528",
        "1004",
        "\"Project \\0\\0\\0\\0\\0\\0\\0\\0\\0\\0\\0\\0\\0\\0\\0\\0\\0\\0\\0\\0\\0\\0\\0\\0\\0\\0\\0\\0\\0\\0\\0\\u{5}\""
      ],
      "transaction": {
        "type": "0x02",
        "from": "0x26aa9bb6f36f404af102a53f327e2acf92aaf451",
        "to": "0x02f1da193da9ec0b9666bf45166078d50cb582f1",
        "gas": "0x46b0b",
        "value": "0x0",
        "data": "0x71c79f6b000000000000000000000000000000000000000000000000000000000000008c0000000000000000000000004cceba2d7d2b4fdce4304d3e09a1fea9fbeb152800000000000000000000000000000000000000000000000000000000000003ec0000000000000000000000000000000000000000000000000000000000000080000000000000000000000000000000000000000000000000000000000000002850726f6a656374200000000000000000000000000000000000000000000000000000000000000005000000000000000000000000000000000000000000000000",
        "nonce": "0x3b",
        "accessList": []
      },
      "additionalContracts": [],
      "isFixedGasLimit": false
    },
    {
      "hash": "0xf8b0c87419ac134f7bc36be72df0159b0a37e9cd4f111a7492656a6677ae2ac0",
      "transactionType": "CALL",
      "contractName": null,
      "contractAddress": "0x02f1Da193Da9Ec0b9666bf45166078D50Cb582f1",
      "function": "createVoter(string,address)",
      "arguments": [
        "\"Voter \\0\\0\\0\\0\\0\\0\\0\\0\\0\\0\\0\\0\\0\\0\\0\\0\\0\\0\\0\\0\\0\\0\\0\\0\\0\\0\\0\\0\\0\\0\\0\\u{1}\"",
        "0x3DA8D322CB2435dA26E9C9fEE670f9fB7Fe74E49"
      ],
      "transaction": {
        "type": "0x02",
        "from": "0x26aa9bb6f36f404af102a53f327e2acf92aaf451",
        "to": "0x02f1da193da9ec0b9666bf45166078d50cb582f1",
        "gas": "0x13d23",
        "value": "0x0",
        "data": "0x2a4be2ad00000000000000000000000000000000000000000000000000000000000000400000000000000000000000003da8d322cb2435da26e9c9fee670f9fb7fe74e490000000000000000000000000000000000000000000000000000000000000026566f7465722000000000000000000000000000000000000000000000000000000000000000010000000000000000000000000000000000000000000000000000",
        "nonce": "0x3c",
        "accessList": []
      },
      "additionalContracts": [],
      "isFixedGasLimit": false
    },
    {
      "hash": "0x03f0db8e18598308a6a8573e4de1bd9aa43d6e463682b44268469377227c19bf",
      "transactionType": "CALL",
      "contractName": null,
      "contractAddress": "0x02f1Da193Da9Ec0b9666bf45166078D50Cb582f1",
      "function": "createVoter(string,address)",
      "arguments": [
        "\"Voter \\0\\0\\0\\0\\0\\0\\0\\0\\0\\0\\0\\0\\0\\0\\0\\0\\0\\0\\0\\0\\0\\0\\0\\0\\0\\0\\0\\0\\0\\0\\0\\u{2}\"",
        "0xDbc23AE43a150ff8884B02Cea117b22D1c3b9796"
      ],
      "transaction": {
        "type": "0x02",
        "from": "0x26aa9bb6f36f404af102a53f327e2acf92aaf451",
        "to": "0x02f1da193da9ec0b9666bf45166078d50cb582f1",
        "gas": "0x390bc",
        "value": "0x0",
        "data": "0x2a4be2ad0000000000000000000000000000000000000000000000000000000000000040000000000000000000000000dbc23ae43a150ff8884b02cea117b22d1c3b97960000000000000000000000000000000000000000000000000000000000000026566f7465722000000000000000000000000000000000000000000000000000000000000000020000000000000000000000000000000000000000000000000000",
        "nonce": "0x3d",
        "accessList": []
      },
      "additionalContracts": [],
      "isFixedGasLimit": false
    },
    {
      "hash": "0xc1701782fc0aadc9ed99b3b1071b0c8c5e9f20d4991643d63330b87ce7e0dab2",
      "transactionType": "CALL",
      "contractName": null,
      "contractAddress": "0x02f1Da193Da9Ec0b9666bf45166078D50Cb582f1",
      "function": "createVoter(string,address)",
      "arguments": [
        "\"Voter \\0\\0\\0\\0\\0\\0\\0\\0\\0\\0\\0\\0\\0\\0\\0\\0\\0\\0\\0\\0\\0\\0\\0\\0\\0\\0\\0\\0\\0\\0\\0\\u{3}\"",
        "0x68E527780872cda0216Ba0d8fBD58b67a5D5e351"
      ],
      "transaction": {
        "type": "0x02",
        "from": "0x26aa9bb6f36f404af102a53f327e2acf92aaf451",
        "to": "0x02f1da193da9ec0b9666bf45166078d50cb582f1",
        "gas": "0x390bc",
        "value": "0x0",
        "data": "0x2a4be2ad000000000000000000000000000000000000000000000000000000000000004000000000000000000000000068e527780872cda0216ba0d8fbd58b67a5d5e3510000000000000000000000000000000000000000000000000000000000000026566f7465722000000000000000000000000000000000000000000000000000000000000000030000000000000000000000000000000000000000000000000000",
        "nonce": "0x3e",
        "accessList": []
      },
      "additionalContracts": [],
      "isFixedGasLimit": false
    },
    {
      "hash": "0x01d1d128f97ce269ce759f6915dd9add08ec1986d3e712fe9822f15ab191fa01",
      "transactionType": "CALL",
      "contractName": null,
      "contractAddress": "0x02f1Da193Da9Ec0b9666bf45166078D50Cb582f1",
      "function": "createVoter(string,address)",
      "arguments": [
        "\"Voter \\0\\0\\0\\0\\0\\0\\0\\0\\0\\0\\0\\0\\0\\0\\0\\0\\0\\0\\0\\0\\0\\0\\0\\0\\0\\0\\0\\0\\0\\0\\0\\u{4}\"",
        "0x5A83529ff76Ac5723A87008c4D9B436AD4CA7d28"
      ],
      "transaction": {
        "type": "0x02",
        "from": "0x26aa9bb6f36f404af102a53f327e2acf92aaf451",
        "to": "0x02f1da193da9ec0b9666bf45166078d50cb582f1",
        "gas": "0x3c65c",
        "value": "0x0",
        "data": "0x2a4be2ad00000000000000000000000000000000000000000000000000000000000000400000000000000000000000005a83529ff76ac5723a87008c4d9b436ad4ca7d280000000000000000000000000000000000000000000000000000000000000026566f7465722000000000000000000000000000000000000000000000000000000000000000040000000000000000000000000000000000000000000000000000",
        "nonce": "0x3f",
        "accessList": []
      },
      "additionalContracts": [],
      "isFixedGasLimit": false
    },
    {
      "hash": "0x2ddb6532522aaa7214ad62badfa3cda9ab22b40918405630f87f12893db4e12d",
      "transactionType": "CALL",
      "contractName": null,
      "contractAddress": "0x02f1Da193Da9Ec0b9666bf45166078D50Cb582f1",
      "function": "createVoter(string,address)",
      "arguments": [
        "\"Voter \\0\\0\\0\\0\\0\\0\\0\\0\\0\\0\\0\\0\\0\\0\\0\\0\\0\\0\\0\\0\\0\\0\\0\\0\\0\\0\\0\\0\\0\\0\\0\\u{5}\"",
        "0x8735015837bD10e05d9cf5EA43A2486Bf4Be156F"
      ],
      "transaction": {
        "type": "0x02",
        "from": "0x26aa9bb6f36f404af102a53f327e2acf92aaf451",
        "to": "0x02f1da193da9ec0b9666bf45166078d50cb582f1",
        "gas": "0x390bc",
        "value": "0x0",
        "data": "0x2a4be2ad00000000000000000000000000000000000000000000000000000000000000400000000000000000000000008735015837bd10e05d9cf5ea43a2486bf4be156f0000000000000000000000000000000000000000000000000000000000000026566f7465722000000000000000000000000000000000000000000000000000000000000000050000000000000000000000000000000000000000000000000000",
        "nonce": "0x40",
        "accessList": []
      },
      "additionalContracts": [],
      "isFixedGasLimit": false
    }
  ],
  "receipts": [
    {
      "transactionHash": "0x4cb6210719f8adb5296e7504f2427d5f3dc7d05e65a55763dd51f330344b48c9",
      "transactionIndex": "0x1",
      "blockHash": "0xaf25dce599085aab9e2f3233e8812596b3079623b9b9f4244b4a3cabdd9bcd28",
      "blockNumber": "0xd21e6e",
      "from": "0x26aA9BB6f36f404aF102A53F327E2aCf92aaF451",
      "to": "0x02f1Da193Da9Ec0b9666bf45166078D50Cb582f1",
      "cumulativeGasUsed": "0x17321",
      "gasUsed": "0xc7be",
      "contractAddress": null,
      "logs": [
        {
          "address": "0x02f1Da193Da9Ec0b9666bf45166078D50Cb582f1",
          "topics": [
            "0x8564fcb5cfd27fbe1e67f1f39f57adf7cb25eaeaf302379f358fe0686eb46688"
          ],
          "data": "0x00000000000000000000000000000000000000000000000000000000000000060000000000000000000000000000000000000000000000000000000000000040000000000000000000000000000000000000000000000000000000000000002c496e737469747574696f6e2000000000000000000000000000000000000000000000000000000000000000010000000000000000000000000000000000000000",
          "blockHash": "0xaf25dce599085aab9e2f3233e8812596b3079623b9b9f4244b4a3cabdd9bcd28",
          "blockNumber": "0xd21e6e",
          "transactionHash": "0x4cb6210719f8adb5296e7504f2427d5f3dc7d05e65a55763dd51f330344b48c9",
          "transactionIndex": "0x1",
          "logIndex": "0x0",
          "removed": false
        }
      ],
      "status": "0x1",
      "logsBloom": "0x00000000000000000000000000000000000000000000004000000000000000000000000000000000000000000000000000000000000000000000000000000000000000000000200000000000000000000000000000000000000000000000000000000000000000000000000000000000000000000000000000000000000000000000000000000000000000000000000000000000000000000000000000000000000000000000000000000000000000000000000040000000000000000000000000000000000000000000000000000000000040000020000000000000000000000000000000000000000000000000000000000000001000000000000000000000",
      "type": "0x2",
      "effectiveGasPrice": "0xb3391f8d"
    },
    {
      "transactionHash": "0x1c6d0f4cac209757e35810f81386699a54214dbefcde679b405ac726402600c6",
      "transactionIndex": "0x2",
      "blockHash": "0xaf25dce599085aab9e2f3233e8812596b3079623b9b9f4244b4a3cabdd9bcd28",
      "blockNumber": "0xd21e6e",
      "from": "0x26aA9BB6f36f404aF102A53F327E2aCf92aaF451",
      "to": "0x02f1Da193Da9Ec0b9666bf45166078D50Cb582f1",
      "cumulativeGasUsed": "0x23adf",
      "gasUsed": "0xc7be",
      "contractAddress": null,
      "logs": [
        {
          "address": "0x02f1Da193Da9Ec0b9666bf45166078D50Cb582f1",
          "topics": [
            "0x8564fcb5cfd27fbe1e67f1f39f57adf7cb25eaeaf302379f358fe0686eb46688"
          ],
          "data": "0x00000000000000000000000000000000000000000000000000000000000000070000000000000000000000000000000000000000000000000000000000000040000000000000000000000000000000000000000000000000000000000000002c496e737469747574696f6e2000000000000000000000000000000000000000000000000000000000000000020000000000000000000000000000000000000000",
          "blockHash": "0xaf25dce599085aab9e2f3233e8812596b3079623b9b9f4244b4a3cabdd9bcd28",
          "blockNumber": "0xd21e6e",
          "transactionHash": "0x1c6d0f4cac209757e35810f81386699a54214dbefcde679b405ac726402600c6",
          "transactionIndex": "0x2",
          "logIndex": "0x1",
          "removed": false
        }
      ],
      "status": "0x1",
      "logsBloom": "0x00000000000000000000000000000000000000000000004000000000000000000000000000000000000000000000000000000000000000000000000000000000000000000000200000000000000000000000000000000000000000000000000000000000000000000000000000000000000000000000000000000000000000000000000000000000000000000000000000000000000000000000000000000000000000000000000000000000000000000000000040000000000000000000000000000000000000000000000000000000000040000020000000000000000000000000000000000000000000000000000000000000001000000000000000000000",
      "type": "0x2",
      "effectiveGasPrice": "0xb3391f8d"
    },
    {
      "transactionHash": "0xe030c1bdb1d551ff4f43e01cd04c3db1c8d10c70e368fe2a76ed7d84548509b3",
      "transactionIndex": "0x3",
      "blockHash": "0xaf25dce599085aab9e2f3233e8812596b3079623b9b9f4244b4a3cabdd9bcd28",
      "blockNumber": "0xd21e6e",
      "from": "0x26aA9BB6f36f404aF102A53F327E2aCf92aaF451",
      "to": "0x02f1Da193Da9Ec0b9666bf45166078D50Cb582f1",
      "cumulativeGasUsed": "0x30291",
      "gasUsed": "0xc7b2",
      "contractAddress": null,
      "logs": [
        {
          "address": "0x02f1Da193Da9Ec0b9666bf45166078D50Cb582f1",
          "topics": [
            "0x8564fcb5cfd27fbe1e67f1f39f57adf7cb25eaeaf302379f358fe0686eb46688"
          ],
          "data": "0x00000000000000000000000000000000000000000000000000000000000000080000000000000000000000000000000000000000000000000000000000000040000000000000000000000000000000000000000000000000000000000000002c496e737469747574696f6e2000000000000000000000000000000000000000000000000000000000000000030000000000000000000000000000000000000000",
          "blockHash": "0xaf25dce599085aab9e2f3233e8812596b3079623b9b9f4244b4a3cabdd9bcd28",
          "blockNumber": "0xd21e6e",
          "transactionHash": "0xe030c1bdb1d551ff4f43e01cd04c3db1c8d10c70e368fe2a76ed7d84548509b3",
          "transactionIndex": "0x3",
          "logIndex": "0x2",
          "removed": false
        }
      ],
      "status": "0x1",
      "logsBloom": "0x00000000000000000000000000000000000000000000004000000000000000000000000000000000000000000000000000000000000000000000000000000000000000000000200000000000000000000000000000000000000000000000000000000000000000000000000000000000000000000000000000000000000000000000000000000000000000000000000000000000000000000000000000000000000000000000000000000000000000000000000040000000000000000000000000000000000000000000000000000000000040000020000000000000000000000000000000000000000000000000000000000000001000000000000000000000",
      "type": "0x2",
      "effectiveGasPrice": "0xb3391f8d"
    },
    {
      "transactionHash": "0x304a748ec35116f1f654c0b710fefb87f44afaa950e95d9c43807b13de07a88d",
      "transactionIndex": "0x4",
      "blockHash": "0xaf25dce599085aab9e2f3233e8812596b3079623b9b9f4244b4a3cabdd9bcd28",
      "blockNumber": "0xd21e6e",
      "from": "0x26aA9BB6f36f404aF102A53F327E2aCf92aaF451",
      "to": "0x02f1Da193Da9Ec0b9666bf45166078D50Cb582f1",
      "cumulativeGasUsed": "0x3ca4f",
      "gasUsed": "0xc7be",
      "contractAddress": null,
      "logs": [
        {
          "address": "0x02f1Da193Da9Ec0b9666bf45166078D50Cb582f1",
          "topics": [
            "0x8564fcb5cfd27fbe1e67f1f39f57adf7cb25eaeaf302379f358fe0686eb46688"
          ],
          "data": "0x00000000000000000000000000000000000000000000000000000000000000090000000000000000000000000000000000000000000000000000000000000040000000000000000000000000000000000000000000000000000000000000002c496e737469747574696f6e2000000000000000000000000000000000000000000000000000000000000000040000000000000000000000000000000000000000",
          "blockHash": "0xaf25dce599085aab9e2f3233e8812596b3079623b9b9f4244b4a3cabdd9bcd28",
          "blockNumber": "0xd21e6e",
          "transactionHash": "0x304a748ec35116f1f654c0b710fefb87f44afaa950e95d9c43807b13de07a88d",
          "transactionIndex": "0x4",
          "logIndex": "0x3",
          "removed": false
        }
      ],
      "status": "0x1",
      "logsBloom": "0x00000000000000000000000000000000000000000000004000000000000000000000000000000000000000000000000000000000000000000000000000000000000000000000200000000000000000000000000000000000000000000000000000000000000000000000000000000000000000000000000000000000000000000000000000000000000000000000000000000000000000000000000000000000000000000000000000000000000000000000000040000000000000000000000000000000000000000000000000000000000040000020000000000000000000000000000000000000000000000000000000000000001000000000000000000000",
      "type": "0x2",
      "effectiveGasPrice": "0xb3391f8d"
    },
    {
      "transactionHash": "0x83952dd62efdf8797309bbd999855139c1e3d3882fb19a37538cde4719743991",
      "transactionIndex": "0x1",
      "blockHash": "0x3fda7e8f80e8a0ff89e1b02df0a8579418372924d7c2e9a0f4f2c0feca61316d",
      "blockNumber": "0xd21e6f",
      "from": "0x26aA9BB6f36f404aF102A53F327E2aCf92aaF451",
      "to": "0x02f1Da193Da9Ec0b9666bf45166078D50Cb582f1",
      "cumulativeGasUsed": "0x19ed5",
      "gasUsed": "0xc7be",
      "contractAddress": null,
      "logs": [
        {
          "address": "0x02f1Da193Da9Ec0b9666bf45166078D50Cb582f1",
          "topics": [
            "0x8564fcb5cfd27fbe1e67f1f39f57adf7cb25eaeaf302379f358fe0686eb46688"
          ],
          "data": "0x000000000000000000000000000000000000000000000000000000000000000a0000000000000000000000000000000000000000000000000000000000000040000000000000000000000000000000000000000000000000000000000000002c496e737469747574696f6e2000000000000000000000000000000000000000000000000000000000000000050000000000000000000000000000000000000000",
          "blockHash": "0x3fda7e8f80e8a0ff89e1b02df0a8579418372924d7c2e9a0f4f2c0feca61316d",
          "blockNumber": "0xd21e6f",
          "transactionHash": "0x83952dd62efdf8797309bbd999855139c1e3d3882fb19a37538cde4719743991",
          "transactionIndex": "0x1",
          "logIndex": "0x0",
          "removed": false
        }
      ],
      "status": "0x1",
      "logsBloom": "0x00000000000000000000000000000000000000000000004000000000000000000000000000000000000000000000000000000000000000000000000000000000000000000000200000000000000000000000000000000000000000000000000000000000000000000000000000000000000000000000000000000000000000000000000000000000000000000000000000000000000000000000000000000000000000000000000000000000000000000000000040000000000000000000000000000000000000000000000000000000000040000020000000000000000000000000000000000000000000000000000000000000001000000000000000000000",
      "type": "0x2",
      "effectiveGasPrice": "0xb3390617"
    },
    {
      "transactionHash": "0xf051e9f7196dd0661e12449606d33c04880400cebdb32942f39fd4faa35cb379",
      "transactionIndex": "0x2",
      "blockHash": "0x3fda7e8f80e8a0ff89e1b02df0a8579418372924d7c2e9a0f4f2c0feca61316d",
      "blockNumber": "0xd21e6f",
      "from": "0x26aA9BB6f36f404aF102A53F327E2aCf92aaF451",
      "to": "0x02f1Da193Da9Ec0b9666bf45166078D50Cb582f1",
      "cumulativeGasUsed": "0x4d1b1",
      "gasUsed": "0x332dc",
      "contractAddress": null,
      "logs": [
        {
          "address": "0x02f1Da193Da9Ec0b9666bf45166078D50Cb582f1",
          "topics": [
            "0x1d01df2f27d43c539e43698d3850034aa4a290e2eb938fb45ef4631d4caea4b8"
          ],
          "data": "0x0000000000000000000000000000000000000000000000000000000000000006000000000000000000000000000000000000000000000000000000000000006000000000000000000000000000000000000000000000000000000000000003e8000000000000000000000000000000000000000000000000000000000000002850726f6a656374200000000000000000000000000000000000000000000000000000000000000001000000000000000000000000000000000000000000000000",
          "blockHash": "0x3fda7e8f80e8a0ff89e1b02df0a8579418372924d7c2e9a0f4f2c0feca61316d",
          "blockNumber": "0xd21e6f",
          "transactionHash": "0xf051e9f7196dd0661e12449606d33c04880400cebdb32942f39fd4faa35cb379",
          "transactionIndex": "0x2",
          "logIndex": "0x1",
          "removed": false
        }
      ],
      "status": "0x1",
      "logsBloom": "0x00000000000000000000000000000000000000000000000000000000000000000000000000000000000000000000000000000000000000000000000000000000000000000000000000000000000000000000000000000400000000000000000000000000000000000000000000000000000000000000000000000000000000000000000000000000000000000000000000000400000000000000000000000000000000000000000000000000000000000000000040000000000000000000200000000000000000000000000000000000000040000020000000000000000000000000000000000000000000000000000000000000000000000000000000000000",
      "type": "0x2",
      "effectiveGasPrice": "0xb3390617"
    },
    {
      "transactionHash": "0xa203a3edaece05ae3222511c5a6ae94f69da680fa6207e04e095a89d4a191447",
      "transactionIndex": "0x3",
      "blockHash": "0x3fda7e8f80e8a0ff89e1b02df0a8579418372924d7c2e9a0f4f2c0feca61316d",
      "blockNumber": "0xd21e6f",
      "from": "0x26aA9BB6f36f404aF102A53F327E2aCf92aaF451",
      "to": "0x02f1Da193Da9Ec0b9666bf45166078D50Cb582f1",
      "cumulativeGasUsed": "0x8048d",
      "gasUsed": "0x332dc",
      "contractAddress": null,
      "logs": [
        {
          "address": "0x02f1Da193Da9Ec0b9666bf45166078D50Cb582f1",
          "topics": [
            "0x1d01df2f27d43c539e43698d3850034aa4a290e2eb938fb45ef4631d4caea4b8"
          ],
          "data": "0x0000000000000000000000000000000000000000000000000000000000000007000000000000000000000000000000000000000000000000000000000000006000000000000000000000000000000000000000000000000000000000000003e9000000000000000000000000000000000000000000000000000000000000002850726f6a656374200000000000000000000000000000000000000000000000000000000000000002000000000000000000000000000000000000000000000000",
          "blockHash": "0x3fda7e8f80e8a0ff89e1b02df0a8579418372924d7c2e9a0f4f2c0feca61316d",
          "blockNumber": "0xd21e6f",
          "transactionHash": "0xa203a3edaece05ae3222511c5a6ae94f69da680fa6207e04e095a89d4a191447",
          "transactionIndex": "0x3",
          "logIndex": "0x2",
          "removed": false
        }
      ],
      "status": "0x1",
      "logsBloom": "0x00000000000000000000000000000000000000000000000000000000000000000000000000000000000000000000000000000000000000000000000000000000000000000000000000000000000000000000000000000400000000000000000000000000000000000000000000000000000000000000000000000000000000000000000000000000000000000000000000000400000000000000000000000000000000000000000000000000000000000000000040000000000000000000200000000000000000000000000000000000000040000020000000000000000000000000000000000000000000000000000000000000000000000000000000000000",
      "type": "0x2",
      "effectiveGasPrice": "0xb3390617"
    },
    {
      "transactionHash": "0x70a66cb2e6de18eb2f08d4166420b00da64234e9e8c8da1bf9e8b9abba1e11f8",
      "transactionIndex": "0x1",
      "blockHash": "0x16401779c4280bc7702c5d4e26097fb6688536299326935506038fcf61d9448e",
      "blockNumber": "0xd21e70",
      "from": "0x26aA9BB6f36f404aF102A53F327E2aCf92aaF451",
      "to": "0x02f1Da193Da9Ec0b9666bf45166078D50Cb582f1",
      "cumulativeGasUsed": "0x3de3f",
      "gasUsed": "0x332dc",
      "contractAddress": null,
      "logs": [
        {
          "address": "0x02f1Da193Da9Ec0b9666bf45166078D50Cb582f1",
          "topics": [
            "0x1d01df2f27d43c539e43698d3850034aa4a290e2eb938fb45ef4631d4caea4b8"
          ],
          "data": "0x0000000000000000000000000000000000000000000000000000000000000008000000000000000000000000000000000000000000000000000000000000006000000000000000000000000000000000000000000000000000000000000003ea000000000000000000000000000000000000000000000000000000000000002850726f6a656374200000000000000000000000000000000000000000000000000000000000000003000000000000000000000000000000000000000000000000",
          "blockHash": "0x16401779c4280bc7702c5d4e26097fb6688536299326935506038fcf61d9448e",
          "blockNumber": "0xd21e70",
          "transactionHash": "0x70a66cb2e6de18eb2f08d4166420b00da64234e9e8c8da1bf9e8b9abba1e11f8",
          "transactionIndex": "0x1",
          "logIndex": "0x0",
          "removed": false
        }
      ],
      "status": "0x1",
      "logsBloom": "0x00000000000000000000000000000000000000000000000000000000000000000000000000000000000000000000000000000000000000000000000000000000000000000000000000000000000000000000000000000400000000000000000000000000000000000000000000000000000000000000000000000000000000000000000000000000000000000000000000000400000000000000000000000000000000000000000000000000000000000000000040000000000000000000200000000000000000000000000000000000000040000020000000000000000000000000000000000000000000000000000000000000000000000000000000000000",
      "type": "0x2",
      "effectiveGasPrice": "0xb338d09f"
    },
    {
      "transactionHash": "0x2ef441627825fd2faaed45f2871fe963f0c1a40e9158b4ce7b44beef644c9c8d",
      "transactionIndex": "0x2",
      "blockHash": "0x16401779c4280bc7702c5d4e26097fb6688536299326935506038fcf61d9448e",
      "blockNumber": "0xd21e70",
      "from": "0x26aA9BB6f36f404aF102A53F327E2aCf92aaF451",
      "to": "0x02f1Da193Da9Ec0b9666bf45166078D50Cb582f1",
      "cumulativeGasUsed": "0x7111b",
      "gasUsed": "0x332dc",
      "contractAddress": null,
      "logs": [
        {
          "address": "0x02f1Da193Da9Ec0b9666bf45166078D50Cb582f1",
          "topics": [
            "0x1d01df2f27d43c539e43698d3850034aa4a290e2eb938fb45ef4631d4caea4b8"
          ],
          "data": "0x0000000000000000000000000000000000000000000000000000000000000009000000000000000000000000000000000000000000000000000000000000006000000000000000000000000000000000000000000000000000000000000003eb000000000000000000000000000000000000000000000000000000000000002850726f6a656374200000000000000000000000000000000000000000000000000000000000000004000000000000000000000000000000000000000000000000",
          "blockHash": "0x16401779c4280bc7702c5d4e26097fb6688536299326935506038fcf61d9448e",
          "blockNumber": "0xd21e70",
          "transactionHash": "0x2ef441627825fd2faaed45f2871fe963f0c1a40e9158b4ce7b44beef644c9c8d",
          "transactionIndex": "0x2",
          "logIndex": "0x1",
          "removed": false
        }
      ],
      "status": "0x1",
      "logsBloom": "0x00000000000000000000000000000000000000000000000000000000000000000000000000000000000000000000000000000000000000000000000000000000000000000000000000000000000000000000000000000400000000000000000000000000000000000000000000000000000000000000000000000000000000000000000000000000000000000000000000000400000000000000000000000000000000000000000000000000000000000000000040000000000000000000200000000000000000000000000000000000000040000020000000000000000000000000000000000000000000000000000000000000000000000000000000000000",
      "type": "0x2",
      "effectiveGasPrice": "0xb338d09f"
    },
    {
      "transactionHash": "0xb4beab721d36a12e3cb89681789e54269b3779c65ea65185e78ddd555139f46e",
      "transactionIndex": "0x3",
      "blockHash": "0x16401779c4280bc7702c5d4e26097fb6688536299326935506038fcf61d9448e",
      "blockNumber": "0xd21e70",
      "from": "0x26aA9BB6f36f404aF102A53F327E2aCf92aaF451",
      "to": "0x02f1Da193Da9Ec0b9666bf45166078D50Cb582f1",
      "cumulativeGasUsed": "0xa43f7",
      "gasUsed": "0x332dc",
      "contractAddress": null,
      "logs": [
        {
          "address": "0x02f1Da193Da9Ec0b9666bf45166078D50Cb582f1",
          "topics": [
            "0x1d01df2f27d43c539e43698d3850034aa4a290e2eb938fb45ef4631d4caea4b8"
          ],
          "data": "0x000000000000000000000000000000000000000000000000000000000000000a000000000000000000000000000000000000000000000000000000000000006000000000000000000000000000000000000000000000000000000000000003ec000000000000000000000000000000000000000000000000000000000000002850726f6a656374200000000000000000000000000000000000000000000000000000000000000005000000000000000000000000000000000000000000000000",
          "blockHash": "0x16401779c4280bc7702c5d4e26097fb6688536299326935506038fcf61d9448e",
          "blockNumber": "0xd21e70",
          "transactionHash": "0xb4beab721d36a12e3cb89681789e54269b3779c65ea65185e78ddd555139f46e",
          "transactionIndex": "0x3",
          "logIndex": "0x2",
          "removed": false
        }
      ],
      "status": "0x1",
      "logsBloom": "0x00000000000000000000000000000000000000000000000000000000000000000000000000000000000000000000000000000000000000000000000000000000000000000000000000000000000000000000000000000400000000000000000000000000000000000000000000000000000000000000000000000000000000000000000000000000000000000000000000000400000000000000000000000000000000000000000000000000000000000000000040000000000000000000200000000000000000000000000000000000000040000020000000000000000000000000000000000000000000000000000000000000000000000000000000000000",
      "type": "0x2",
      "effectiveGasPrice": "0xb338d09f"
    },
    {
      "transactionHash": "0xf8b0c87419ac134f7bc36be72df0159b0a37e9cd4f111a7492656a6677ae2ac0",
      "transactionIndex": "0x4",
      "blockHash": "0x16401779c4280bc7702c5d4e26097fb6688536299326935506038fcf61d9448e",
      "blockNumber": "0xd21e70",
      "from": "0x26aA9BB6f36f404aF102A53F327E2aCf92aaF451",
      "to": "0x02f1Da193Da9Ec0b9666bf45166078D50Cb582f1",
      "cumulativeGasUsed": "0xb1cd0",
      "gasUsed": "0xd8d9",
      "contractAddress": null,
      "logs": [
        {
          "address": "0x02f1Da193Da9Ec0b9666bf45166078D50Cb582f1",
          "topics": [
            "0x902813d9d8cdb71697048d14e9e27d033cb3bba4db3b358c16e750ab5d796451"
          ],
          "data": "0x000000000000000000000000000000000000000000000000000000000000000200000000000000000000000000000000000000000000000000000000000000400000000000000000000000000000000000000000000000000000000000000026566f7465722000000000000000000000000000000000000000000000000000000000000000010000000000000000000000000000000000000000000000000000",
          "blockHash": "0x16401779c4280bc7702c5d4e26097fb6688536299326935506038fcf61d9448e",
          "blockNumber": "0xd21e70",
          "transactionHash": "0xf8b0c87419ac134f7bc36be72df0159b0a37e9cd4f111a7492656a6677ae2ac0",
          "transactionIndex": "0x4",
          "logIndex": "0x3",
          "removed": false
        }
      ],
      "status": "0x1",
      "logsBloom": "0x00000000000000000000000000000000000000000000000000000000000000000000000000000000000000000000000000000000000000000000000000000000000000000000000000000000000000000000000000000000000000000000000000000000000000000000000000000000000100000000000000000000000000000000000000000000000000000000004000000000000000000000010000000000000000000000000000000000000000000000000040000000000000000000000000000000000000000000000000000000000040000020000000000000000000000000000000000000000000000000000000000000000000000000000000000000",
      "type": "0x2",
      "effectiveGasPrice": "0xb338d09f"
    },
    {
      "transactionHash": "0x03f0db8e18598308a6a8573e4de1bd9aa43d6e463682b44268469377227c19bf",
      "transactionIndex": "0x5",
      "blockHash": "0x16401779c4280bc7702c5d4e26097fb6688536299326935506038fcf61d9448e",
      "blockNumber": "0xd21e70",
      "from": "0x26aA9BB6f36f404aF102A53F327E2aCf92aaF451",
      "to": "0x02f1Da193Da9Ec0b9666bf45166078D50Cb582f1",
      "cumulativeGasUsed": "0xdb19f",
      "gasUsed": "0x294cf",
      "contractAddress": null,
      "logs": [
        {
          "address": "0x02f1Da193Da9Ec0b9666bf45166078D50Cb582f1",
          "topics": [
            "0x902813d9d8cdb71697048d14e9e27d033cb3bba4db3b358c16e750ab5d796451"
          ],
          "data": "0x000000000000000000000000000000000000000000000000000000000000000300000000000000000000000000000000000000000000000000000000000000400000000000000000000000000000000000000000000000000000000000000026566f7465722000000000000000000000000000000000000000000000000000000000000000020000000000000000000000000000000000000000000000000000",
          "blockHash": "0x16401779c4280bc7702c5d4e26097fb6688536299326935506038fcf61d9448e",
          "blockNumber": "0xd21e70",
          "transactionHash": "0x03f0db8e18598308a6a8573e4de1bd9aa43d6e463682b44268469377227c19bf",
          "transactionIndex": "0x5",
          "logIndex": "0x4",
          "removed": false
        }
      ],
      "status": "0x1",
      "logsBloom": "0x00000000000000000000000000000000000000000000000000000000000000000000000000000000000000000000000000000000000000000000000000000000000000000000000000000000000000000000000000000000000000000000000000000000000000000000000000000000000100000000000000000000000000000000000000000000000000000000004000000000000000000000010000000000000000000000000000000000000000000000000040000000000000000000000000000000000000000000000000000000000040000020000000000000000000000000000000000000000000000000000000000000000000000000000000000000",
      "type": "0x2",
      "effectiveGasPrice": "0xb338d09f"
    },
    {
      "transactionHash": "0xc1701782fc0aadc9ed99b3b1071b0c8c5e9f20d4991643d63330b87ce7e0dab2",
      "transactionIndex": "0x6",
      "blockHash": "0x16401779c4280bc7702c5d4e26097fb6688536299326935506038fcf61d9448e",
      "blockNumber": "0xd21e70",
      "from": "0x26aA9BB6f36f404aF102A53F327E2aCf92aaF451",
      "to": "0x02f1Da193Da9Ec0b9666bf45166078D50Cb582f1",
      "cumulativeGasUsed": "0x10466e",
      "gasUsed": "0x294cf",
      "contractAddress": null,
      "logs": [
        {
          "address": "0x02f1Da193Da9Ec0b9666bf45166078D50Cb582f1",
          "topics": [
            "0x902813d9d8cdb71697048d14e9e27d033cb3bba4db3b358c16e750ab5d796451"
          ],
          "data": "0x000000000000000000000000000000000000000000000000000000000000000400000000000000000000000000000000000000000000000000000000000000400000000000000000000000000000000000000000000000000000000000000026566f7465722000000000000000000000000000000000000000000000000000000000000000030000000000000000000000000000000000000000000000000000",
          "blockHash": "0x16401779c4280bc7702c5d4e26097fb6688536299326935506038fcf61d9448e",
          "blockNumber": "0xd21e70",
          "transactionHash": "0xc1701782fc0aadc9ed99b3b1071b0c8c5e9f20d4991643d63330b87ce7e0dab2",
          "transactionIndex": "0x6",
          "logIndex": "0x5",
          "removed": false
        }
      ],
      "status": "0x1",
      "logsBloom": "0x00000000000000000000000000000000000000000000000000000000000000000000000000000000000000000000000000000000000000000000000000000000000000000000000000000000000000000000000000000000000000000000000000000000000000000000000000000000000100000000000000000000000000000000000000000000000000000000004000000000000000000000010000000000000000000000000000000000000000000000000040000000000000000000000000000000000000000000000000000000000040000020000000000000000000000000000000000000000000000000000000000000000000000000000000000000",
      "type": "0x2",
      "effectiveGasPrice": "0xb338d09f"
    },
    {
      "transactionHash": "0x01d1d128f97ce269ce759f6915dd9add08ec1986d3e712fe9822f15ab191fa01",
      "transactionIndex": "0x7",
      "blockHash": "0x16401779c4280bc7702c5d4e26097fb6688536299326935506038fcf61d9448e",
      "blockNumber": "0xd21e70",
      "from": "0x26aA9BB6f36f404aF102A53F327E2aCf92aaF451",
      "to": "0x02f1Da193Da9Ec0b9666bf45166078D50Cb582f1",
      "cumulativeGasUsed": "0x12db31",
      "gasUsed": "0x294c3",
      "contractAddress": null,
      "logs": [
        {
          "address": "0x02f1Da193Da9Ec0b9666bf45166078D50Cb582f1",
          "topics": [
            "0x902813d9d8cdb71697048d14e9e27d033cb3bba4db3b358c16e750ab5d796451"
          ],
          "data": "0x000000000000000000000000000000000000000000000000000000000000000500000000000000000000000000000000000000000000000000000000000000400000000000000000000000000000000000000000000000000000000000000026566f7465722000000000000000000000000000000000000000000000000000000000000000040000000000000000000000000000000000000000000000000000",
          "blockHash": "0x16401779c4280bc7702c5d4e26097fb6688536299326935506038fcf61d9448e",
          "blockNumber": "0xd21e70",
          "transactionHash": "0x01d1d128f97ce269ce759f6915dd9add08ec1986d3e712fe9822f15ab191fa01",
          "transactionIndex": "0x7",
          "logIndex": "0x6",
          "removed": false
        }
      ],
      "status": "0x1",
      "logsBloom": "0x00000000000000000000000000000000000000000000000000000000000000000000000000000000000000000000000000000000000000000000000000000000000000000000000000000000000000000000000000000000000000000000000000000000000000000000000000000000000100000000000000000000000000000000000000000000000000000000004000000000000000000000010000000000000000000000000000000000000000000000000040000000000000000000000000000000000000000000000000000000000040000020000000000000000000000000000000000000000000000000000000000000000000000000000000000000",
      "type": "0x2",
      "effectiveGasPrice": "0xb338d09f"
    },
    {
      "transactionHash": "0x2ddb6532522aaa7214ad62badfa3cda9ab22b40918405630f87f12893db4e12d",
      "transactionIndex": "0x8",
      "blockHash": "0x16401779c4280bc7702c5d4e26097fb6688536299326935506038fcf61d9448e",
      "blockNumber": "0xd21e70",
      "from": "0x26aA9BB6f36f404aF102A53F327E2aCf92aaF451",
      "to": "0x02f1Da193Da9Ec0b9666bf45166078D50Cb582f1",
      "cumulativeGasUsed": "0x157000",
      "gasUsed": "0x294cf",
      "contractAddress": null,
      "logs": [
        {
          "address": "0x02f1Da193Da9Ec0b9666bf45166078D50Cb582f1",
          "topics": [
            "0x902813d9d8cdb71697048d14e9e27d033cb3bba4db3b358c16e750ab5d796451"
          ],
          "data": "0x000000000000000000000000000000000000000000000000000000000000000600000000000000000000000000000000000000000000000000000000000000400000000000000000000000000000000000000000000000000000000000000026566f7465722000000000000000000000000000000000000000000000000000000000000000050000000000000000000000000000000000000000000000000000",
          "blockHash": "0x16401779c4280bc7702c5d4e26097fb6688536299326935506038fcf61d9448e",
          "blockNumber": "0xd21e70",
          "transactionHash": "0x2ddb6532522aaa7214ad62badfa3cda9ab22b40918405630f87f12893db4e12d",
          "transactionIndex": "0x8",
          "logIndex": "0x7",
          "removed": false
        }
      ],
      "status": "0x1",
      "logsBloom": "0x00000000000000000000000000000000000000000000000000000000000000000000000000000000000000000000000000000000000000000000000000000000000000000000000000000000000000000000000000000000000000000000000000000000000000000000000000000000000100000000000000000000000000000000000000000000000000000000004000000000000000000000010000000000000000000000000000000000000000000000000040000000000000000000000000000000000000000000000000000000000040000020000000000000000000000000000000000000000000000000000000000000000000000000000000000000",
      "type": "0x2",
      "effectiveGasPrice": "0xb338d09f"
    }
  ],
  "libraries": [],
  "pending": [],
  "returns": {},
  "timestamp": 1723308997,
  "chain": 84532,
  "multi": false,
  "commit": "d6107bf"
}