{
  "transactions": [
    {
      "hash": "0x9103e0e6406bb9a3077ca5b88b389e91c89bbd682682736d3eeba3472583dcb2",
      "transactionType": "CALL",
      "contractName": null,
      "contractAddress": "0x02f1Da193Da9Ec0b9666bf45166078D50Cb582f1",
      "function": "createInstitution(string,address)",
      "arguments": [
        "\"Institution \\0\\0\\0\\0\\0\\0\\0\\0\\0\\0\\0\\0\\0\\0\\0\\0\\0\\0\\0\\0\\0\\0\\0\\0\\0\\0\\0\\0\\0\\0\\0\\u{1}\"",
        "0x7E5F4552091A69125d5DfCb7b8C2659029395Bdf"
      ],
      "transaction": {
        "type": "0x02",
        "from": "0x034e2cc5f2eee18d90376166028c153794c8e913",
        "to": "0x02f1da193da9ec0b9666bf45166078d50cb582f1",
        "gas": "0x3d560",
        "value": "0x0",
        "data": "0xe748f56800000000000000000000000000000000000000000000000000000000000000400000000000000000000000007e5f4552091a69125d5dfcb7b8c2659029395bdf000000000000000000000000000000000000000000000000000000000000002c496e737469747574696f6e2000000000000000000000000000000000000000000000000000000000000000010000000000000000000000000000000000000000",
        "nonce": "0x2",
        "accessList": []
      },
      "additionalContracts": [],
      "isFixedGasLimit": false
    },
    {
      "hash": "0x72cc8da566f56e106d5818a6e3013608ea5403a974b15d829c906fc8ffd0381b",
      "transactionType": "CALL",
      "contractName": null,
      "contractAddress": "0x02f1Da193Da9Ec0b9666bf45166078D50Cb582f1",
      "function": "createInstitution(string,address)",
      "arguments": [
        "\"Institution \\0\\0\\0\\0\\0\\0\\0\\0\\0\\0\\0\\0\\0\\0\\0\\0\\0\\0\\0\\0\\0\\0\\0\\0\\0\\0\\0\\0\\0\\0\\0\\u{2}\"",
        "0x2B5AD5c4795c026514f8317c7a215E218DcCD6cF"
      ],
      "transaction": {
        "type": "0x02",
        "from": "0x034e2cc5f2eee18d90376166028c153794c8e913",
        "to": "0x02f1da193da9ec0b9666bf45166078d50cb582f1",
        "gas": "0x3791d",
        "value": "0x0",
        "data": "0xe748f56800000000000000000000000000000000000000000000000000000000000000400000000000000000000000002b5ad5c4795c026514f8317c7a215e218dccd6cf000000000000000000000000000000000000000000000000000000000000002c496e737469747574696f6e2000000000000000000000000000000000000000000000000000000000000000020000000000000000000000000000000000000000",
        "nonce": "0x3",
        "accessList": []
      },
      "additionalContracts": [],
      "isFixedGasLimit": false
    },
    {
      "hash": "0x1bbe4d69e394f67c0763e75640e423159af8b844b2eeb4644faa01187527e079",
      "transactionType": "CALL",
      "contractName": null,
      "contractAddress": "0x02f1Da193Da9Ec0b9666bf45166078D50Cb582f1",
      "function": "createInstitution(string,address)",
      "arguments": [
        "\"Institution \\0\\0\\0\\0\\0\\0\\0\\0\\0\\0\\0\\0\\0\\0\\0\\0\\0\\0\\0\\0\\0\\0\\0\\0\\0\\0\\0\\0\\0\\0\\0\\u{3}\"",
        "0x6813Eb9362372EEF6200f3b1dbC3f819671cBA69"
      ],
      "transaction": {
        "type": "0x02",
        "from": "0x034e2cc5f2eee18d90376166028c153794c8e913",
        "to": "0x02f1da193da9ec0b9666bf45166078d50cb582f1",
        "gas": "0x3790c",
        "value": "0x0",
        "data": "0xe748f56800000000000000000000000000000000000000000000000000000000000000400000000000000000000000006813eb9362372eef6200f3b1dbc3f819671cba69000000000000000000000000000000000000000000000000000000000000002c496e737469747574696f6e2000000000000000000000000000000000000000000000000000000000000000030000000000000000000000000000000000000000",
        "nonce": "0x4",
        "accessList": []
      },
      "additionalContracts": [],
      "isFixedGasLimit": false
    },
    {
      "hash": "0x6f69d28a94ec506dbd47febb1b9f980d8f1cb7b00b5aed1b9e00301ef0483234",
      "transactionType": "CALL",
      "contractName": null,
      "contractAddress": "0x02f1Da193Da9Ec0b9666bf45166078D50Cb582f1",
      "function": "createInstitution(string,address)",
      "arguments": [
        "\"Institution \\0\\0\\0\\0\\0\\0\\0\\0\\0\\0\\0\\0\\0\\0\\0\\0\\0\\0\\0\\0\\0\\0\\0\\0\\0\\0\\0\\0\\0\\0\\0\\u{4}\"",
        "0x1efF47bc3a10a45D4B230B5d10E37751FE6AA718"
      ],
      "transaction": {
        "type": "0x02",
        "from": "0x034e2cc5f2eee18d90376166028c153794c8e913",
        "to": "0x02f1da193da9ec0b9666bf45166078d50cb582f1",
        "gas": "0x3791d",
        "value": "0x0",
        "data": "0xe748f56800000000000000000000000000000000000000000000000000000000000000400000000000000000000000001eff47bc3a10a45d4b230b5d10e37751fe6aa718000000000000000000000000000000000000000000000000000000000000002c496e737469747574696f6e2000000000000000000000000000000000000000000000000000000000000000040000000000000000000000000000000000000000",
        "nonce": "0x5",
        "accessList": []
      },
      "additionalContracts": [],
      "isFixedGasLimit": false
    },
    {
      "hash": "0xa7518324ab189af868d1d144e0113f8cba1b278cfbe009ace9f2e3eec4036193",
      "transactionType": "CALL",
      "contractName": null,
      "contractAddress": "0x02f1Da193Da9Ec0b9666bf45166078D50Cb582f1",
      "function": "createInstitution(string,address)",
      "arguments": [
        "\"Institution \\0\\0\\0\\0\\0\\0\\0\\0\\0\\0\\0\\0\\0\\0\\0\\0\\0\\0\\0\\0\\0\\0\\0\\0\\0\\0\\0\\0\\0\\0\\0\\u{5}\"",
        "0xe1AB8145F7E55DC933d51a18c793F901A3A0b276"
      ],
      "transaction": {
        "type": "0x02",
        "from": "0x034e2cc5f2eee18d90376166028c153794c8e913",
        "to": "0x02f1da193da9ec0b9666bf45166078d50cb582f1",
        "gas": "0x3791d",
        "value": "0x0",
        "data": "0xe748f5680000000000000000000000000000000000000000000000000000000000000040000000000000000000000000e1ab8145f7e55dc933d51a18c793f901a3a0b276000000000000000000000000000000000000000000000000000000000000002c496e737469747574696f6e2000000000000000000000000000000000000000000000000000000000000000050000000000000000000000000000000000000000",
        "nonce": "0x6",
        "accessList": []
      },
      "additionalContracts": [],
      "isFixedGasLimit": false
    },
    {
      "hash": "0x2ca86a00aaa68f89e98baea870ce7dedc2f6a3613d7fddc8097d2e97d0ae577f",
      "transactionType": "CALL",
      "contractName": null,
      "contractAddress": "0x02f1Da193Da9Ec0b9666bf45166078D50Cb582f1",
      "function": "createProject(uint256,address,uint256,string)",
      "arguments": [
        "100",
        "0xE57bFE9F44b819898F47BF37E5AF72a0783e1141",
        "1000",
        "\"Project \\0\\0\\0\\0\\0\\0\\0\\0\\0\\0\\0\\0\\0\\0\\0\\0\\0\\0\\0\\0\\0\\0\\0\\0\\0\\0\\0\\0\\0\\0\\0\\u{1}\""
      ],
      "transaction": {
        "type": "0x02",
        "from": "0x034e2cc5f2eee18d90376166028c153794c8e913",
        "to": "0x02f1da193da9ec0b9666bf45166078d50cb582f1",
        "gas": "0x46b0b",
        "value": "0x0",
        "data": "0x71c79f6b0000000000000000000000000000000000000000000000000000000000000064000000000000000000000000e57bfe9f44b819898f47bf37e5af72a0783e114100000000000000000000000000000000000000000000000000000000000003e80000000000000000000000000000000000000000000000000000000000000080000000000000000000000000000000000000000000000000000000000000002850726f6a656374200000000000000000000000000000000000000000000000000000000000000001000000000000000000000000000000000000000000000000",
        "nonce": "0x7",
        "accessList": []
      },
      "additionalContracts": [],
      "isFixedGasLimit": false
    },
    {
      "hash": "0x4e9979110d5839e0060ef901ce39df2cc16c8f8abee569f656c13f43899eb2dd",
      "transactionType": "CALL",
      "contractName": null,
      "contractAddress": "0x02f1Da193Da9Ec0b9666bf45166078D50Cb582f1",
      "function": "createProject(uint256,address,uint256,string)",
      "arguments": [
        "110",
        "0xd41c057fd1c78805AAC12B0A94a405c0461A6FBb",
        "1001",
        "\"Project \\0\\0\\0\\0\\0\\0\\0\\0\\0\\0\\0\\0\\0\\0\\0\\0\\0\\0\\0\\0\\0\\0\\0\\0\\0\\0\\0\\0\\0\\0\\0\\u{2}\""
      ],
      "transaction": {
        "type": "0x02",
        "from": "0x034e2cc5f2eee18d90376166028c153794c8e913",
        "to": "0x02f1da193da9ec0b9666bf45166078d50cb582f1",
        "gas": "0x46b0b",
        "value": "0x0",
        "data": "0x71c79f6b000000000000000000000000000000000000000000000000000000000000006e000000000000000000000000d41c057fd1c78805aac12b0a94a405c0461a6fbb00000000000000000000000000000000000000000000000000000000000003e90000000000000000000000000000000000000000000000000000000000000080000000000000000000000000000000000000000000000000000000000000002850726f6a656374200000000000000000000000000000000000000000000000000000000000000002000000000000000000000000000000000000000000000000",
        "nonce": "0x8",
        "accessList": []
      },
      "additionalContracts": [],
      "isFixedGasLimit": false
    },
    {
      "hash": "0xf01cc374a05d19760d24679c8507d6ced33f96587112f4831089d683e5621052",
      "transactionType": "CALL",
      "contractName": null,
      "contractAddress": "0x02f1Da193Da9Ec0b9666bf45166078D50Cb582f1",
      "function": "createProject(uint256,address,uint256,string)",
      "arguments": [
        "120",
        "0xF1F6619B38A98d6De0800F1DefC0a6399eB6d30C",
        "1002",
        "\"Project \\0\\0\\0\\0\\0\\0\\0\\0\\0\\0\\0\\0\\0\\0\\0\\0\\0\\0\\0\\0\\0\\0\\0\\0\\0\\0\\0\\0\\0\\0\\0\\u{3}\""
      ],
      "transaction": {
        "type": "0x02",
        "from": "0x034e2cc5f2eee18d90376166028c153794c8e913",
        "to": "0x02f1da193da9ec0b9666bf45166078d50cb582f1",
        "gas": "0x46b0b",
        "value": "0x0",
        "data": "0x71c79f6b0000000000000000000000000000000000000000000000000000000000000078000000000000000000000000f1f6619b38a98d6de0800f1defc0a6399eb6d30c00000000000000000000000000000000000000000000000000000000000003ea0000000000000000000000000000000000000000000000000000000000000080000000000000000000000000000000000000000000000000000000000000002850726f6a656374200000000000000000000000000000000000000000000000000000000000000003000000000000000000000000000000000000000000000000",
        "nonce": "0x9",
        "accessList": []
      },
      "additionalContracts": [],
      "isFixedGasLimit": false
    },
    {
      "hash": "0x720782f381bc4fdf8c8cad8cbad5cc1fcd2129b22b8a9d4c880989b1a447648b",
      "transactionType": "CALL",
      "contractName": null,
      "contractAddress": "0x02f1Da193Da9Ec0b9666bf45166078D50Cb582f1",
      "function": "createProject(uint256,address,uint256,string)",
      "arguments": [
        "130",
        "0xF7Edc8FA1eCc32967F827C9043FcAe6ba73afA5c",
        "1003",
        "\"Project \\0\\0\\0\\0\\0\\0\\0\\0\\0\\0\\0\\0\\0\\0\\0\\0\\0\\0\\0\\0\\0\\0\\0\\0\\0\\0\\0\\0\\0\\0\\0\\u{4}\""
      ],
      "transaction": {
        "type": "0x02",
        "from": "0x034e2cc5f2eee18d90376166028c153794c8e913",
        "to": "0x02f1da193da9ec0b9666bf45166078d50cb582f1",
        "gas": "0x46b0b",
        "value": "0x0",
        "data": "0x71c79f6b0000000000000000000000000000000000000000000000000000000000000082000000000000000000000000f7edc8fa1ecc32967f827c9043fcae6ba73afa5c00000000000000000000000000000000000000000000000000000000000003eb0000000000000000000000000000000000000000000000000000000000000080000000000000000000000000000000000000000000000000000000000000002850726f6a656374200000000000000000000000000000000000000000000000000000000000000004000000000000000000000000000000000000000000000000",
        "nonce": "0xa",
        "accessList": []
      },
      "additionalContracts": [],
      "isFixedGasLimit": false
    },
    {
      "hash": "0x30a03ab96be05f35fea51eb9450873e8f3af2c938b262f8a4e18f2ac628657b9",
      "transactionType": "CALL",
      "contractName": null,
      "contractAddress": "0x02f1Da193Da9Ec0b9666bf45166078D50Cb582f1",
      "function": "createProject(uint256,address,uint256,string)",
      "arguments": [
        "140",
        "0x4CCeBa2d7D2B4fdcE4304d3e09a1fea9fbEb1528",
        "1004",
        "\"Project \\0\\0\\0\\0\\0\\0\\0\\0\\0\\0\\0\\0\\0\\0\\0\\0\\0\\0\\0\\0\\0\\0\\0\\0\\0\\0\\0\\0\\0\\0\\0\\u{5}\""
      ],
      "transaction": {
        "type": "0x02",
        "from": "0x034e2cc5f2eee18d90376166028c153794c8e913",
        "to": "0x02f1da193da9ec0b9666bf45166078d50cb582f1",
        "gas": "0x46b0b",
        "value": "0x0",
        "data": "0x71c79f6b000000000000000000000000000000000000000000000000000000000000008c0000000000000000000000004cceba2d7d2b4fdce4304d3e09a1fea9fbeb152800000000000000000000000000000000000000000000000000000000000003ec0000000000000000000000000000000000000000000000000000000000000080000000000000000000000000000000000000000000000000000000000000002850726f6a656374200000000000000000000000000000000000000000000000000000000000000005000000000000000000000000000000000000000000000000",
        "nonce": "0xb",
        "accessList": []
      },
      "additionalContracts": [],
      "isFixedGasLimit": false
    },
    {
      "hash": "0xb33a8f3ab7a9b46a39b6e0950e4ae539cf6986bf6a1947a1745e6a24fd034f39",
      "transactionType": "CALL",
      "contractName": null,
      "contractAddress": "0x02f1Da193Da9Ec0b9666bf45166078D50Cb582f1",
      "function": "createVoter(string,address)",
      "arguments": [
        "\"Voter \\0\\0\\0\\0\\0\\0\\0\\0\\0\\0\\0\\0\\0\\0\\0\\0\\0\\0\\0\\0\\0\\0\\0\\0\\0\\0\\0\\0\\0\\0\\0\\u{1}\"",
        "0x3DA8D322CB2435dA26E9C9fEE670f9fB7Fe74E49"
      ],
      "transaction": {
        "type": "0x02",
        "from": "0x034e2cc5f2eee18d90376166028c153794c8e913",
        "to": "0x02f1da193da9ec0b9666bf45166078d50cb582f1",
        "gas": "0x390bc",
        "value": "0x0",
        "data": "0x2a4be2ad00000000000000000000000000000000000000000000000000000000000000400000000000000000000000003da8d322cb2435da26e9c9fee670f9fb7fe74e490000000000000000000000000000000000000000000000000000000000000026566f7465722000000000000000000000000000000000000000000000000000000000000000010000000000000000000000000000000000000000000000000000",
        "nonce": "0xc",
        "accessList": []
      },
      "additionalContracts": [],
      "isFixedGasLimit": false
    },
    {
      "hash": "0xe2ea043924735e2f32ddf5143197a27f59255505e35cd8a426949bd09c3c3b40",
      "transactionType": "CALL",
      "contractName": null,
      "contractAddress": "0x02f1Da193Da9Ec0b9666bf45166078D50Cb582f1",
      "function": "createVoter(string,address)",
      "arguments": [
        "\"Voter \\0\\0\\0\\0\\0\\0\\0\\0\\0\\0\\0\\0\\0\\0\\0\\0\\0\\0\\0\\0\\0\\0\\0\\0\\0\\0\\0\\0\\0\\0\\0\\u{2}\"",
        "0xDbc23AE43a150ff8884B02Cea117b22D1c3b9796"
      ],
      "transaction": {
        "type": "0x02",
        "from": "0x034e2cc5f2eee18d90376166028c153794c8e913",
        "to": "0x02f1da193da9ec0b9666bf45166078d50cb582f1",
        "gas": "0x390bc",
        "value": "0x0",
        "data": "0x2a4be2ad0000000000000000000000000000000000000000000000000000000000000040000000000000000000000000dbc23ae43a150ff8884b02cea117b22d1c3b97960000000000000000000000000000000000000000000000000000000000000026566f7465722000000000000000000000000000000000000000000000000000000000000000020000000000000000000000000000000000000000000000000000",
        "nonce": "0xd",
        "accessList": []
      },
      "additionalContracts": [],
      "isFixedGasLimit": false
    },
    {
      "hash": null,
      "transactionType": "CALL",
      "contractName": null,
      "contractAddress": "0x02f1Da193Da9Ec0b9666bf45166078D50Cb582f1",
      "function": "createVoter(string,address)",
      "arguments": [
        "\"Voter \\0\\0\\0\\0\\0\\0\\0\\0\\0\\0\\0\\0\\0\\0\\0\\0\\0\\0\\0\\0\\0\\0\\0\\0\\0\\0\\0\\0\\0\\0\\0\\u{3}\"",
        "0x68E527780872cda0216Ba0d8fBD58b67a5D5e351"
      ],
      "transaction": {
        "type": "0x02",
        "from": "0x034e2cc5f2eee18d90376166028c153794c8e913",
        "to": "0x02f1da193da9ec0b9666bf45166078d50cb582f1",
        "gas": "0x390bc",
        "value": "0x0",
        "data": "0x2a4be2ad000000000000000000000000000000000000000000000000000000000000004000000000000000000000000068e527780872cda0216ba0d8fbd58b67a5d5e3510000000000000000000000000000000000000000000000000000000000000026566f7465722000000000000000000000000000000000000000000000000000000000000000030000000000000000000000000000000000000000000000000000",
        "nonce": "0xe",
        "accessList": []
      },
      "additionalContracts": [],
      "isFixedGasLimit": false
    },
    {
      "hash": null,
      "transactionType": "CALL",
      "contractName": null,
      "contractAddress": "0x02f1Da193Da9Ec0b9666bf45166078D50Cb582f1",
      "function": "createVoter(string,address)",
      "arguments": [
        "\"Voter \\0\\0\\0\\0\\0\\0\\0\\0\\0\\0\\0\\0\\0\\0\\0\\0\\0\\0\\0\\0\\0\\0\\0\\0\\0\\0\\0\\0\\0\\0\\0\\u{4}\"",
        "0x5A83529ff76Ac5723A87008c4D9B436AD4CA7d28"
      ],
      "transaction": {
        "type": "0x02",
        "from": "0x034e2cc5f2eee18d90376166028c153794c8e913",
        "to": "0x02f1da193da9ec0b9666bf45166078d50cb582f1",
        "gas": "0x3c65c",
        "value": "0x0",
        "data": "0x2a4be2ad00000000000000000000000000000000000000000000000000000000000000400000000000000000000000005a83529ff76ac5723a87008c4d9b436ad4ca7d280000000000000000000000000000000000000000000000000000000000000026566f7465722000000000000000000000000000000000000000000000000000000000000000040000000000000000000000000000000000000000000000000000",
        "nonce": "0xf",
        "accessList": []
      },
      "additionalContracts": [],
      "isFixedGasLimit": false
    },
    {
      "hash": null,
      "transactionType": "CALL",
      "contractName": null,
      "contractAddress": "0x02f1Da193Da9Ec0b9666bf45166078D50Cb582f1",
      "function": "createVoter(string,address)",
      "arguments": [
        "\"Voter \\0\\0\\0\\0\\0\\0\\0\\0\\0\\0\\0\\0\\0\\0\\0\\0\\0\\0\\0\\0\\0\\0\\0\\0\\0\\0\\0\\0\\0\\0\\0\\u{5}\"",
        "0x8735015837bD10e05d9cf5EA43A2486Bf4Be156F"
      ],
      "transaction": {
        "type": "0x02",
        "from": "0x034e2cc5f2eee18d90376166028c153794c8e913",
        "to": "0x02f1da193da9ec0b9666bf45166078d50cb582f1",
        "gas": "0x390bc",
        "value": "0x0",
        "data": "0x2a4be2ad00000000000000000000000000000000000000000000000000000000000000400000000000000000000000008735015837bd10e05d9cf5ea43a2486bf4be156f0000000000000000000000000000000000000000000000000000000000000026566f7465722000000000000000000000000000000000000000000000000000000000000000050000000000000000000000000000000000000000000000000000",
        "nonce": "0x10",
        "accessList": []
      },
      "additionalContracts": [],
      "isFixedGasLimit": false
    }
  ],
  "receipts": [],
  "libraries": [],
  "pending": [
    "0x9103e0e6406bb9a3077ca5b88b389e91c89bbd682682736d3eeba3472583dcb2",
    "0x72cc8da566f56e106d5818a6e3013608ea5403a974b15d829c906fc8ffd0381b",
    "0x1bbe4d69e394f67c0763e75640e423159af8b844b2eeb4644faa01187527e079",
    "0x6f69d28a94ec506dbd47febb1b9f980d8f1cb7b00b5aed1b9e00301ef0483234",
    "0xa7518324ab189af868d1d144e0113f8cba1b278cfbe009ace9f2e3eec4036193",
    "0x2ca86a00aaa68f89e98baea870ce7dedc2f6a3613d7fddc8097d2e97d0ae577f",
    "0x4e9979110d5839e0060ef901ce39df2cc16c8f8abee569f656c13f43899eb2dd",
    "0xf01cc374a05d19760d24679c8507d6ced33f96587112f4831089d683e5621052",
    "0x720782f381bc4fdf8c8cad8cbad5cc1fcd2129b22b8a9d4c880989b1a447648b",
    "0x30a03ab96be05f35fea51eb9450873e8f3af2c938b262f8a4e18f2ac628657b9",
    "0xb33a8f3ab7a9b46a39b6e0950e4ae539cf6986bf6a1947a1745e6a24fd034f39",
    "0xe2ea043924735e2f32ddf5143197a27f59255505e35cd8a426949bd09c3c3b40"
  ],
  "returns": {},
  "timestamp": 1723307679,
  "chain": 84532,
  "multi": false,
  "commit": "d6107bf"
}